{
  "_format": "hh-sol-artifact-1",
  "contractName": "Mastermind",
  "sourceName": "contracts/Mastermind.sol",
  "abi": [
    {
      "anonymous": false,
      "inputs": [
        {
          "indexed": false,
          "internalType": "uint256",
          "name": "gameId",
          "type": "uint256"
        },
        {
          "indexed": false,
          "internalType": "address",
          "name": "accused",
          "type": "address"
        }
      ],
      "name": "AFKAccusation",
      "type": "event"
    },
    {
      "anonymous": false,
      "inputs": [
        {
          "indexed": false,
          "internalType": "uint256",
          "name": "gameId",
          "type": "uint256"
        },
        {
          "indexed": false,
          "internalType": "uint256[]",
          "name": "codeSecret",
          "type": "uint256[]"
        }
      ],
      "name": "CodeSecretPublished",
      "type": "event"
    },
    {
      "anonymous": false,
      "inputs": [
        {
          "indexed": false,
          "internalType": "uint256",
          "name": "gameId",
          "type": "uint256"
        },
        {
          "indexed": false,
          "internalType": "uint256[]",
          "name": "guessIDs",
          "type": "uint256[]"
        }
      ],
      "name": "Dispute",
      "type": "event"
    },
    {
      "anonymous": false,
      "inputs": [
        {
          "indexed": false,
          "internalType": "uint256",
          "name": "gameId",
          "type": "uint256"
        },
        {
          "indexed": false,
          "internalType": "address",
          "name": "player",
          "type": "address"
        },
        {
          "indexed": false,
          "internalType": "uint256",
          "name": "numCorrectPositions",
          "type": "uint256"
        },
        {
          "indexed": false,
          "internalType": "uint256",
          "name": "numCorrectColors",
          "type": "uint256"
        }
      ],
      "name": "Feedback",
      "type": "event"
    },
    {
      "anonymous": false,
      "inputs": [
        {
          "indexed": false,
          "internalType": "uint256",
          "name": "gameId",
          "type": "uint256"
        },
        {
          "indexed": false,
          "internalType": "address",
          "name": "creator",
          "type": "address"
        },
        {
          "indexed": false,
          "internalType": "uint256",
          "name": "numColors",
          "type": "uint256"
        },
        {
          "indexed": false,
          "internalType": "uint256",
          "name": "codeLength",
          "type": "uint256"
        },
        {
          "indexed": false,
          "internalType": "uint256",
          "name": "numTurns",
          "type": "uint256"
        },
        {
          "indexed": false,
          "internalType": "uint256",
          "name": "maxGuesses",
          "type": "uint256"
        },
        {
          "indexed": false,
          "internalType": "uint256",
          "name": "gameStake",
          "type": "uint256"
        }
      ],
      "name": "GameCreated",
      "type": "event"
    },
    {
      "anonymous": false,
      "inputs": [
        {
          "indexed": false,
          "internalType": "uint256",
          "name": "gameId",
          "type": "uint256"
        },
        {
          "indexed": false,
          "internalType": "address",
          "name": "winner",
          "type": "address"
        },
        {
          "indexed": false,
          "internalType": "uint256",
          "name": "winnerPoints",
          "type": "uint256"
        },
        {
          "indexed": false,
          "internalType": "uint256",
          "name": "loserPoints",
          "type": "uint256"
        }
      ],
      "name": "GameEnded",
      "type": "event"
    },
    {
      "anonymous": false,
      "inputs": [
        {
          "indexed": false,
          "internalType": "uint256",
          "name": "gameId",
          "type": "uint256"
        },
        {
          "indexed": false,
          "internalType": "address",
          "name": "joiner",
          "type": "address"
        },
        {
          "indexed": false,
          "internalType": "address",
          "name": "creator",
          "type": "address"
        }
      ],
      "name": "GameJoined",
      "type": "event"
    },
    {
      "anonymous": false,
      "inputs": [
        {
          "indexed": false,
          "internalType": "uint256",
          "name": "gameId",
          "type": "uint256"
        },
        {
          "indexed": false,
          "internalType": "address",
          "name": "player",
          "type": "address"
        },
        {
          "indexed": false,
          "internalType": "uint256[]",
          "name": "guess",
          "type": "uint256[]"
        }
      ],
      "name": "Guess",
      "type": "event"
    },
    {
      "anonymous": false,
      "inputs": [
        {
          "indexed": false,
          "internalType": "uint256",
          "name": "gameId",
          "type": "uint256"
        }
      ],
      "name": "HandlingGame",
      "type": "event"
    },
    {
      "anonymous": false,
      "inputs": [
        {
          "indexed": false,
          "internalType": "uint256",
          "name": "gameId",
          "type": "uint256"
        },
        {
          "indexed": false,
          "internalType": "address",
          "name": "codeMaker",
          "type": "address"
        },
        {
          "indexed": false,
          "internalType": "bytes32",
          "name": "hash",
          "type": "bytes32"
        }
      ],
      "name": "HashPublished",
      "type": "event"
    },
    {
      "anonymous": false,
      "inputs": [
        {
          "indexed": false,
          "internalType": "uint256",
          "name": "gameId",
          "type": "uint256"
        },
        {
          "indexed": false,
          "internalType": "address",
          "name": "punished",
          "type": "address"
        },
        {
          "indexed": false,
          "internalType": "uint256",
          "name": "amount",
          "type": "uint256"
        }
      ],
      "name": "Punishment",
      "type": "event"
    },
    {
      "anonymous": false,
      "inputs": [
        {
          "indexed": false,
          "internalType": "uint256",
          "name": "gameId",
          "type": "uint256"
        },
        {
          "indexed": false,
          "internalType": "address",
          "name": "punished",
          "type": "address"
        }
      ],
      "name": "ResolveDispute",
      "type": "event"
    },
    {
      "anonymous": false,
      "inputs": [
        {
          "indexed": false,
          "internalType": "uint256",
          "name": "gameId",
          "type": "uint256"
        },
        {
          "indexed": false,
          "internalType": "bool",
          "name": "guessed",
          "type": "bool"
        }
      ],
      "name": "TurnEnded",
      "type": "event"
    },
    {
      "anonymous": false,
      "inputs": [
        {
          "indexed": false,
          "internalType": "uint256",
          "name": "gameId",
          "type": "uint256"
        },
        {
          "indexed": false,
          "internalType": "address",
          "name": "codeMaker",
          "type": "address"
        }
      ],
      "name": "TurnStarted",
      "type": "event"
    },
    {
      "inputs": [],
      "name": "B_AFKBLOCKS",
      "outputs": [
        {
          "internalType": "uint256",
          "name": "",
          "type": "uint256"
        }
      ],
      "stateMutability": "view",
      "type": "function"
    },
    {
      "inputs": [],
      "name": "CODE_LENGTH",
      "outputs": [
        {
          "internalType": "uint256",
          "name": "",
          "type": "uint256"
        }
      ],
      "stateMutability": "view",
      "type": "function"
    },
    {
      "inputs": [],
      "name": "K_EXTRA_POINTS",
      "outputs": [
        {
          "internalType": "uint256",
          "name": "",
          "type": "uint256"
        }
      ],
      "stateMutability": "view",
      "type": "function"
    },
    {
      "inputs": [],
      "name": "MAX_COLORS",
      "outputs": [
        {
          "internalType": "uint256",
          "name": "",
          "type": "uint256"
        }
      ],
      "stateMutability": "view",
      "type": "function"
    },
    {
      "inputs": [],
      "name": "NUM_GUESSES",
      "outputs": [
        {
          "internalType": "uint256",
          "name": "",
          "type": "uint256"
        }
      ],
      "stateMutability": "view",
      "type": "function"
    },
    {
      "inputs": [],
      "name": "NUM_TURNS",
      "outputs": [
        {
          "internalType": "uint256",
          "name": "",
          "type": "uint256"
        }
      ],
      "stateMutability": "view",
      "type": "function"
    },
    {
      "inputs": [],
      "name": "TIME_TO_DISPUTE",
      "outputs": [
        {
          "internalType": "uint256",
          "name": "",
          "type": "uint256"
        }
      ],
      "stateMutability": "view",
      "type": "function"
    },
    {
      "inputs": [
        {
          "internalType": "uint256",
          "name": "_gameId",
          "type": "uint256"
        }
      ],
      "name": "accuseAFK",
      "outputs": [],
      "stateMutability": "nonpayable",
      "type": "function"
    },
    {
      "inputs": [
        {
          "internalType": "uint256",
          "name": "",
          "type": "uint256"
        }
      ],
      "name": "activeGames",
      "outputs": [
        {
          "internalType": "uint256",
          "name": "",
          "type": "uint256"
        }
      ],
      "stateMutability": "view",
      "type": "function"
    },
    {
      "inputs": [
        {
          "internalType": "bytes32",
          "name": "_bytes32",
          "type": "bytes32"
        }
      ],
      "name": "bytes32ToString",
      "outputs": [
        {
          "internalType": "string",
          "name": "",
          "type": "string"
        }
      ],
      "stateMutability": "pure",
      "type": "function"
    },
    {
      "inputs": [],
      "name": "createGame",
      "outputs": [
        {
          "internalType": "uint256",
          "name": "",
          "type": "uint256"
        }
      ],
      "stateMutability": "payable",
      "type": "function"
    },
    {
      "inputs": [
        {
          "internalType": "address",
          "name": "_joiner",
          "type": "address"
        }
      ],
      "name": "createGameWithJoiner",
      "outputs": [
        {
          "internalType": "uint256",
          "name": "",
          "type": "uint256"
        }
      ],
      "stateMutability": "payable",
      "type": "function"
    },
    {
      "inputs": [
        {
          "internalType": "uint256",
          "name": "_gameId",
          "type": "uint256"
        },
        {
          "internalType": "uint256[]",
          "name": "guessIDs",
          "type": "uint256[]"
        }
      ],
      "name": "disputeFeedback",
      "outputs": [],
      "stateMutability": "nonpayable",
      "type": "function"
    },
    {
      "inputs": [
        {
          "internalType": "uint256",
          "name": "",
          "type": "uint256"
        }
      ],
      "name": "games",
      "outputs": [
        {
          "internalType": "address",
          "name": "creator",
          "type": "address"
        },
        {
          "internalType": "address",
          "name": "joiner",
          "type": "address"
        },
        {
          "internalType": "uint256",
          "name": "gameStake",
          "type": "uint256"
        },
        {
          "internalType": "uint256",
          "name": "gameId",
          "type": "uint256"
        },
        {
          "internalType": "uint256",
          "name": "numColors",
          "type": "uint256"
        },
        {
          "internalType": "uint256",
          "name": "codeLength",
          "type": "uint256"
        },
        {
          "internalType": "uint256",
          "name": "numTurns",
          "type": "uint256"
        },
        {
          "internalType": "uint256",
          "name": "maxGuesses",
          "type": "uint256"
        },
        {
          "internalType": "uint256",
          "name": "extraPointsK",
          "type": "uint256"
        },
        {
          "internalType": "uint256",
          "name": "timeToDispute",
          "type": "uint256"
        },
        {
          "internalType": "uint256",
          "name": "currentTurn",
          "type": "uint256"
        },
        {
          "internalType": "bool",
          "name": "guessed",
          "type": "bool"
        },
        {
          "internalType": "uint256",
          "name": "startTime",
          "type": "uint256"
        },
        {
          "internalType": "uint256",
          "name": "endTime",
          "type": "uint256"
        },
        {
          "internalType": "uint256",
          "name": "b",
          "type": "uint256"
        },
        {
          "internalType": "bool",
          "name": "gameStarted",
          "type": "bool"
        },
        {
          "internalType": "bool",
          "name": "gameEnded",
          "type": "bool"
        },
        {
          "internalType": "bool",
          "name": "creatorIsMakerSeed",
          "type": "bool"
        },
        {
          "internalType": "bytes32",
          "name": "codeHash",
          "type": "bytes32"
        }
      ],
      "stateMutability": "view",
      "type": "function"
    },
    {
      "inputs": [],
      "name": "getActiveGames",
      "outputs": [
        {
          "internalType": "uint256[]",
          "name": "",
          "type": "uint256[]"
        }
      ],
      "stateMutability": "view",
      "type": "function"
    },
    {
      "inputs": [
        {
          "internalType": "uint256",
          "name": "_gameId",
          "type": "uint256"
        }
      ],
      "name": "getCurrentBreaker",
      "outputs": [
        {
          "internalType": "address",
          "name": "",
          "type": "address"
        }
      ],
      "stateMutability": "view",
      "type": "function"
    },
    {
      "inputs": [
        {
          "internalType": "uint256",
          "name": "_gameId",
          "type": "uint256"
        }
      ],
      "name": "getCurrentMaker",
      "outputs": [
        {
          "internalType": "address",
          "name": "",
          "type": "address"
        }
      ],
      "stateMutability": "view",
      "type": "function"
    },
    {
      "inputs": [
        {
          "internalType": "uint256",
          "name": "_gameId",
          "type": "uint256"
        }
      ],
      "name": "getGameDetails",
      "outputs": [
        {
          "internalType": "uint256",
          "name": "currentTime",
          "type": "uint256"
        },
        {
          "internalType": "address",
          "name": "creator",
          "type": "address"
        },
        {
          "internalType": "address",
          "name": "joiner",
          "type": "address"
        },
        {
          "internalType": "uint256",
          "name": "startTime",
          "type": "uint256"
        },
        {
          "internalType": "uint256",
          "name": "endTime",
          "type": "uint256"
        },
        {
          "internalType": "uint256",
          "name": "codeSecretLength",
          "type": "uint256"
        },
        {
          "internalType": "uint256",
          "name": "numTurns",
          "type": "uint256"
        },
        {
          "internalType": "uint256",
          "name": "numColors",
          "type": "uint256"
        },
        {
          "internalType": "uint256",
          "name": "codeLength",
          "type": "uint256"
        },
        {
          "internalType": "uint256",
          "name": "maxGuesses",
          "type": "uint256"
        },
        {
          "internalType": "uint256",
          "name": "timeToDispute",
          "type": "uint256"
        },
        {
          "internalType": "uint256",
          "name": "gameStake",
          "type": "uint256"
        },
        {
          "internalType": "uint256",
          "name": "gameId",
          "type": "uint256"
        },
        {
          "internalType": "bool",
          "name": "gameEnded",
          "type": "bool"
        },
        {
          "internalType": "bool",
          "name": "gameStarted",
          "type": "bool"
        },
        {
          "internalType": "uint256",
          "name": "currentTurn",
          "type": "uint256"
        },
        {
          "internalType": "uint256",
          "name": "extraPointsK",
          "type": "uint256"
        },
        {
          "internalType": "uint256",
          "name": "b",
          "type": "uint256"
        },
        {
          "internalType": "bool",
          "name": "creatorIsMakerSeed",
          "type": "bool"
        },
        {
          "internalType": "bytes32",
          "name": "codeHash",
          "type": "bytes32"
        },
        {
          "internalType": "uint256",
          "name": "guessesLength",
          "type": "uint256"
        },
        {
          "internalType": "uint256",
          "name": "feedbacksLength",
          "type": "uint256"
        }
      ],
      "stateMutability": "view",
      "type": "function"
    },
    {
      "inputs": [
        {
          "internalType": "address",
          "name": "joiner",
          "type": "address"
        }
      ],
      "name": "getJoinableGames",
      "outputs": [
        {
          "components": [
            {
              "internalType": "uint256",
              "name": "gameId",
              "type": "uint256"
            },
            {
              "internalType": "address",
              "name": "creator",
              "type": "address"
            },
            {
              "internalType": "address",
              "name": "joiner",
              "type": "address"
            },
            {
              "internalType": "uint256",
              "name": "gameStake",
              "type": "uint256"
            }
          ],
          "internalType": "struct Mastermind.GameInfo[]",
          "name": "gamesInfo",
          "type": "tuple[]"
        }
      ],
      "stateMutability": "view",
      "type": "function"
    },
    {
      "inputs": [],
      "name": "getNGames",
      "outputs": [
        {
          "internalType": "uint256",
          "name": "",
          "type": "uint256"
        }
      ],
      "stateMutability": "view",
      "type": "function"
    },
    {
      "inputs": [
        {
          "internalType": "uint256[]",
          "name": "intArray",
          "type": "uint256[]"
        },
        {
          "internalType": "bytes",
          "name": "seed",
          "type": "bytes"
        }
      ],
      "name": "hashArrayOfIntegers",
      "outputs": [
        {
          "internalType": "bytes32",
          "name": "",
          "type": "bytes32"
        }
      ],
      "stateMutability": "pure",
      "type": "function"
    },
    {
      "inputs": [
        {
          "internalType": "uint256",
          "name": "_gameId",
          "type": "uint256"
        }
      ],
      "name": "joinGame",
      "outputs": [],
      "stateMutability": "payable",
      "type": "function"
    },
    {
      "inputs": [
        {
          "internalType": "uint256",
          "name": "",
          "type": "uint256"
        }
      ],
      "name": "joinableGames",
      "outputs": [
        {
          "internalType": "uint256",
          "name": "gameId",
          "type": "uint256"
        },
        {
          "internalType": "address",
          "name": "creator",
          "type": "address"
        },
        {
          "internalType": "address",
          "name": "joiner",
          "type": "address"
        },
        {
          "internalType": "uint256",
          "name": "gameStake",
          "type": "uint256"
        }
      ],
      "stateMutability": "view",
      "type": "function"
    },
    {
      "inputs": [
        {
          "internalType": "uint256",
          "name": "_gameId",
          "type": "uint256"
        },
        {
          "internalType": "uint256[]",
          "name": "guess",
          "type": "uint256[]"
        }
      ],
      "name": "makeGuess",
      "outputs": [],
      "stateMutability": "nonpayable",
      "type": "function"
    },
    {
      "inputs": [
        {
          "internalType": "uint256",
          "name": "_gameId",
          "type": "uint256"
        },
        {
          "internalType": "uint256",
          "name": "numCorrectPositions",
          "type": "uint256"
        },
        {
          "internalType": "uint256",
          "name": "numCorrectColors",
          "type": "uint256"
        }
      ],
      "name": "provideFeedback",
      "outputs": [],
      "stateMutability": "nonpayable",
      "type": "function"
    },
    {
      "inputs": [
        {
          "internalType": "uint256",
          "name": "_gameId",
          "type": "uint256"
        },
        {
          "internalType": "uint256[]",
          "name": "_codeSecret",
          "type": "uint256[]"
        },
        {
          "internalType": "bytes",
          "name": "seed",
          "type": "bytes"
        }
      ],
      "name": "publishCodeSecret",
      "outputs": [],
      "stateMutability": "nonpayable",
      "type": "function"
    },
    {
      "inputs": [
        {
          "internalType": "uint256",
          "name": "_gameId",
          "type": "uint256"
        }
      ],
      "name": "startTurn",
      "outputs": [],
      "stateMutability": "nonpayable",
      "type": "function"
    },
    {
      "inputs": [
        {
          "internalType": "uint256",
          "name": "_gameId",
          "type": "uint256"
        },
        {
          "internalType": "bytes32",
          "name": "_hash",
          "type": "bytes32"
        }
      ],
      "name": "submitCodeHash",
      "outputs": [],
      "stateMutability": "nonpayable",
      "type": "function"
    },
    {
      "inputs": [],
      "name": "totalGames",
      "outputs": [
        {
          "internalType": "uint256",
          "name": "",
          "type": "uint256"
        }
      ],
      "stateMutability": "view",
      "type": "function"
    },
    {
      "inputs": [
        {
          "internalType": "uint256",
          "name": "_gameId",
          "type": "uint256"
        }
      ],
      "name": "verifyAFKAccusation",
      "outputs": [],
      "stateMutability": "nonpayable",
      "type": "function"
    }
  ],
  "bytecode": "0x6080806040523461001657614abd908161001c8239f35b600080fdfe6102006040526004361015610014575b600080fd5b60003560e01c80630d2bb4b714613b8f578063117a5b9014613a2757806313e4c714146139f05780631b31abda1461380b5780631b76929c1461377a5780632782158d146130075780632c4e591b1461219357806338b0bc8214612feb578063579f838e146111b75780635be5484514612f8c57806368e712f314612ded5780637255d729146126375780637ad2b34c146125d65780637eccd594146111b757806380b90070146111b75780638917c5311461230f5780638b575641146122f35780639201de55146121b157806392b1696b146121935780639ecb552414612176578063a10a8ad214612158578063ab11d7cc14611c43578063b2d9f71014611a2d578063badf6e79146114ec578063be7f3599146111ef578063d5e11887146111c0578063d620f560146111b7578063ef1c97c214610709578063efaa55a0146103335763fc684a511461016857600080fd5b3461000f5760208060031936011261000f57600435906001600160a01b039182811680910361000f576002908154916101a08361423a565b9260009260005b8281106102d1575050506101ba82613fe0565b926101c86040519485613fbd565b828452601f196101d784613fe0565b018560005b8281106102bb5750505060005b8381106102535750505050604051918083018184528251809152816040850193019160005b82811061021b5785850386f35b83518051865280830151881686840152604080820151891690870152606090810151908601526080909401939281019260010161020e565b8061026a6102646102b6938561427a565b51614159565b5060036040519161027a83613f69565b805483528a6001820154168a8401528a87820154166040840152015460608201526102a5828861427a565b526102b0818761427a565b5061426b565b6101e9565b6102c361428e565b8282890101520186906101dc565b8188856102dd84614159565b5001541614801561031d575b6102fc575b6102f79061426b565b6101a7565b93610315818661030f6102f7948a61427a565b5261426b565b9490506102ee565b50878461032983614159565b50015416156102e9565b60208060031936011261000f5760043590610351600354831061445f565b81600052600081526040600020600f810160ff8154166106c557600290818301543403610681576001600160a01b039182845416331461061757600180850192835485811680156000146105a557506001600160a01b031916331784555b8160ff1982541617905580546801000000000000000081101561058f57876103de82846103f9940185556140b9565b90919082549060031b600019811b9283911b16911916179055565b81546000805b828210610566575b61044c575b7f8ca5b55df47712c5e59e7aaddc402fc30e6399e3498efec70a7e440bb9d2fac860608a8a8a8a808b5416915416916040519384528301526040820152a1005b60001998969497959398918281019081116105505761046d61047491614159565b5091614159565b9190916104e457808203610510575b5050875480156104fa57019561049887614159565b9790976104e4577f8ca5b55df47712c5e59e7aaddc402fc30e6399e3498efec70a7e440bb9d2fac898600060038a8288978160609e55820155828482015501555592949681949661040c565b634e487b7160e01b600052600060045260246000fd5b634e487b7160e01b600052603160045260246000fd5b60038181925484558b868501888884015416906001600160a01b031991828254161790558882870192840154169082541617905501549101558880610483565b634e487b7160e01b600052601160045260246000fd5b908961057182614159565b505414610587576105819061426b565b906103ff565b905082610407565b634e487b7160e01b600052604160045260246000fd5b905033146103af576084876040519062461bcd60e51b82526004820152603860248201527f4f6e6c79206120706c617965722073706563696669656420627920746865206360448201527f726561746f72206d6179206a6f696e207468652067616d6500000000000000006064820152fd5b6084856040519062461bcd60e51b82526004820152602260248201527f43726561746f722063616e6e6f74206a6f696e207468656972206f776e20676160448201527f6d650000000000000000000000000000000000000000000000000000000000006064820152fd5b6064846040519062461bcd60e51b82526004820152601960248201527f496e636f72726563742067616d65207374616b652073656e74000000000000006044820152fd5b6064836040519062461bcd60e51b82526004820152601860248201527f47616d652068617320616c7265616479207374617274656400000000000000006044820152fd5b3461000f57610717366141b6565b90610725600354821061445f565b806000526000602052610770604060002061075560ff600f83015461074b8282166144aa565b60081c16156144f5565b6001600160a01b038154163314908115610f70575b50614540565b806000526000602052600d604060002001541561114d57806000526000602052601860406000200154156110e3578060005260006020526107c2600d6040600020015460096040600020015490614654565b42101561109f5780600052600060205260406000206107e18233614846565b611035576107ee826149bb565b6001600160a01b0360128301911692836000528160205260ff60406000205416610fcb57845191600a601485019401549261082984866140f0565b505410610f875760005b865181101561094957610846818861427a565b5161085185876140f0565b505411156109055760005b818110610872575061086d9061426b565b610833565b61087c828961427a565b51610887828a61427a565b511461089b576108969061426b565b61085c565b608460405162461bcd60e51b815260206004820152602a60248201527f4475706c69636174652067756573732049442e2047756573736573206d75737460448201527f2062652061207365742e000000000000000000000000000000000000000000006064820152fd5b606460405162461bcd60e51b815260206004820152601060248201527f496e76616c6964206775657373204944000000000000000000000000000000006044820152fd5b868383886000526020526040600020600160ff198254161790557f738400b8f752acddf42852c5993f844990ae9dbd98c5579625d3537dad1b663f604051828152604060208201528061099f6040820186614108565b0390a16109af600354821061445f565b8060005260006020526109ef60406000206109d560ff600f83015461074b8282166144aa565b336001600160a01b0382541614908115610f705750614540565b8060005260006020526040600020610a0682614982565b610a0f836149bb565b926000945b8051861015610db357600a84015495610a74610a6e610a67610a5c610a51610a3f8c60148c016140f0565b50610a4a878961427a565b51906140f0565b509a60158a016140f0565b50610a4a858761427a565b50986141e9565b976141e9565b95610a81601887016141e9565b93600095600094610a928b5161423a565b9860005b8c8051821015610aef57610aab828d9261427a565b51610ab6838c61427a565b5114610acc575b50610ac79061426b565b610a96565b99906001610ae682610ae0610ac79561426b565b9d61427a565b5290508a610abd565b505090999192939495979960005b8c51811015610bb357610b10818c61427a565b5115610b25575b610b209061426b565b610afd565b9a9593916000979593975b8d8a51821015610ba0578d610b449161427a565b51610b4f828c61427a565b511480610b8e575b610b6957610b649061426b565b610b30565b9b6001610b85610b20939597999e610ae08f9e9c989a9c61426b565b525b9050610b17565b50610b99818d61427a565b5115610b57565b50509193959a610b209097939597610b87565b509a50989197509295919450825115610d9d576020830151149182610d84575b505015610bee575b610be49061426b565b9493929193610a14565b604080518381526001600160a01b03851660208201527fd86b7c8b2dd3f5581afd777a66c96de7fc1f40139f09f1899a98fe7ebb23c5d59190a16001546000805b828210610d55575b610cf7575b5050600082815260208181526040808320600f8101805461ff0019166101001790556001600160a01b038881168086526011830185528386206001815591891686528386208690559054835188815294850182905292840192909252606083018490528392839283929091600291907f64e67454795640f66cef8019a707b9381952f2f1024a355d5470bafc82af180090608090a1015490828215610cee575bf1610bdb575b6040513d6000823e3d90fd5b506108fc610cdc565b81600019810111610550576103de610d15600019610d2294016140b9565b90549060031b1c916140b9565b60015480156104fa5760001901610d4b610d3b826140b9565b60001982549160031b1b19169055565b6001558680610c3c565b9084610d60826140b9565b90549060031b1c14610d7b57610d759061426b565b90610c2f565b90506001610c37565b809192505160011015610d9d5760400151148780610bd3565b634e487b7160e01b600052603260045260246000fd5b5090837fd86b7c8b2dd3f5581afd777a66c96de7fc1f40139f09f1899a98fe7ebb23c5d560405180610dfc8587839092916001600160a01b036020916040840195845216910152565b0390a1600080600154905b818310610f41575b610ece575b5050600083815260208181526040808320600f8101805461ff0019166101001790556001600160a01b03958616808552601182018452828520858155969095168085528285206001908190559585529554825197885292870186905290860193909352606085015292839283928392600291907f64e67454795640f66cef8019a707b9381952f2f1024a355d5470bafc82af18009080608081015b0390a1015490828215610ec5575bf115610ce257005b506108fc610ebd565b600019949291858201918211610550576103de610d15610eed936140b9565b6001549182156104fa576000948594859485946002937f64e67454795640f66cef8019a707b9381952f2f1024a355d5470bafc82af18009201610f32610d3b826140b9565b60015595505094505093610e14565b9185610f4c826140b9565b90549060031b1c14610f6757610f619061426b565b91610e07565b91506001610e0f565b600101546001600160a01b0316331490508461076a565b606460405162461bcd60e51b815260206004820152601960248201527f496e76616c6964206e756d626572206f662067756573736573000000000000006044820152fd5b608460405162461bcd60e51b815260206004820152602b60248201527f427265616b65722068617320616c7265616479206469737075746564206d616b60448201527f657220666565646261636b0000000000000000000000000000000000000000006064820152fd5b608460405162461bcd60e51b815260206004820152602960248201527f4f6e6c792074686520636f6465627265616b65722063616e206469737075746560448201527f20666565646261636b00000000000000000000000000000000000000000000006064820152fd5b606460405162461bcd60e51b815260206004820152601460248201527f446973707574652074696d6520657870697265640000000000000000000000006044820152fd5b608460405162461bcd60e51b815260206004820152603660248201527f43616e6e6f7420646973707574652c20436f646520736563726574206861732060448201527f6e6f74206265656e207075626c697368656420796574000000000000000000006064820152fd5b608460405162461bcd60e51b815260206004820152602960248201527f43616e6e6f7420646973707574652c205475726e20686173206e6f742066696e60448201527f69736865642079657400000000000000000000000000000000000000000000006064820152fd5b5061000f61413c565b3461000f57602060031936011261000f5760206111de6004356149bb565b6001600160a01b0360405191168152f35b3461000f5760208060031936011261000f57600435611211600354821061445f565b8060005260008252604060002061123360ff600f83015461074b8282166144aa565b6112526001600160a01b03918281541633149081156114dc5750614540565b81600052600083526040600020600d81018054156114725760188201908154156113f9578361128086614982565b16331480156113f0575b1561138657946113286001939260007f9efb9b5fd527c492fd7c47f1621da408223747ad7ba90f196681561818362ae7988882528185526112fb604083206112e36040516112d781613f85565b858152601483016143ac565b6015604051916112f283613f85565b858352016143ac565b600a8601611309815461426b565b905542600c870155556040519061131f82613f85565b60008252614322565b60006017830155600b820160ff198154169055838254166000526013820190526000604081205501541660005260006040812055611365816149bb565b604080519283526001600160a01b039091166020830152819081015b0390a1005b6084866040519062461bcd60e51b82526004820152602e60248201527f4f6e6c79207468652070726576696f757320627265616b65722063616e20737460448201527f6172742061206e6577207475726e0000000000000000000000000000000000006064820152fd5b5030331461128a565b60a4866040519062461bcd60e51b82526004820152604660248201527f43616e6e6f74207374617274206e6577207475726e2c2070726576696f75732060448201527f636f64652073656372657420686173206e6f74206265656e207075626c6973686064820152651959081e595d60d21b6084820152fd5b6084856040519062461bcd60e51b82526004820152603760248201527f43616e6e6f74207374617274206e6577207475726e2c2063757272656e74206f60448201527f6e6520686173206e6f742066696e6973686564207965740000000000000000006064820152fd5b600101548316331490508561076a565b3461000f57606060031936011261000f5760043560249081359060443560035482106115178161445f565b8260005260209060008252604060002094600f8601549361154060ff8661074b828099166144aa565b61155f6001600160a01b03978881541633149081156119715750614540565b856000526000845261157a601760406000200154151561458b565b8560005260008452611594600d60406000200154156145d6565b85600052600084526040600020926115ac8383614654565b60058501548091116119ea576115c188614621565b61198157831461186c575b50600a8301916115e08354601586016140f0565b5098604051906040820182811067ffffffffffffffff8211176118575760405282825283878301528a54680100000000000000008110156118575761162c9060019c8d820181556140f0565b9190916118435750805491600292838355808410611819575b5090600052866000208b60005b848110611807575050505050917f93b3a509472d0428ea355441618b92a72bece4285d90634b10b555167adcd4c56116d69260079433600052601387018852600060408120556116c9604051928392338d85909493926001600160a01b036060936080840197845216602083015260408201520152565b0390a154601484016140f0565b5054910154146116e257005b600b6040946117507fb3be9a24bc49244c2a09cfafde10d7faf3f8868c60c21b2d8a39cfb227e612ce9760009561171c600354891061445f565b87875286865261173989882091600f83015461074b8282166144aa565b833381835416149283156117f5575b505050614540565b84845283835261176760178786200154151561458b565b84845283835261177d600d8786200154156145d6565b8484528383528584209042600d830155611796866149bb565b6117a7600a840154601485016140f0565b505491601184019116918287528186526117c5898820918254614654565b9055600883015491865284526117df878620918254614654565b90550160ff1981541690558351928352820152a1005b90919250339201541614898381611748565b89845194019381840155018c90611652565b826000528c848a60002092830192015b828110611837575050611645565b60008155018d90611829565b634e487b7160e01b60005260006004526000fd5b50634e487b7160e01b60005260416004526000fd5b6118759061445f565b85600052600084526118ac604060002061189987600f83015461074b8282166144aa565b3389825416149081156119715750614540565b85600052600084526118c7601760406000200154151561458b565b85600052600084526118e1600d60406000200154156145d6565b8560005260008452600b604060002042600d8201556118ff886149bb565b89611911600a840154601485016140f0565b5054911660005260118201875261192e6040600020918254614654565b905501600160ff198254161790557fb3be9a24bc49244c2a09cfafde10d7faf3f8868c60c21b2d8a39cfb227e612ce60408051888152600187820152a1886115cc565b600101548916331490508a61076a565b60848660288c6040519262461bcd60e51b845260048401528201527f436f6465206d616b65722068617320616c72656164792070726f76696465642060448201527f666565646261636b0000000000000000000000000000000000000000000000006064820152fd5b60648660108c6040519262461bcd60e51b845260048401528201527f496e76616c696420666565646261636b000000000000000000000000000000006044820152fd5b3461000f57611a3b366141b6565b90611a49600354821061445f565b8060005260209060008252611a8f6040600020611a7160ff600f83015461074b8282166144aa565b6001600160a01b0390818154163314918215611c31575b5050614540565b8060005260008252611aaa601760406000200154151561458b565b8060005260008252611ac4600d60406000200154156145d6565b806000526000825260406000208351600582015403611bed57611ae682614621565b15611b8357611afc600a820154601483016140f0565b5080546801000000000000000081101561058f57611b1f916001820181556140f0565b9490946104e457601361138192611b57837f743daf4aa2b6c8a5fe0e11b0d35baf8c65e5dcb9ff666d11084d99c3c11593d698614322565b336000520184526000604081205560405193849384523390840152606060408401526060830190614108565b6084836040519062461bcd60e51b82526004820152602560248201527f436f646520627265616b65722068617320616c7265616479206d61646520612060448201527f67756573730000000000000000000000000000000000000000000000000000006064820152fd5b6064836040519062461bcd60e51b82526004820152601460248201527f496e76616c6964206775657373206c656e6774680000000000000000000000006044820152fd5b90915060013392015416148580611a88565b3461000f5760208060031936011261000f57600435600390611c678254821061445f565b80600052600083526040600020611c8960ff600f83015461074b8282166144aa565b611ca86001600160a01b03918281541633149081156121485750614540565b8160005260008452604060002081815416803314808015612139575b156120cf57156120c957826001830154165b8360138401911690816000528088526040600020541561205f57816000528752611d0a604060002054600e85015490614654565b431115611ff5578103611e9057508181541691600180920154169360009060008354925b838210611e63575b611dd8575b50505060008381528086526040808220600f8101805461ff00191661010017905586835260118101909752808220929092558281528181208190558481528181205492815281519384526001600160a01b03851660208501529083019190915260608201819052928392839283926002917f64e67454795640f66cef8019a707b9381952f2f1024a355d5470bafc82af1800908060808101610eaf565b6000199794929693979687810190811161055057611e0792611dfc6103de926140b9565b9054911b1c916140b9565b85549283156104fa577f64e67454795640f66cef8019a707b9381952f2f1024a355d5470bafc82af18008360009896610eaf6002958b9a998b9a8b9a01611e50610d3b826140b9565b8155975097505096509650819750611d3b565b9086611e6e826140b9565b905490851b1c14611e8857611e829061426b565b90611d2e565b905083611d36565b600191820154825491959316926000805b838210611fc8575b611f48575b50505060008381528086526040808220600f8101805461ff001916610100179055848352601181019097528082208290558582528082208390559281528281205483519485526001600160a01b0386166020860152928401919091526060830191909152928392839283926002917f64e67454795640f66cef8019a707b9381952f2f1024a355d5470bafc82af1800908060808101610eaf565b6000199794929693979687810190811161055057611f6c92611dfc6103de926140b9565b85549283156104fa577f64e67454795640f66cef8019a707b9381952f2f1024a355d5470bafc82af18008360009896610eaf6002958b9a998b9a8b9a01611fb5610d3b826140b9565b8155975097505096509650819750611eae565b9086611fd3826140b9565b905490851b1c14611fed57611fe79061426b565b90611ea1565b905083611ea9565b6084876040519062461bcd60e51b82526004820152602360248201527f41464b2061636375736174696f6e2074696d6520686173206e6f74206578706960448201527f72656400000000000000000000000000000000000000000000000000000000006064820152fd5b6084886040519062461bcd60e51b82526004820152602860248201527f506c6179657220686173206e6f74206265656e2061636375736564206f66206260448201527f65696e672041464b0000000000000000000000000000000000000000000000006064820152fd5b80611cd6565b6084876040519062461bcd60e51b82526004820152602660248201527f4f6e6c7920706c617965727320696e207468652067616d65207665726966792060448201527f61636375736500000000000000000000000000000000000000000000000000006064820152fd5b50836001840154163314611cc4565b600101548316331490508661076a565b3461000f57602060031936011261000f5760206111de600435614982565b3461000f57600060031936011261000f576020604051614e208152f35b3461000f57600060031936011261000f576020600354604051908152f35b3461000f5760208060031936011261000f576004359060005b60ff811682811090816122bd575b50156121ec576121e790614a76565b6121ca565b9060ff809216906122156121ff83614056565b9261220d6040519485613fbd565b808452614056565b818301601f1980920136823760005b808616908482108080612289575b1561225c5715610d9d578551821015610d9d57818589612257941a9188010153614a76565b612224565b8560408887601f886122808551968795818752519283809288015287870190614193565b01168101030190f35b15610d9d577fff0000000000000000000000000000000000000000000000000000000000000089841a60f81b161515612232565b9015610d9d57837fff00000000000000000000000000000000000000000000000000000000000000911a60f81b161515846121d8565b3461000f57600060031936011261000f57602060405160048152f35b3461000f5760208060031936011261000f57600435612331600354821061445f565b806000526000825260406000209061235460ff600f84015461074b8282166144aa565b6123736001600160a01b03928381541633149081156125c65750614540565b8060005260008352604060002091808354168033148080156125b7575b1561254d57156125445750601381600185015416935b019080841690816000528286526040600020546124da576123c684614621565b90816124c5575b8115612497575b501561242d57937f9a171633dc31b3fa430c0c3f7732d342ac783c40ad5d5f6585bbe943b11288e4946000525243604060002055611381604051928392839092916001600160a01b036020916040840195845216910152565b6084856040519062461bcd60e51b82526004820152602260248201527f4974206d75737420626520746865207475726e206f662074686520616363757360448201527f65640000000000000000000000000000000000000000000000000000000000006064820152fd5b90506124a284614621565b1590816124b1575b50866123d4565b90506124bc846149bb565b168114866124aa565b8091506124d185614982565b168214906123cd565b6084866040519062461bcd60e51b82526004820152603060248201527f506c617965722068617320616c72656164792061636375736564206f70706f6e60448201527f656e74206f66206265696e672041464b000000000000000000000000000000006064820152fd5b601390936123a6565b6084866040519062461bcd60e51b82526004820152602360248201527f4f6e6c7920706c617965727320696e207468652067616d652063616e2061636360448201527f75736500000000000000000000000000000000000000000000000000000000006064820152fd5b50826001860154163314612390565b600101548416331490508561076a565b3461000f57602060031936011261000f5760043560025481101561000f576125ff608091614159565b508054906001600160a01b03906003826001830154169260028301541691015491604051938452602084015260408301526060820152f35b600060031936011261000f573415612d8357600154805b612970576003546000526000602052604060002060046006820155336001600160a01b0319825416178155600a600482015560066005820155600a6007820155614e2060098201553460028201556003546003820155600f810161ffff1981541690556000600a820155600b810160ff198154169055600a6008820155600a600e82015561271a60018060405160208101904282524460408201523360601b6060820152605481526126ff81613f69565b5190201614601683019060ff60ff1983541691151516179055565b60006017820155600060405161272f81613f85565b5260148101546000601483015580612940575b5060148101600052600060405161275881613f85565b5260158101546000601583015580612910575b506015810160005261278f60405161278281613f85565b60008152601483016143ac565b6127ab60405161279e81613f85565b60008152601583016143ac565b6001600d8201556127d56040516127c181613fa1565b600181526020368183013760188301614322565b600181016001600160a01b031981541681556127f260035461426b565b6003556003820154916001600160a01b03928380835416937f0b4576d78344bc547fff983affaec9bb08ed3c4b2b32c978ad4c7db5e22691f560e0600486015460058701546006880154600789015491604051938985528b602086015260408501526060840152608083015260a08201523460c0820152a161287261428e565b5054169060028301546040519161288883613f69565b82526020820194855260408201928352606082019081526002546801000000000000000081101561058f578060016128c39201600255614159565b9390936104e457602096600396879451865581600187019151166001600160a01b0319825416179055600285019151166001600160a01b0319825416179055519101550154604051908152f35b601582016000526020600020908101905b81811061292e575061276b565b8061293a6001926142e8565b01612921565b601482016000526020600020908101905b81811061295e5750612742565b8061296a6001926142e8565b01612951565b60001981019080821161055057612986826140b9565b9054600391821b1c600052602060008152604060002091600f8084015460ff908160018183161515149182612d75575b82612d67575b82612d4a575b82612d3c575b50506129e6575b50505050509050801561055057600019018061264e565b600a9081860154600687015411801590612d2f575b15612a5657505050612a10612a4b94956140b9565b9054911b1c916001600160a01b0391601183835416936001840154169284600052019052604060002054918160005260406000205493614661565b8082808080806129cf565b90929450612a7a612a6b612a969395986140b9565b905490871b1c9554861061445f565b846000526000875260406000209384015461074b8282166144aa565b612ab56001600160a01b0392838154163314908115612d1f5750614540565b8260005260008552604060002090600d8201805415612cb5576018830191825415612c3c5784612ae487614982565b1633148015612c33575b15612bc9576001939260007f9efb9b5fd527c492fd7c47f1621da408223747ad7ba90f196681561818362ae7989993612b6d93898352828652612b6160408420612b49604051612b3d81613f85565b868152601483016143ac565b601560405191612b5883613f85565b868352016143ac565b8601611309815461426b565b60006017830155600b820160ff198154169055838254166000526013820190526000604081205501541660005260006040812055612baa816149bb565b604080519283526001600160a01b0391909116602083015290a1612a4b565b6084886040519062461bcd60e51b82526004820152602e60248201527f4f6e6c79207468652070726576696f757320627265616b65722063616e20737460448201527f6172742061206e6577207475726e0000000000000000000000000000000000006064820152fd5b50303314612aee565b60a4886040519062461bcd60e51b82526004820152604660248201527f43616e6e6f74207374617274206e6577207475726e2c2070726576696f75732060448201527f636f64652073656372657420686173206e6f74206265656e207075626c6973686064820152651959081e595d60d21b6084820152fd5b6084876040519062461bcd60e51b82526004820152603760248201527f43616e6e6f74207374617274206e6577207475726e2c2063757272656e74206f60448201527f6e6520686173206e6f742066696e6973686564207965740000000000000000006064820152fd5b600101548416331490508761076a565b5080600b870154166129fb565b60081c1615905081896129c8565b9150612d5f600d880154600989015490614654565b4211916129c2565b6018880154151592506129bc565b600d880154151592506129b6565b608460405162461bcd60e51b815260206004820152602160248201527f47616d65207374616b65206d7573742062652067726561746572207468616e2060448201527f30000000000000000000000000000000000000000000000000000000000000006064820152fd5b3461000f57604060031936011261000f5760043560243590612e12600354821061445f565b806000526000602052604060002090612e3660ff600f84015461074b8282166144aa565b612e556001600160a01b03928381541633149081156125c65750614540565b8060005260006020526017604060002001918254612f2357612e76826149bb565b1692338403612eb9577f32f73f63f8d0bffaf14d8c4569a8b067b0b5f69d402424f68aaa4cdfe491555093816060945560405192835260208301526040820152a1005b608460405162461bcd60e51b815260206004820152603360248201527f4f6e6c79207468652063757272656e7420436f64654d616b65722063616e207360448201527f75626d69742074686520636f64652068617368000000000000000000000000006064820152fd5b608460405162461bcd60e51b8152602060048201526024808201527f436f646520686173682068617320616c7265616479206265656e207375626d6960448201527f74746564000000000000000000000000000000000000000000000000000000006064820152fd5b3461000f57604060031936011261000f5767ffffffffffffffff60043581811161000f57612fbe903690600401613ff8565b9060243590811161000f57602091612fdd612fe3923690600401614072565b906149ed565b604051908152f35b3461000f57600060031936011261000f57602060405160068152f35b602060031936011261000f576004356001600160a01b038116810361000f573415612d8357600154805b61336e5750600354600052600060205260406000209060046006830155336001600160a01b0319835416178255600a600483015560066005830155600a6007830155614e2060098301553460028301556003546003830155600f820161ffff1981541690556000600a830155600b820160ff198154169055600a6008830155600a600e8301556130ff60018060405160208101904282524460408201523360601b6060820152605481526130e481613f69565b5190201614601684019060ff60ff1983541691151516179055565b60006017830155600060405161311481613f85565b526014820154600060148401558061333e575b5060148201600052600060405161313d81613f85565b526015820154600060158401558061330e575b506015820160005261317460405161316781613f85565b60008152601484016143ac565b61319060405161318381613f85565b60008152601584016143ac565b6001600d8301556131ba6040516131a681613fa1565b600181526020368183013760188401614322565b6001600160a01b036001830191166001600160a01b03198254161781556131e260035461426b565b6003556003820154916001600160a01b0380825416927f0b4576d78344bc547fff983affaec9bb08ed3c4b2b32c978ad4c7db5e22691f560e0600485015460058601546006870154600788015491604051938b85528a602086015260408501526060840152608083015260a08201523460c0820152a161326061428e565b505416926002820154906040519061327782613f69565b81526020810193845260408101948552606081019182526002546801000000000000000081101561058f578060016132b29201600255614159565b9290926104e45760209560039586935185556001600160a01b03600186019151166001600160a01b03198254161790556001600160a01b03600285019151166001600160a01b0319825416179055519101550154604051908152f35b601583016000526020600020908101905b81811061332c5750613150565b806133386001926142e8565b0161331f565b601483016000526020600020908101905b81811061335c5750613127565b806133686001926142e8565b0161334f565b600019810181811161055057613383816140b9565b9054600391821b1c6000526000602052604060002090600f808301549060ff91826001818316151514918261376c575b8261375e575b82613741575b82613733575b50506133e1575b50505050508015610550576000190180613031565b600a9182850154600686015411801590613726575b156134565750505061340a61344c936140b9565b9054911b1c906001600160a01b038154169060116001600160a01b03600183015416918360005201602052604060002054918160005260406000205493614661565b82808080806133cc565b6134a493945061346d612a6b61348a9394976140b9565b84600052600060205260406000209283015461074b8282166144aa565b6001600160a01b03815416331490811561370f5750614540565b8060005260006020526040600020600d8101928354156136a557601882019182541561362c576001600160a01b036134db85614982565b1633148015613623575b156135b95761355c6001600160a01b039360007f9efb9b5fd527c492fd7c47f1621da408223747ad7ba90f196681561818362ae7976001958883528260205261353a60408420612b49604051612b3d81613f85565b8501613546815461426b565b905542600c860155556040519061131f82613f85565b60006017820155600b810160ff1981541690558281541660005260138101602052600060408120550154166000526000604081205561359a816149bb565b604080519283526001600160a01b0391909116602083015290a161344c565b608460405162461bcd60e51b815260206004820152602e60248201527f4f6e6c79207468652070726576696f757320627265616b65722063616e20737460448201527f6172742061206e6577207475726e0000000000000000000000000000000000006064820152fd5b503033146134e5565b60a460405162461bcd60e51b815260206004820152604660248201527f43616e6e6f74207374617274206e6577207475726e2c2070726576696f75732060448201527f636f64652073656372657420686173206e6f74206265656e207075626c6973686064820152651959081e595d60d21b6084820152fd5b608460405162461bcd60e51b815260206004820152603760248201527f43616e6e6f74207374617274206e6577207475726e2c2063757272656e74206f60448201527f6e6520686173206e6f742066696e6973686564207965740000000000000000006064820152fd5b600101546001600160a01b0316331490508661076a565b5080600b860154166133f6565b60081c1615905082896133c5565b9150613756600d870154600988015490614654565b4211916133bf565b6018870154151592506133b9565b600d870154151592506133b3565b3461000f57600060031936011261000f5760405180600182815491828452602080940190806000527fb10e2d527612073b26eecdfd717e6a320cf44b4afac2b0732d9fcbe2b7fa0cf69060005b868682106137f55785906137dd82870383613fbd565b6137f1604051928284938452830190614108565b0390f35b83548552889550909301929181019181016137c7565b3461000f57602060031936011261000f57600435600052600060205260406000208061014052808060ff8180808080808080808080600e6008600a600f60036002600960076005600460066018600d6001600160a01b039d8e8154169e60018201541660a052600c8101546101605201549d01549d01549d01549d01549d01549d01549d01549d01549d01549d01549e01549e01549e8c6016820154166101c05260178101546101a0528d6014820154156000610100526000146139d95750506000610100525b601561014051018d815415600060e0526000146139c6575050600060e0525b6040518060c052429052602060c051015260a051604060c051015261016051606060c0510152608060c051015260a060c051015260c08051015260e060c051015261010060c051015261012060c051015261014060c051015261016060c051015261018060c0510152818160081c1615156101a060c05101521615156101c060c05101526101e060c051015261020060c051015261022060c05101526101c051151561024060c05101526101a05161026060c05101526101005161028060c051015260e0516102a060c05101526102c060c051f35b6139cf916140f0565b505460e0526138f1565b60146139e592016140f0565b5054610100526138d2565b3461000f57602060031936011261000f5760043560015481101561000f57613a196020916140b9565b90546040519160031b1c8152f35b3461000f57602060031936011261000f576004356000526000602052604060002080806001600160a01b03808254169060018301541660805260028201546003830154600484015460058501546006860154600787015490600888015492600989015494600a8a015496600b8b015460ff1698600c8c01549a600d8d01549c600e01549d600f01549e601681015460ff16610180526017015461012052604051806101e052526080516101e051602001526101e051604001526101e051606001526101e051608001526101e05160a001526101e05160c001526101e05160e001526101e05161010001526101e05161012001526101e051610140015215156101e05161016001526101e05161018001526101e0516101a001526101e0516101c0015260ff811615156101e0516101e0015260081c60ff1615156101e05161020001526101805115156101e0516102200152610120516101e05161024001526101e05161026090f35b3461000f57606060031936011261000f5767ffffffffffffffff60043560243582811161000f57613bc4903690600401613ff8565b9160443590811161000f57613bdd903690600401614072565b600392613bec8454841061445f565b8260005260209260008452604060002092613c1260ff600f86015461074b8282166144aa565b613c316001600160a01b0394858154163314908115613f595750614540565b8160005260008552604060002095600c870154151580613f4c575b15613f0857613c5a836149bb565b85811692833303613e9e57613cc8907ffdeee0ecf1220c6661aa03c9cb141b50f1b22761ab62b6617d65eaafd0e1295160408a613cb460188e019a613c9f818d614322565b83519384938c85528401526040830190614108565b0390a1613cc3610a6e87614982565b6149ed565b601789015403613cdb575b42600d890155005b604080518581526001600160a01b039290921660208301527fd86b7c8b2dd3f5581afd777a66c96de7fc1f40139f09f1899a98fe7ebb23c5d591a16001805490916000805b838210613e71575b613df1575b50505060008381528087526040808220600f8101805461ff00191661010017905596861680835260118801909852808220929092558281528181208190558681528181205492815281519384526001600160a01b039094166020840152820152606081018290529092839283928392916002917f64e67454795640f66cef8019a707b9381952f2f1024a355d5470bafc82af18009080608081015b0390a1015490828215613de8575bf115610ce25781808080808080613cd3565b506108fc613dd6565b600019989495979296989687810190811161055057613e1692611dfc6103de926140b9565b81549485156104fa576000978897613dc88998976002967f64e67454795640f66cef8019a707b9381952f2f1024a355d5470bafc82af1800958b9a01613e5e610d3b826140b9565b81559650969a5050955095829750613d2d565b9086613e7c826140b9565b905490851b1c14613e9657613e909061426b565b90613d20565b905083613d28565b6084886040519062461bcd60e51b82526004820152602a60248201527f4f6e6c7920746865206d616b65722063616e207075626c69736820746865206360448201527f6f646520736563726574000000000000000000000000000000000000000000006064820152fd5b6064866040519062461bcd60e51b82526004820152601e60248201527f5475726e206d757374206265207374617274656420616e6420656e64656400006044820152fd5b50600d8701541515613c4c565b600101548616331490508861076a565b6080810190811067ffffffffffffffff82111761058f57604052565b6020810190811067ffffffffffffffff82111761058f57604052565b6040810190811067ffffffffffffffff82111761058f57604052565b90601f601f19910116810190811067ffffffffffffffff82111761058f57604052565b67ffffffffffffffff811161058f5760051b60200190565b81601f8201121561000f5780359161400f83613fe0565b9261401d6040519485613fbd565b808452602092838086019260051b82010192831161000f578301905b828210614047575050505090565b81358152908301908301614039565b67ffffffffffffffff811161058f57601f01601f191660200190565b81601f8201121561000f5780359061408982614056565b926140976040519485613fbd565b8284526020838301011161000f57816000926020809301838601378301015290565b600154811015610d9d5760016000527fb10e2d527612073b26eecdfd717e6a320cf44b4afac2b0732d9fcbe2b7fa0cf60190600090565b8054821015610d9d5760005260206000200190600090565b90815180825260208080930193019160005b828110614128575050505090565b83518552938101939281019260010161411a565b503461000f57600060031936011261000f576020604051600a8152f35b600254811015610d9d57600260005260021b7f405787fa12a823e0f2b7631cc41b3ba8828b3321ca811111fa75cd3aa3bb5ace0190600090565b60005b8381106141a65750506000910152565b8181015183820152602001614196565b90604060031983011261000f57600435916024359067ffffffffffffffff821161000f576141e691600401613ff8565b90565b9060405191828154918282526020928383019160005283600020936000905b8282106142205750505061421e92500383613fbd565b565b855484526001958601958895509381019390910190614208565b9061424482613fe0565b6142516040519182613fbd565b828152601f196142618294613fe0565b0190602036910137565b60001981146105505760010190565b8051821015610d9d5760209160051b010190565b6040519061429b82613f69565b60006060838281528260208201528260408201520152565b805490600090818155826142c657505050565b815260208120918201915b8281106142dd57505050565b8181556001016142d1565b80549060008155816142f8575050565b6000526020600020908101905b818110614310575050565b8061431c6001926142b3565b01614305565b81519167ffffffffffffffff831161058f5768010000000000000000831161058f578154838355808410614383575b50602080910191600052806000209060005b848110614371575050505050565b83518382015592810192600101614363565b6000838152846020822092830192015b8281106143a1575050614351565b818155600101614393565b919082549068010000000000000000918281101561058f576143d59060019586820181556140f0565b9190916104e457805192831161058f57815483835580841061442f575b50602080910191600052806000206000925b8484106144145750505050509050565b86838261442383945186614322565b01920193019290614404565b826000528584602060002092830192015b82811061444e5750506143f2565b614457816142b3565b018690614440565b1561446657565b606460405162461bcd60e51b815260206004820152600f60248201527f496e76616c69642067616d6520494400000000000000000000000000000000006044820152fd5b156144b157565b606460405162461bcd60e51b815260206004820152601460248201527f47616d6520686173206e6f7420737461727465640000000000000000000000006044820152fd5b156144fc57565b606460405162461bcd60e51b815260206004820152600e60248201527f47616d652068617320656e6465640000000000000000000000000000000000006044820152fd5b1561454757565b606460405162461bcd60e51b815260206004820152601560248201527f4e6f7420617574686f72697a656420706c6179657200000000000000000000006044820152fd5b1561459257565b606460405162461bcd60e51b815260206004820152602060248201527f436f64652068617368206e6f74206265656e207375626d6974746564207965746044820152fd5b156145dd57565b606460405162461bcd60e51b815260206004820152600e60248201527f5475726e2068617320656e6465640000000000000000000000000000000000006044820152fd5b6000526000602052604060002061464e600a820154601561464582601486016140f0565b505493016140f0565b50541490565b9190820180921161055057565b600180546000805b828210614818575b614777575b505050600093600285947f64e67454795640f66cef8019a707b9381952f2f1024a355d5470bafc82af1800869585879687528660205261473f60409b8c97888a2096600f880161010061ff001982541617905581831195868c146147705781965b8c146147695780935b6001600160a01b039b8c8094168e5260118b016020528d2055168a528d8a205587841697888a528d8a2054911689528c892054908d5194859485909493926001600160a01b036060936080840197845216602083015260408201520152565b0390a1015490828215614760575bf1156147565750565b513d6000823e3d90fd5b506108fc61474d565b81936146e0565b80966146d7565b60001996929394959691828101908111610550576147c49161479b6147a4926140b9565b929054916140b9565b91909260031b1c9082549060031b600019811b9283911b16911916179055565b82549586156104fa576000968796879687966002957f64e67454795640f66cef8019a707b9381952f2f1024a355d5470bafc82af1800940190614809610d3b836140b9565b55955095505094829650614676565b9084614823826140b9565b90549060031b1c1461483e576148389061426b565b90614669565b905082614671565b9060005260006020526040600020906001600160a01b0380808454169216918214614904575b6001830154161461487e575b50600090565b600a810154906001821691821592836148f5575b83156148d3575b5082156148b2575b50506148ad5738614878565b600190565b159150816148c3575b5038806148a1565b60ff9150601601541615386148bb565b600191935014806148e6575b9138614899565b5060ff601682015416156148df565b601683015460ff169350614892565b600a8301546001811690600182149182614973575b8215614953575b508115614936575b501561486c57505050600190565b90501580614945575b38614928565b5060ff60168401541661493f565b9091501580614964575b9038614920565b5060ff6016850154161561495d565b601686015460ff169250614919565b80600052600060205260406000206001600160a01b03916149a7838354169182614846565b156149b55750600101541690565b91505090565b80600052600060205260406000206001600160a01b03916149e0838354169182614846565b6149b55750600101541690565b60405160209081810192838382519192019060005b818110614a625750505090614a2481614a5c949303601f198101835282613fbd565b604051938491614a5084614a41818601998a815193849201614193565b84019151809386840190614193565b01038084520182613fbd565b51902090565b825184529285019291850191600101614a02565b60ff1660ff8114610550576001019056fea2646970667358221220b4b71b175a4d1d8fb41bdb2e22c34d63f0a02ac3205d45e043c0312f0b616cd564736f6c63430008110033",
  "linkReferences": {},
  "deployedLinkReferences": {}
}