{
  "_format": "hh-sol-artifact-1",
  "contractName": "Mastermind",
  "sourceName": "contracts/Mastermind.sol",
  "abi": [
    {
      "anonymous": false,
      "inputs": [
        {
          "indexed": false,
          "internalType": "uint256",
          "name": "gameId",
          "type": "uint256"
        },
        {
          "indexed": false,
          "internalType": "address",
          "name": "accused",
          "type": "address"
        }
      ],
      "name": "AFKAccusation",
      "type": "event"
    },
    {
      "anonymous": false,
      "inputs": [
        {
          "indexed": false,
          "internalType": "uint256",
          "name": "gameId",
          "type": "uint256"
        },
        {
          "indexed": false,
          "internalType": "uint256[]",
          "name": "codeSecret",
          "type": "uint256[]"
        }
      ],
      "name": "CodeSecretPublished",
      "type": "event"
    },
    {
      "anonymous": false,
      "inputs": [
        {
          "indexed": false,
          "internalType": "uint256",
          "name": "gameId",
          "type": "uint256"
        },
        {
          "indexed": false,
          "internalType": "uint256[]",
          "name": "guessIDs",
          "type": "uint256[]"
        }
      ],
      "name": "Dispute",
      "type": "event"
    },
    {
      "anonymous": false,
      "inputs": [
        {
          "indexed": false,
          "internalType": "uint256",
          "name": "gameId",
          "type": "uint256"
        },
        {
          "indexed": false,
          "internalType": "uint256",
          "name": "numCorrectPositions",
          "type": "uint256"
        },
        {
          "indexed": false,
          "internalType": "uint256",
          "name": "numCorrectColors",
          "type": "uint256"
        }
      ],
      "name": "Feedback",
      "type": "event"
    },
    {
      "anonymous": false,
      "inputs": [
        {
          "indexed": false,
          "internalType": "uint256",
          "name": "gameId",
          "type": "uint256"
        },
        {
          "indexed": false,
          "internalType": "address",
          "name": "creator",
          "type": "address"
        },
        {
          "indexed": false,
          "internalType": "uint256",
          "name": "numColors",
          "type": "uint256"
        },
        {
          "indexed": false,
          "internalType": "uint256",
          "name": "codeLength",
          "type": "uint256"
        },
        {
          "indexed": false,
          "internalType": "uint256",
          "name": "numTurns",
          "type": "uint256"
        },
        {
          "indexed": false,
          "internalType": "uint256",
          "name": "maxGuesses",
          "type": "uint256"
        },
        {
          "indexed": false,
          "internalType": "uint256",
          "name": "gameStake",
          "type": "uint256"
        }
      ],
      "name": "GameCreated",
      "type": "event"
    },
    {
      "anonymous": false,
      "inputs": [
        {
          "indexed": false,
          "internalType": "uint256",
          "name": "gameId",
          "type": "uint256"
        },
        {
          "indexed": false,
          "internalType": "address",
          "name": "winner",
          "type": "address"
        },
        {
          "indexed": false,
          "internalType": "uint256",
          "name": "winnerPoints",
          "type": "uint256"
        },
        {
          "indexed": false,
          "internalType": "uint256",
          "name": "loserPoints",
          "type": "uint256"
        }
      ],
      "name": "GameEnded",
      "type": "event"
    },
    {
      "anonymous": false,
      "inputs": [
        {
          "indexed": false,
          "internalType": "uint256",
          "name": "gameId",
          "type": "uint256"
        },
        {
          "indexed": false,
          "internalType": "address",
          "name": "joiner",
          "type": "address"
        },
        {
          "indexed": false,
          "internalType": "address",
          "name": "creator",
          "type": "address"
        }
      ],
      "name": "GameJoined",
      "type": "event"
    },
    {
      "anonymous": false,
      "inputs": [
        {
          "indexed": false,
          "internalType": "uint256",
          "name": "gameId",
          "type": "uint256"
        },
        {
          "indexed": false,
          "internalType": "uint256[]",
          "name": "guess",
          "type": "uint256[]"
        }
      ],
      "name": "Guess",
      "type": "event"
    },
    {
      "anonymous": false,
      "inputs": [
        {
          "indexed": false,
          "internalType": "uint256",
          "name": "gameId",
          "type": "uint256"
        }
      ],
      "name": "HandlingGame",
      "type": "event"
    },
    {
      "anonymous": false,
      "inputs": [
        {
          "indexed": false,
          "internalType": "uint256",
          "name": "gameId",
          "type": "uint256"
        },
        {
          "indexed": false,
          "internalType": "address",
          "name": "codeMaker",
          "type": "address"
        },
        {
          "indexed": false,
          "internalType": "bytes32",
          "name": "hash",
          "type": "bytes32"
        }
      ],
      "name": "HashPublished",
      "type": "event"
    },
    {
      "anonymous": false,
      "inputs": [
        {
          "indexed": false,
          "internalType": "uint256",
          "name": "gameId",
          "type": "uint256"
        },
        {
          "indexed": false,
          "internalType": "address",
          "name": "punished",
          "type": "address"
        },
        {
          "indexed": false,
          "internalType": "uint256",
          "name": "amount",
          "type": "uint256"
        }
      ],
      "name": "Punishment",
      "type": "event"
    },
    {
      "anonymous": false,
      "inputs": [
        {
          "indexed": false,
          "internalType": "uint256",
          "name": "gameId",
          "type": "uint256"
        },
        {
          "indexed": false,
          "internalType": "address",
          "name": "punished",
          "type": "address"
        }
      ],
      "name": "ResolveDispute",
      "type": "event"
    },
    {
      "anonymous": false,
      "inputs": [
        {
          "indexed": false,
          "internalType": "uint256",
          "name": "gameId",
          "type": "uint256"
        },
        {
          "indexed": false,
          "internalType": "bool",
          "name": "guessed",
          "type": "bool"
        }
      ],
      "name": "TurnEnded",
      "type": "event"
    },
    {
      "anonymous": false,
      "inputs": [
        {
          "indexed": false,
          "internalType": "uint256",
          "name": "gameId",
          "type": "uint256"
        },
        {
          "indexed": false,
          "internalType": "address",
          "name": "codeMaker",
          "type": "address"
        }
      ],
      "name": "TurnStarted",
      "type": "event"
    },
    {
      "inputs": [],
      "name": "B_AFKBLOCKS",
      "outputs": [
        {
          "internalType": "uint256",
          "name": "",
          "type": "uint256"
        }
      ],
      "stateMutability": "view",
      "type": "function"
    },
    {
      "inputs": [],
      "name": "CODE_LENGTH",
      "outputs": [
        {
          "internalType": "uint256",
          "name": "",
          "type": "uint256"
        }
      ],
      "stateMutability": "view",
      "type": "function"
    },
    {
      "inputs": [],
      "name": "K_EXTRA_POINTS",
      "outputs": [
        {
          "internalType": "uint256",
          "name": "",
          "type": "uint256"
        }
      ],
      "stateMutability": "view",
      "type": "function"
    },
    {
      "inputs": [],
      "name": "MAX_COLORS",
      "outputs": [
        {
          "internalType": "uint256",
          "name": "",
          "type": "uint256"
        }
      ],
      "stateMutability": "view",
      "type": "function"
    },
    {
      "inputs": [],
      "name": "NUM_GUESSES",
      "outputs": [
        {
          "internalType": "uint256",
          "name": "",
          "type": "uint256"
        }
      ],
      "stateMutability": "view",
      "type": "function"
    },
    {
      "inputs": [],
      "name": "NUM_TURNS",
      "outputs": [
        {
          "internalType": "uint256",
          "name": "",
          "type": "uint256"
        }
      ],
      "stateMutability": "view",
      "type": "function"
    },
    {
      "inputs": [],
      "name": "TIME_TO_DISPUTE",
      "outputs": [
        {
          "internalType": "uint256",
          "name": "",
          "type": "uint256"
        }
      ],
      "stateMutability": "view",
      "type": "function"
    },
    {
      "inputs": [
        {
          "internalType": "uint256",
          "name": "_gameId",
          "type": "uint256"
        }
      ],
      "name": "accuseAFK",
      "outputs": [],
      "stateMutability": "nonpayable",
      "type": "function"
    },
    {
      "inputs": [
        {
          "internalType": "uint256",
          "name": "",
          "type": "uint256"
        }
      ],
      "name": "activeGames",
      "outputs": [
        {
          "internalType": "uint256",
          "name": "",
          "type": "uint256"
        }
      ],
      "stateMutability": "view",
      "type": "function"
    },
    {
      "inputs": [
        {
          "internalType": "bytes32",
          "name": "_bytes32",
          "type": "bytes32"
        }
      ],
      "name": "bytes32ToString",
      "outputs": [
        {
          "internalType": "string",
          "name": "",
          "type": "string"
        }
      ],
      "stateMutability": "pure",
      "type": "function"
    },
    {
      "inputs": [],
      "name": "createGame",
      "outputs": [
        {
          "internalType": "uint256",
          "name": "",
          "type": "uint256"
        }
      ],
      "stateMutability": "payable",
      "type": "function"
    },
    {
      "inputs": [
        {
          "internalType": "address",
          "name": "_joiner",
          "type": "address"
        }
      ],
      "name": "createGameWithJoiner",
      "outputs": [
        {
          "internalType": "uint256",
          "name": "",
          "type": "uint256"
        }
      ],
      "stateMutability": "payable",
      "type": "function"
    },
    {
      "inputs": [
        {
          "internalType": "uint256",
          "name": "_gameId",
          "type": "uint256"
        },
        {
          "internalType": "uint256[]",
          "name": "guessIDs",
          "type": "uint256[]"
        }
      ],
      "name": "disputeFeedback",
      "outputs": [],
      "stateMutability": "nonpayable",
      "type": "function"
    },
    {
      "inputs": [
        {
          "internalType": "uint256",
          "name": "",
          "type": "uint256"
        }
      ],
      "name": "games",
      "outputs": [
        {
          "internalType": "address",
          "name": "creator",
          "type": "address"
        },
        {
          "internalType": "address",
          "name": "joiner",
          "type": "address"
        },
        {
          "internalType": "uint256",
          "name": "gameStake",
          "type": "uint256"
        },
        {
          "internalType": "uint256",
          "name": "gameId",
          "type": "uint256"
        },
        {
          "internalType": "uint256",
          "name": "numColors",
          "type": "uint256"
        },
        {
          "internalType": "uint256",
          "name": "codeLength",
          "type": "uint256"
        },
        {
          "internalType": "uint256",
          "name": "numTurns",
          "type": "uint256"
        },
        {
          "internalType": "uint256",
          "name": "maxGuesses",
          "type": "uint256"
        },
        {
          "internalType": "uint256",
          "name": "extraPointsK",
          "type": "uint256"
        },
        {
          "internalType": "uint256",
          "name": "timeToDispute",
          "type": "uint256"
        },
        {
          "internalType": "uint256",
          "name": "currentTurn",
          "type": "uint256"
        },
        {
          "internalType": "bool",
          "name": "guessed",
          "type": "bool"
        },
        {
          "internalType": "uint256",
          "name": "startTime",
          "type": "uint256"
        },
        {
          "internalType": "uint256",
          "name": "endTime",
          "type": "uint256"
        },
        {
          "internalType": "uint256",
          "name": "b",
          "type": "uint256"
        },
        {
          "internalType": "bool",
          "name": "gameStarted",
          "type": "bool"
        },
        {
          "internalType": "bool",
          "name": "gameEnded",
          "type": "bool"
        },
        {
          "internalType": "bool",
          "name": "creatorIsMakerSeed",
          "type": "bool"
        },
        {
          "internalType": "bytes32",
          "name": "codeHash",
          "type": "bytes32"
        }
      ],
      "stateMutability": "view",
      "type": "function"
    },
    {
      "inputs": [],
      "name": "getActiveGames",
      "outputs": [
        {
          "internalType": "uint256[]",
          "name": "",
          "type": "uint256[]"
        }
      ],
      "stateMutability": "view",
      "type": "function"
    },
    {
      "inputs": [
        {
          "internalType": "uint256",
          "name": "_gameId",
          "type": "uint256"
        }
      ],
      "name": "getCurrentBreaker",
      "outputs": [
        {
          "internalType": "address",
          "name": "",
          "type": "address"
        }
      ],
      "stateMutability": "view",
      "type": "function"
    },
    {
      "inputs": [
        {
          "internalType": "uint256",
          "name": "_gameId",
          "type": "uint256"
        }
      ],
      "name": "getCurrentMaker",
      "outputs": [
        {
          "internalType": "address",
          "name": "",
          "type": "address"
        }
      ],
      "stateMutability": "view",
      "type": "function"
    },
    {
      "inputs": [
        {
          "internalType": "uint256",
          "name": "_gameId",
          "type": "uint256"
        }
      ],
      "name": "getGameDetails",
      "outputs": [
        {
          "internalType": "uint256",
          "name": "currentTime",
          "type": "uint256"
        },
        {
          "internalType": "address",
          "name": "creator",
          "type": "address"
        },
        {
          "internalType": "address",
          "name": "joiner",
          "type": "address"
        },
        {
          "internalType": "uint256",
          "name": "startTime",
          "type": "uint256"
        },
        {
          "internalType": "uint256",
          "name": "endTime",
          "type": "uint256"
        },
        {
          "internalType": "uint256",
          "name": "codeSecretLength",
          "type": "uint256"
        },
        {
          "internalType": "uint256",
          "name": "numTurns",
          "type": "uint256"
        },
        {
          "internalType": "uint256",
          "name": "numColors",
          "type": "uint256"
        },
        {
          "internalType": "uint256",
          "name": "codeLength",
          "type": "uint256"
        },
        {
          "internalType": "uint256",
          "name": "maxGuesses",
          "type": "uint256"
        },
        {
          "internalType": "uint256",
          "name": "timeToDispute",
          "type": "uint256"
        },
        {
          "internalType": "uint256",
          "name": "gameStake",
          "type": "uint256"
        },
        {
          "internalType": "uint256",
          "name": "gameId",
          "type": "uint256"
        },
        {
          "internalType": "bool",
          "name": "gameEnded",
          "type": "bool"
        },
        {
          "internalType": "bool",
          "name": "gameStarted",
          "type": "bool"
        },
        {
          "internalType": "uint256",
          "name": "currentTurn",
          "type": "uint256"
        },
        {
          "internalType": "uint256",
          "name": "extraPointsK",
          "type": "uint256"
        },
        {
          "internalType": "uint256",
          "name": "b",
          "type": "uint256"
        },
        {
          "internalType": "bool",
          "name": "creatorIsMakerSeed",
          "type": "bool"
        },
        {
          "internalType": "bytes32",
          "name": "codeHash",
          "type": "bytes32"
        },
        {
          "internalType": "uint256",
          "name": "guessesLength",
          "type": "uint256"
        },
        {
          "internalType": "uint256",
          "name": "feedbacksLength",
          "type": "uint256"
        }
      ],
      "stateMutability": "view",
      "type": "function"
    },
    {
      "inputs": [
        {
          "internalType": "address",
          "name": "joiner",
          "type": "address"
        }
      ],
      "name": "getJoinableGames",
      "outputs": [
        {
          "components": [
            {
              "internalType": "uint256",
              "name": "gameId",
              "type": "uint256"
            },
            {
              "internalType": "address",
              "name": "creator",
              "type": "address"
            },
            {
              "internalType": "address",
              "name": "joiner",
              "type": "address"
            },
            {
              "internalType": "uint256",
              "name": "gameStake",
              "type": "uint256"
            }
          ],
          "internalType": "struct Mastermind.GameInfo[]",
          "name": "gamesInfo",
          "type": "tuple[]"
        }
      ],
      "stateMutability": "view",
      "type": "function"
    },
    {
      "inputs": [],
      "name": "getNGames",
      "outputs": [
        {
          "internalType": "uint256",
          "name": "",
          "type": "uint256"
        }
      ],
      "stateMutability": "view",
      "type": "function"
    },
    {
      "inputs": [
        {
          "internalType": "uint256[]",
          "name": "intArray",
          "type": "uint256[]"
        },
        {
          "internalType": "bytes",
          "name": "seed",
          "type": "bytes"
        }
      ],
      "name": "hashArrayOfIntegers",
      "outputs": [
        {
          "internalType": "bytes32",
          "name": "",
          "type": "bytes32"
        }
      ],
      "stateMutability": "pure",
      "type": "function"
    },
    {
      "inputs": [
        {
          "internalType": "uint256",
          "name": "_gameId",
          "type": "uint256"
        }
      ],
      "name": "joinGame",
      "outputs": [],
      "stateMutability": "payable",
      "type": "function"
    },
    {
      "inputs": [
        {
          "internalType": "uint256",
          "name": "",
          "type": "uint256"
        }
      ],
      "name": "joinableGames",
      "outputs": [
        {
          "internalType": "uint256",
          "name": "gameId",
          "type": "uint256"
        },
        {
          "internalType": "address",
          "name": "creator",
          "type": "address"
        },
        {
          "internalType": "address",
          "name": "joiner",
          "type": "address"
        },
        {
          "internalType": "uint256",
          "name": "gameStake",
          "type": "uint256"
        }
      ],
      "stateMutability": "view",
      "type": "function"
    },
    {
      "inputs": [
        {
          "internalType": "uint256",
          "name": "_gameId",
          "type": "uint256"
        },
        {
          "internalType": "uint256[]",
          "name": "guess",
          "type": "uint256[]"
        }
      ],
      "name": "makeGuess",
      "outputs": [],
      "stateMutability": "nonpayable",
      "type": "function"
    },
    {
      "inputs": [
        {
          "internalType": "uint256",
          "name": "_gameId",
          "type": "uint256"
        },
        {
          "internalType": "uint256",
          "name": "numCorrectPositions",
          "type": "uint256"
        },
        {
          "internalType": "uint256",
          "name": "numCorrectColors",
          "type": "uint256"
        }
      ],
      "name": "provideFeedback",
      "outputs": [],
      "stateMutability": "nonpayable",
      "type": "function"
    },
    {
      "inputs": [
        {
          "internalType": "uint256",
          "name": "_gameId",
          "type": "uint256"
        },
        {
          "internalType": "uint256[]",
          "name": "_codeSecret",
          "type": "uint256[]"
        },
        {
          "internalType": "bytes",
          "name": "seed",
          "type": "bytes"
        }
      ],
      "name": "publishCodeSecret",
      "outputs": [],
      "stateMutability": "nonpayable",
      "type": "function"
    },
    {
      "inputs": [
        {
          "internalType": "uint256",
          "name": "_gameId",
          "type": "uint256"
        }
      ],
      "name": "startTurn",
      "outputs": [],
      "stateMutability": "nonpayable",
      "type": "function"
    },
    {
      "inputs": [
        {
          "internalType": "uint256",
          "name": "_gameId",
          "type": "uint256"
        },
        {
          "internalType": "bytes32",
          "name": "_hash",
          "type": "bytes32"
        }
      ],
      "name": "submitCodeHash",
      "outputs": [],
      "stateMutability": "nonpayable",
      "type": "function"
    },
    {
      "inputs": [],
      "name": "totalGames",
      "outputs": [
        {
          "internalType": "uint256",
          "name": "",
          "type": "uint256"
        }
      ],
      "stateMutability": "view",
      "type": "function"
    },
    {
      "inputs": [
        {
          "internalType": "uint256",
          "name": "_gameId",
          "type": "uint256"
        }
      ],
      "name": "verifyAFKAccusation",
      "outputs": [],
      "stateMutability": "nonpayable",
      "type": "function"
    }
  ],
  "bytecode": "0x6080806040523461001657614a45908161001c8239f35b600080fdfe6102006040526004361015610014575b600080fd5b60003560e01c80630d2bb4b7146139d7578063117a5b901461386f57806313e4c714146138385780631b31abda1461363f5780631b76929c146135b25780632782158d14612e3f5780632c4e591b1461204257806338b0bc8214612e23578063579f838e146110935780635be5484514612dc457806368e712f314612b895780637255d729146123d35780637ad2b34c146123725780637eccd5941461109357806380b90070146110935780638917c531146120ab5780638b5756411461208f5780639201de551461206057806392b1696b146120425780639ecb552414612025578063a10a8ad214612007578063ab11d7cc14611af7578063b2d9f710146118e9578063badf6e79146113c8578063be7f3599146110cb578063d5e118871461109c578063d620f56014611093578063ef1c97c214610709578063efaa55a0146103335763fc684a511461016857600080fd5b3461000f5760208060031936011261000f57600435906001600160a01b039182811680910361000f576002908154916101a083613f29565b9260009260005b8281106102d1575050506101ba82613ca3565b926101c86040519485613c80565b828452601f196101d784613ca3565b018560005b8281106102bb5750505060005b8381106102535750505050604051918083018184528251809152816040850193019160005b82811061021b5785850386f35b83518051865280830151881686840152604080820151891690870152606090810151908601526080909401939281019260010161020e565b8061026a6102646102b69385613f69565b51613e1c565b5060036040519161027a83613c2c565b805483528a6001820154168a8401528a87820154166040840152015460608201526102a58288613f69565b526102b08187613f69565b50613f5a565b6101e9565b6102c3613f7d565b8282890101520186906101dc565b8188856102dd84613e1c565b5001541614801561031d575b6102fc575b6102f790613f5a565b6101a7565b93610315818661030f6102f7948a613f69565b52613f5a565b9490506102ee565b50878461032983613e1c565b50015416156102e9565b60208060031936011261000f5760043590610351600354831061414e565b81600052600081526040600020600f810160ff8154166106c557600290818301543403610681576001600160a01b039182845416331461061757600180850192835485811680156000146105a557506001600160a01b031916331784555b8160ff1982541617905580546801000000000000000081101561058f57876103de82846103f994018555613d7c565b90919082549060031b600019811b9283911b16911916179055565b81546000805b828210610566575b61044c575b7f8ca5b55df47712c5e59e7aaddc402fc30e6399e3498efec70a7e440bb9d2fac860608a8a8a8a808b5416915416916040519384528301526040820152a1005b60001998969497959398918281019081116105505761046d61047491613e1c565b5091613e1c565b9190916104e457808203610510575b5050875480156104fa57019561049887613e1c565b9790976104e4577f8ca5b55df47712c5e59e7aaddc402fc30e6399e3498efec70a7e440bb9d2fac898600060038a8288978160609e55820155828482015501555592949681949661040c565b634e487b7160e01b600052600060045260246000fd5b634e487b7160e01b600052603160045260246000fd5b60038181925484558b868501888884015416906001600160a01b031991828254161790558882870192840154169082541617905501549101558880610483565b634e487b7160e01b600052601160045260246000fd5b908961057182613e1c565b5054146105875761058190613f5a565b906103ff565b905082610407565b634e487b7160e01b600052604160045260246000fd5b905033146103af576084876040519062461bcd60e51b82526004820152603860248201527f4f6e6c79206120706c617965722073706563696669656420627920746865206360448201527f726561746f72206d6179206a6f696e207468652067616d6500000000000000006064820152fd5b6084856040519062461bcd60e51b82526004820152602260248201527f43726561746f722063616e6e6f74206a6f696e207468656972206f776e20676160448201527f6d650000000000000000000000000000000000000000000000000000000000006064820152fd5b6064846040519062461bcd60e51b82526004820152601960248201527f496e636f72726563742067616d65207374616b652073656e74000000000000006044820152fd5b6064836040519062461bcd60e51b82526004820152601860248201527f47616d652068617320616c7265616479207374617274656400000000000000006044820152fd5b3461000f5761071736613ea5565b90610725600354821061414e565b806000526000602052610770604060002061075560ff600f83015461074b828216614199565b60081c16156141e4565b6001600160a01b038154163314908115610e4c575b5061422f565b806000526000602052600d60406000200154156110295780600052600060205260186040600020015415610fbf578060005260006020526107c2600d6040600020015460096040600020015490614343565b421015610f7b5780600052600060205260406000206107e18233614683565b610f11576107ee826147d6565b6001600160a01b0360128301911692836000528160205260ff60406000205416610ea757845191600a60148501940154926108298486613db3565b505410610e635760005b8651811015610949576108468188613f69565b516108518587613db3565b505411156109055760005b818110610872575061086d90613f5a565b610833565b61087c8289613f69565b51610887828a613f69565b511461089b5761089690613f5a565b61085c565b608460405162461bcd60e51b815260206004820152602a60248201527f4475706c69636174652067756573732049442e2047756573736573206d75737460448201527f2062652061207365742e000000000000000000000000000000000000000000006064820152fd5b606460405162461bcd60e51b815260206004820152601060248201527f496e76616c6964206775657373204944000000000000000000000000000000006044820152fd5b868383886000526020526040600020600160ff198254161790557f738400b8f752acddf42852c5993f844990ae9dbd98c5579625d3537dad1b663f604051828152604060208201528061099f6040820186613dcb565b0390a16109af600354821061414e565b8060005260006020526109ef60406000206109d560ff600f83015461074b828216614199565b336001600160a01b0382541614908115610e4c575061422f565b8060005260006020526040600020610a068261479d565b610a0f836147d6565b926000945b8051861015610c6857600a84015495610a74610a6e610a67610a5c610a51610a3f8c60148c01613db3565b50610a4a8789613f69565b5190613db3565b509a60158a01613db3565b50610a4a8587613f69565b5098613ed8565b97613ed8565b90610a8160188701613ed8565b93600095600094610a928b51613f29565b9860005b8c8051821015610aef57610aab828d92613f69565b51610ab6838c613f69565b5114610acc575b50610ac790613f5a565b610a96565b99906001610ae682610ae0610ac795613f5a565b9d613f69565b5290508a610abd565b505090999192939495979960005b8c51811015610bb357610b10818c613f69565b5115610b25575b610b2090613f5a565b610afd565b9a9593916000979593975b8d8a51821015610ba0578d610b4491613f69565b51610b4f828c613f69565b511480610b8e575b610b6957610b6490613f5a565b610b30565b9b6001610b85610b20939597999e610ae08f9e9c989a9c613f5a565b525b9050610b17565b50610b99818d613f69565b5115610b57565b50509193959a610b209097939597610b87565b509a50955097909650949094835115610c52576020840151149081610c37575b50610be3925015610bed57613f5a565b9492919092610a14565b604080518581526001600160a01b03881660208201527fd86b7c8b2dd3f5581afd777a66c96de7fc1f40139f09f1899a98fe7ebb23c5d59190a1610c32858786614350565b613f5a565b9050825160011015610c52576040610be39301511488610bd3565b634e487b7160e01b600052603260045260246000fd5b8483837fd86b7c8b2dd3f5581afd777a66c96de7fc1f40139f09f1899a98fe7ebb23c5d560405180610cb18585839092916001600160a01b036020916040840195845216910152565b0390a1600080600154905b818310610e1d575b610d89575b505060008093600282947f64e67454795640f66cef8019a707b9381952f2f1024a355d5470bafc82af180060808686978752866020526001600160a01b03806040892095600f870161010061ff0019825416179055169687895260118601602052886040812055169586885260016040892055604088205490885260408820549060405192835287602084015260408301526060820152a1015490828215610d80575bf115610d7457005b6040513d6000823e3d90fd5b506108fc610d6c565b6000199491929492838201918211610550576103de610daa610db793613d7c565b90549060031b1c91613d7c565b6001549081156104fa576002600095947f64e67454795640f66cef8019a707b9381952f2f1024a355d5470bafc82af1800608088978897889701610e0d610dfd82613d7c565b60001982549160031b1b19169055565b6001559650505094505093610cc9565b9183610e2882613d7c565b90549060031b1c14610e4357610e3d90613f5a565b91610cbc565b91506001610cc4565b600101546001600160a01b0316331490508461076a565b606460405162461bcd60e51b815260206004820152601960248201527f496e76616c6964206e756d626572206f662067756573736573000000000000006044820152fd5b608460405162461bcd60e51b815260206004820152602b60248201527f427265616b65722068617320616c7265616479206469737075746564206d616b60448201527f657220666565646261636b0000000000000000000000000000000000000000006064820152fd5b608460405162461bcd60e51b815260206004820152602960248201527f4f6e6c792074686520636f6465627265616b65722063616e206469737075746560448201527f20666565646261636b00000000000000000000000000000000000000000000006064820152fd5b606460405162461bcd60e51b815260206004820152601460248201527f446973707574652074696d6520657870697265640000000000000000000000006044820152fd5b608460405162461bcd60e51b815260206004820152603660248201527f43616e6e6f7420646973707574652c20436f646520736563726574206861732060448201527f6e6f74206265656e207075626c697368656420796574000000000000000000006064820152fd5b608460405162461bcd60e51b815260206004820152602960248201527f43616e6e6f7420646973707574652c205475726e20686173206e6f742066696e60448201527f69736865642079657400000000000000000000000000000000000000000000006064820152fd5b5061000f613dff565b3461000f57602060031936011261000f5760206110ba6004356147d6565b6001600160a01b0360405191168152f35b3461000f5760208060031936011261000f576004356110ed600354821061414e565b8060005260008252604060002061110f60ff600f83015461074b828216614199565b61112e6001600160a01b03918281541633149081156113b8575061422f565b81600052600083526040600020600d810180541561134e5760188201908154156112d5578361115c8661479d565b16331480156112cc575b1561126257946112046001939260007f9efb9b5fd527c492fd7c47f1621da408223747ad7ba90f196681561818362ae7988882528185526111d7604083206111bf6040516111b381613c48565b8581526014830161409b565b6015604051916111ce83613c48565b8583520161409b565b600a86016111e58154613f5a565b905542600c87015555604051906111fb82613c48565b60008252614011565b60006017830155600b820160ff198154169055838254166000526013820190526000604081205501541660005260006040812055611241816147d6565b604080519283526001600160a01b039091166020830152819081015b0390a1005b6084866040519062461bcd60e51b82526004820152602e60248201527f4f6e6c79207468652070726576696f757320627265616b65722063616e20737460448201527f6172742061206e6577207475726e0000000000000000000000000000000000006064820152fd5b50303314611166565b60a4866040519062461bcd60e51b82526004820152604660248201527f43616e6e6f74207374617274206e6577207475726e2c2070726576696f75732060448201527f636f64652073656372657420686173206e6f74206265656e207075626c6973686064820152651959081e595d60d21b6084820152fd5b6084856040519062461bcd60e51b82526004820152603760248201527f43616e6e6f74207374617274206e6577207475726e2c2063757272656e74206f60448201527f6e6520686173206e6f742066696e6973686564207965740000000000000000006064820152fd5b600101548316331490508561076a565b3461000f57606060031936011261000f576004356024908135906044359160035482106113f48161414e565b8260005260209060008252604060002094600f8601549361141d60ff8661074b82809916614199565b61143c6001600160a01b039788815416331490811561182d575061422f565b8560005260008452611457601760406000200154151561427a565b8560005260008452611471600d60406000200154156142c5565b85600052600084526040600020926114898284614343565b60058501548091116118a65761149e88614310565b61183d578214611728575b50600a8301916114bd835460158601613db3565b5098604051906040820182811067ffffffffffffffff8211176117135760405283825282878301528a5468010000000000000000811015611713576115099060019c8d82018155613db3565b9190916116ff57508054916002928383558084106116d5575b5090600052866000208b60005b8481106116c3575050505050917f4efa7a2fca1d9822b1d1f4ecfd98d0d7c318413c91a29fd4cb2a9cfdfcb11e776060611592936007953360005260138801895260006040812055604051918b8352898301526040820152a15460148401613db3565b50549101541461159e57005b600b60409461160c7fb3be9a24bc49244c2a09cfafde10d7faf3f8868c60c21b2d8a39cfb227e612ce976000956115d8600354891061414e565b8787528686526115f589882091600f83015461074b828216614199565b833381835416149283156116b1575b50505061422f565b84845283835261162360178786200154151561427a565b848452838352611639600d8786200154156142c5565b8484528383528584209042600d830155611652866147d6565b611663600a84015460148501613db3565b50549160118401911691828752818652611681898820918254614343565b90556008830154918652845261169b878620918254614343565b90550160ff1981541690558351928352820152a1005b90919250339201541614898381611604565b89845194019381840155018c9061152f565b826000528c848a60002092830192015b8281106116f3575050611522565b60008155018d906116e5565b634e487b7160e01b60005260006004526000fd5b50634e487b7160e01b60005260416004526000fd5b6117319061414e565b8560005260008452611768604060002061175587600f83015461074b828216614199565b33898254161490811561182d575061422f565b8560005260008452611783601760406000200154151561427a565b856000526000845261179d600d60406000200154156142c5565b8560005260008452600b604060002042600d8201556117bb886147d6565b896117cd600a84015460148501613db3565b505491166000526011820187526117ea6040600020918254614343565b905501600160ff198254161790557fb3be9a24bc49244c2a09cfafde10d7faf3f8868c60c21b2d8a39cfb227e612ce60408051888152600187820152a1886114a9565b600101548916331490508a61076a565b60848660288c6040519262461bcd60e51b845260048401528201527f436f6465206d616b65722068617320616c72656164792070726f76696465642060448201527f666565646261636b0000000000000000000000000000000000000000000000006064820152fd5b60648660108c6040519262461bcd60e51b845260048401528201527f496e76616c696420666565646261636b000000000000000000000000000000006044820152fd5b3461000f576118f736613ea5565b90611905600354821061414e565b806000526020906000825261194b604060002061192d60ff600f83015461074b828216614199565b6001600160a01b0390818154163314918215611ae5575b505061422f565b8060005260008252611966601760406000200154151561427a565b8060005260008252611980600d60406000200154156142c5565b806000526000825260406000208351600582015403611aa1576119a282614310565b15611a37576119b8600a82015460148301613db3565b5080546801000000000000000081101561058f576119db91600182018155613db3565b9490946104e457601361125d92611a13837f03b1889d496fe4d7ca6e275eb356cab5bf8e9bf835651dfbcdd518c4573c20c798614011565b33600052018452600060408120556040805194859485528401526040830190613dcb565b6084836040519062461bcd60e51b82526004820152602560248201527f436f646520627265616b65722068617320616c7265616479206d61646520612060448201527f67756573730000000000000000000000000000000000000000000000000000006064820152fd5b6064836040519062461bcd60e51b82526004820152601460248201527f496e76616c6964206775657373206c656e6774680000000000000000000000006044820152fd5b90915060013392015416148580611944565b3461000f5760208060031936011261000f5760043590600391611b1c8354821061414e565b8060005260008252604060002091611b3f60ff600f85015461074b828216614199565b611b5e6001600160a01b0393848154163314908115611ff7575061422f565b816000526000815260406000209280845416803314808015611fe8575b15611f7e5715611f7857816001860154165b82601387019116908160005280855260406000205415611f0e57816000528452611bc1604060002054600e88015490614343565b431115611ea4578103611d4357508084541690600180950154169460009060008654925b838210611d16575b611c92575b505050936002600095947f64e67454795640f66cef8019a707b9381952f2f1024a355d5470bafc82af1800608086899896899897899889528882526040892095600f870161010061ff0019825416179055888a5260118701835260408a205580895288604081205587895260408920549089528760408a20549260405194855284015260408301526060820152a1015490828215610d8057f115610d7457005b60001997939288810190811161055057611cbd92611cb26103de92613d7c565b9054911b1c91613d7c565b84549485156104fa577f64e67454795640f66cef8019a707b9381952f2f1024a355d5470bafc82af18006080600098968998966002958a998a9901611d04610dfd82613d7c565b8655969a509650965050819650611bf2565b9086611d2182613d7c565b905490851b1c14611d3b57611d3590613f5a565b90611be5565b905086611bed565b600194850154855491969216916000805b838210611e77575b611dfe575b505050936002600095947f64e67454795640f66cef8019a707b9381952f2f1024a355d5470bafc82af1800608086899896899897899889528882526040892095600f870161010061ff0019825416179055818a52601187018352896040812055888a5260408a205560408920549089528760408a20549260405194855284015260408301526060820152a1015490828215610d8057f115610d7457005b60001997939288810190811161055057611e1e92611cb26103de92613d7c565b84549485156104fa577f64e67454795640f66cef8019a707b9381952f2f1024a355d5470bafc82af18006080600098968998966002958a998a9901611e65610dfd82613d7c565b8655969a509650965050819650611d61565b9086611e8282613d7c565b905490851b1c14611e9c57611e9690613f5a565b90611d54565b905086611d5c565b6084846040519062461bcd60e51b82526004820152602360248201527f41464b2061636375736174696f6e2074696d6520686173206e6f74206578706960448201527f72656400000000000000000000000000000000000000000000000000000000006064820152fd5b6084856040519062461bcd60e51b82526004820152602860248201527f506c6179657220686173206e6f74206265656e2061636375736564206f66206260448201527f65696e672041464b0000000000000000000000000000000000000000000000006064820152fd5b80611b8d565b6084846040519062461bcd60e51b82526004820152602660248201527f4f6e6c7920706c617965727320696e207468652067616d65207665726966792060448201527f61636375736500000000000000000000000000000000000000000000000000006064820152fd5b50826001870154163314611b7b565b600101548516331490508661076a565b3461000f57602060031936011261000f5760206110ba60043561479d565b3461000f57600060031936011261000f576020604051614e208152f35b3461000f57600060031936011261000f576020600354604051908152f35b3461000f57602060031936011261000f5761208b61207f6004356148a2565b60405191829182613e79565b0390f35b3461000f57600060031936011261000f57602060405160048152f35b3461000f5760208060031936011261000f576004356120cd600354821061414e565b80600052600082526040600020906120f060ff600f84015461074b828216614199565b61210f6001600160a01b0392838154163314908115612362575061422f565b806000526000835260406000209180835416803314808015612353575b156122e957156122e05750601381600185015416935b019080841690816000528286526040600020546122765761216284614310565b9081612261575b8115612233575b50156121c957937f9a171633dc31b3fa430c0c3f7732d342ac783c40ad5d5f6585bbe943b11288e494600052524360406000205561125d604051928392839092916001600160a01b036020916040840195845216910152565b6084856040519062461bcd60e51b82526004820152602260248201527f4974206d75737420626520746865207475726e206f662074686520616363757360448201527f65640000000000000000000000000000000000000000000000000000000000006064820152fd5b905061223e84614310565b15908161224d575b5086612170565b9050612258846147d6565b16811486612246565b80915061226d8561479d565b16821490612169565b6084866040519062461bcd60e51b82526004820152603060248201527f506c617965722068617320616c72656164792061636375736564206f70706f6e60448201527f656e74206f66206265696e672041464b000000000000000000000000000000006064820152fd5b60139093612142565b6084866040519062461bcd60e51b82526004820152602360248201527f4f6e6c7920706c617965727320696e207468652067616d652063616e2061636360448201527f75736500000000000000000000000000000000000000000000000000000000006064820152fd5b5082600186015416331461212c565b600101548416331490508561076a565b3461000f57602060031936011261000f5760043560025481101561000f5761239b608091613e1c565b508054906001600160a01b03906003826001830154169260028301541691015491604051938452602084015260408301526060820152f35b600060031936011261000f573415612b1f57600154805b61270c576003546000526000602052604060002060046006820155336001600160a01b0319825416178155600a600482015560066005820155600a6007820155614e2060098201553460028201556003546003820155600f810161ffff1981541690556000600a820155600b810160ff198154169055600a6008820155600a600e8201556124b660018060405160208101904282524460408201523360601b60608201526054815261249b81613c2c565b5190201614601683019060ff60ff1983541691151516179055565b6000601782015560006040516124cb81613c48565b52601481015460006014830155806126dc575b506014810160005260006040516124f481613c48565b52601581015460006015830155806126ac575b506015810160005261252b60405161251e81613c48565b600081526014830161409b565b61254760405161253a81613c48565b600081526015830161409b565b6001600d82015561257160405161255d81613c64565b600181526020368183013760188301614011565b600181016001600160a01b0319815416815561258e600354613f5a565b6003556003820154916001600160a01b03928380835416937f0b4576d78344bc547fff983affaec9bb08ed3c4b2b32c978ad4c7db5e22691f560e0600486015460058701546006880154600789015491604051938985528b602086015260408501526060840152608083015260a08201523460c0820152a161260e613f7d565b5054169060028301546040519161262483613c2c565b82526020820194855260408201928352606082019081526002546801000000000000000081101561058f5780600161265f9201600255613e1c565b9390936104e457602096600396879451865581600187019151166001600160a01b0319825416179055600285019151166001600160a01b0319825416179055519101550154604051908152f35b601582016000526020600020908101905b8181106126ca5750612507565b806126d6600192613fd7565b016126bd565b601482016000526020600020908101905b8181106126fa57506124de565b80612706600192613fd7565b016126ed565b6000198101908082116105505761272282613d7c565b9054600391821b1c600052602060008152604060002091600f8084015460ff908160018183161515149182612b11575b82612b03575b82612ae6575b82612ad8575b5050612782575b5050505050905080156105505760001901806123ea565b600a9081860154600687015411801590612acb575b156127f2575050506127ac6127e79495613d7c565b9054911b1c916001600160a01b03916011838354169360018401541692846000520190526040600020549181600052604060002054936144f2565b80828080808061276b565b90929450612816612807612832939598613d7c565b905490871b1c9554861061414e565b846000526000875260406000209384015461074b828216614199565b6128516001600160a01b0392838154163314908115612abb575061422f565b8260005260008552604060002090600d8201805415612a515760188301918254156129d857846128808761479d565b16331480156129cf575b15612965576001939260007f9efb9b5fd527c492fd7c47f1621da408223747ad7ba90f196681561818362ae7989993612909938983528286526128fd604084206128e56040516128d981613c48565b8681526014830161409b565b6015604051916128f483613c48565b8683520161409b565b86016111e58154613f5a565b60006017830155600b820160ff198154169055838254166000526013820190526000604081205501541660005260006040812055612946816147d6565b604080519283526001600160a01b0391909116602083015290a16127e7565b6084886040519062461bcd60e51b82526004820152602e60248201527f4f6e6c79207468652070726576696f757320627265616b65722063616e20737460448201527f6172742061206e6577207475726e0000000000000000000000000000000000006064820152fd5b5030331461288a565b60a4886040519062461bcd60e51b82526004820152604660248201527f43616e6e6f74207374617274206e6577207475726e2c2070726576696f75732060448201527f636f64652073656372657420686173206e6f74206265656e207075626c6973686064820152651959081e595d60d21b6084820152fd5b6084876040519062461bcd60e51b82526004820152603760248201527f43616e6e6f74207374617274206e6577207475726e2c2063757272656e74206f60448201527f6e6520686173206e6f742066696e6973686564207965740000000000000000006064820152fd5b600101548416331490508761076a565b5080600b87015416612797565b60081c161590508189612764565b9150612afb600d880154600989015490614343565b42119161275e565b601888015415159250612758565b600d88015415159250612752565b608460405162461bcd60e51b815260206004820152602160248201527f47616d65207374616b65206d7573742062652067726561746572207468616e2060448201527f30000000000000000000000000000000000000000000000000000000000000006064820152fd5b3461000f57604060031936011261000f5760043560243590612bae600354821061414e565b80600052602091600083526040600020612bd360ff600f83015461074b828216614199565b612bf26001600160a01b0391828154163314908115612db4575061422f565b612c2f604051612c0181613c64565b601c81527f2d2d2d2d2d2d2d2d2d2d2d2d2d2d2d2d2d434f44452048415348203000000000868201526149af565b82600052600084526017604060002001908154612d4b57612c4f846147d6565b1690338203612ce157907f32f73f63f8d0bffaf14d8c4569a8b067b0b5f69d402424f68aaa4cdfe491555094836060959493612cbe604051612c9081613c64565b601c81527f2d2d2d2d2d2d2d2d2d2d2d2d2d2d2d2d2d434f44452048415348203100000000858201526149af565b55612cd0612ccb846148a2565b6149af565b6040519384528301526040820152a1005b6084856040519062461bcd60e51b82526004820152603360248201527f4f6e6c79207468652063757272656e7420436f64654d616b65722063616e207360448201527f75626d69742074686520636f64652068617368000000000000000000000000006064820152fd5b6084856040519062461bcd60e51b825260048201526024808201527f436f646520686173682068617320616c7265616479206265656e207375626d6960448201527f74746564000000000000000000000000000000000000000000000000000000006064820152fd5b600101548316331490508661076a565b3461000f57604060031936011261000f5767ffffffffffffffff60043581811161000f57612df6903690600401613cbb565b9060243590811161000f57602091612e15612e1b923690600401613d35565b90614808565b604051908152f35b3461000f57600060031936011261000f57602060405160068152f35b602060031936011261000f576004356001600160a01b038116810361000f573415612b1f57600154805b6131a65750600354600052600060205260406000209060046006830155336001600160a01b0319835416178255600a600483015560066005830155600a6007830155614e2060098301553460028301556003546003830155600f820161ffff1981541690556000600a830155600b820160ff198154169055600a6008830155600a600e830155612f3760018060405160208101904282524460408201523360601b606082015260548152612f1c81613c2c565b5190201614601684019060ff60ff1983541691151516179055565b600060178301556000604051612f4c81613c48565b5260148201546000601484015580613176575b50601482016000526000604051612f7581613c48565b5260158201546000601584015580613146575b5060158201600052612fac604051612f9f81613c48565b600081526014840161409b565b612fc8604051612fbb81613c48565b600081526015840161409b565b6001600d830155612ff2604051612fde81613c64565b600181526020368183013760188401614011565b6001600160a01b036001830191166001600160a01b031982541617815561301a600354613f5a565b6003556003820154916001600160a01b0380825416927f0b4576d78344bc547fff983affaec9bb08ed3c4b2b32c978ad4c7db5e22691f560e0600485015460058601546006870154600788015491604051938b85528a602086015260408501526060840152608083015260a08201523460c0820152a1613098613f7d565b50541692600282015490604051906130af82613c2c565b81526020810193845260408101948552606081019182526002546801000000000000000081101561058f578060016130ea9201600255613e1c565b9290926104e45760209560039586935185556001600160a01b03600186019151166001600160a01b03198254161790556001600160a01b03600285019151166001600160a01b0319825416179055519101550154604051908152f35b601583016000526020600020908101905b8181106131645750612f88565b80613170600192613fd7565b01613157565b601483016000526020600020908101905b8181106131945750612f5f565b806131a0600192613fd7565b01613187565b6000198101818111610550576131bb81613d7c565b9054600391821b1c6000526000602052604060002090600f808301549060ff9182600181831615151491826135a4575b82613596575b82613579575b8261356b575b5050613219575b50505050508015610550576000190180612e69565b600a918285015460068601541180159061355e575b1561328e5750505061324261328493613d7c565b9054911b1c906001600160a01b038154169060116001600160a01b036001830154169183600052016020526040600020549181600052604060002054936144f2565b8280808080613204565b6132dc9394506132a56128076132c2939497613d7c565b84600052600060205260406000209283015461074b828216614199565b6001600160a01b038154163314908115613547575061422f565b8060005260006020526040600020600d8101928354156134dd576018820191825415613464576001600160a01b036133138561479d565b163314801561345b575b156133f1576133946001600160a01b039360007f9efb9b5fd527c492fd7c47f1621da408223747ad7ba90f196681561818362ae79760019588835282602052613372604084206128e56040516128d981613c48565b850161337e8154613f5a565b905542600c86015555604051906111fb82613c48565b60006017820155600b810160ff198154169055828154166000526013810160205260006040812055015416600052600060408120556133d2816147d6565b604080519283526001600160a01b0391909116602083015290a1613284565b608460405162461bcd60e51b815260206004820152602e60248201527f4f6e6c79207468652070726576696f757320627265616b65722063616e20737460448201527f6172742061206e6577207475726e0000000000000000000000000000000000006064820152fd5b5030331461331d565b60a460405162461bcd60e51b815260206004820152604660248201527f43616e6e6f74207374617274206e6577207475726e2c2070726576696f75732060448201527f636f64652073656372657420686173206e6f74206265656e207075626c6973686064820152651959081e595d60d21b6084820152fd5b608460405162461bcd60e51b815260206004820152603760248201527f43616e6e6f74207374617274206e6577207475726e2c2063757272656e74206f60448201527f6e6520686173206e6f742066696e6973686564207965740000000000000000006064820152fd5b600101546001600160a01b0316331490508661076a565b5080600b8601541661322e565b60081c1615905082896131fd565b915061358e600d870154600988015490614343565b4211916131f7565b6018870154151592506131f1565b600d870154151592506131eb565b3461000f57600060031936011261000f5760405180600182815491828452602080940190806000527fb10e2d527612073b26eecdfd717e6a320cf44b4afac2b0732d9fcbe2b7fa0cf69060005b8686821061362957859061361582870383613c80565b61208b604051928284938452830190613dcb565b83548552889550909301929181019181016135ff565b3461000f57602060031936011261000f57600435600052600060205260406000208061012052808060ff8180808080808080808080600e6008600a600f60036002600960076005600460066018600d6001600160a01b039d8e8154169e60018201541661018052600c81015460805201549d01549d01549d01549d01549d01549d01549d01549d01549d01549d01549e01549e01549e8c60168201541660e05260178101546101a0528d6014820154156000610100526000146138215750506000610100525b601561012051018d815415600060c05260001461380e575050600060c0525b604051806101605242905260206101605101526101805160406101605101526080516060610160510152608061016051015260a061016051015260c061016051015260e061016051015261010061016051015261012061016051015261014061016051015261016080510152610180610160510152818160081c1615156101a06101605101521615156101c06101605101526101e061016051015261020061016051015261022061016051015260e05115156102406101605101526101a0516102606101605101526101005161028061016051015260c0516102a06101605101526102c061016051f35b61381791613db3565b505460c052613724565b601461382d9201613db3565b505461010052613705565b3461000f57602060031936011261000f5760043560015481101561000f57613861602091613d7c565b90546040519160031b1c8152f35b3461000f57602060031936011261000f576004356000526000602052604060002080806001600160a01b03808254169060018301541660a05260028201546003830154600484015460058501546006860154600787015490600888015492600989015494600a8a015496600b8b015460ff1698600c8c01549a600d8d01549c600e01549d600f01549e601681015460ff166101c0526017015461014052604051806101e0525260a0516101e051602001526101e051604001526101e051606001526101e051608001526101e05160a001526101e05160c001526101e05160e001526101e05161010001526101e05161012001526101e051610140015215156101e05161016001526101e05161018001526101e0516101a001526101e0516101c0015260ff811615156101e0516101e0015260081c60ff1615156101e05161020001526101c05115156101e0516102200152610140516101e05161024001526101e05161026090f35b3461000f57606060031936011261000f5767ffffffffffffffff60043560243582811161000f57613a0c903690600401613cbb565b9160443590811161000f57613a25903690600401613d35565b91613a33600354831061414e565b8160005260006020526040600020613a5660ff600f83015461074b828216614199565b613a756001600160a01b0391828154163314908115612db4575061422f565b826000526000602052604060002093600c850154151580613c1f575b15613bdb57613a9f846147d6565b9182163303613b7157613b13907ffdeee0ecf1220c6661aa03c9cb141b50f1b22761ab62b6617d65eaafd0e12951613af96018880195613adf8188614011565b604051918291898352604060208401526040830190613dcb565b0390a1613b0e613b088661479d565b94613ed8565b614808565b601785015403613b26575b42600d850155005b604080518481526001600160a01b0383166020820152613b6994917fd86b7c8b2dd3f5581afd777a66c96de7fc1f40139f09f1899a98fe7ebb23c5d591a1614350565b818080613b1e565b608460405162461bcd60e51b815260206004820152602a60248201527f4f6e6c7920746865206d616b65722063616e207075626c69736820746865206360448201527f6f646520736563726574000000000000000000000000000000000000000000006064820152fd5b606460405162461bcd60e51b815260206004820152601e60248201527f5475726e206d757374206265207374617274656420616e6420656e64656400006044820152fd5b50600d8501541515613a91565b6080810190811067ffffffffffffffff82111761058f57604052565b6020810190811067ffffffffffffffff82111761058f57604052565b6040810190811067ffffffffffffffff82111761058f57604052565b90601f601f19910116810190811067ffffffffffffffff82111761058f57604052565b67ffffffffffffffff811161058f5760051b60200190565b81601f8201121561000f57803591613cd283613ca3565b92613ce06040519485613c80565b808452602092838086019260051b82010192831161000f578301905b828210613d0a575050505090565b81358152908301908301613cfc565b67ffffffffffffffff811161058f57601f01601f191660200190565b81601f8201121561000f57803590613d4c82613d19565b92613d5a6040519485613c80565b8284526020838301011161000f57816000926020809301838601378301015290565b600154811015610c525760016000527fb10e2d527612073b26eecdfd717e6a320cf44b4afac2b0732d9fcbe2b7fa0cf60190600090565b8054821015610c525760005260206000200190600090565b90815180825260208080930193019160005b828110613deb575050505090565b835185529381019392810192600101613ddd565b503461000f57600060031936011261000f576020604051600a8152f35b600254811015610c5257600260005260021b7f405787fa12a823e0f2b7631cc41b3ba8828b3321ca811111fa75cd3aa3bb5ace0190600090565b60005b838110613e695750506000910152565b8181015183820152602001613e59565b601f19601f60409360208452613e9e8151809281602088015260208888019101613e56565b0116010190565b90604060031983011261000f57600435916024359067ffffffffffffffff821161000f57613ed591600401613cbb565b90565b9060405191828154918282526020928383019160005283600020936000905b828210613f0f57505050613f0d92500383613c80565b565b855484526001958601958895509381019390910190613ef7565b90613f3382613ca3565b613f406040519182613c80565b828152601f19613f508294613ca3565b0190602036910137565b60001981146105505760010190565b8051821015610c525760209160051b010190565b60405190613f8a82613c2c565b60006060838281528260208201528260408201520152565b80549060009081815582613fb557505050565b815260208120918201915b828110613fcc57505050565b818155600101613fc0565b8054906000815581613fe7575050565b6000526020600020908101905b818110613fff575050565b8061400b600192613fa2565b01613ff4565b81519167ffffffffffffffff831161058f5768010000000000000000831161058f578154838355808410614072575b50602080910191600052806000209060005b848110614060575050505050565b83518382015592810192600101614052565b6000838152846020822092830192015b828110614090575050614040565b818155600101614082565b919082549068010000000000000000918281101561058f576140c4906001958682018155613db3565b9190916104e457805192831161058f57815483835580841061411e575b50602080910191600052806000206000925b8484106141035750505050509050565b86838261411283945186614011565b019201930192906140f3565b826000528584602060002092830192015b82811061413d5750506140e1565b61414681613fa2565b01869061412f565b1561415557565b606460405162461bcd60e51b815260206004820152600f60248201527f496e76616c69642067616d6520494400000000000000000000000000000000006044820152fd5b156141a057565b606460405162461bcd60e51b815260206004820152601460248201527f47616d6520686173206e6f7420737461727465640000000000000000000000006044820152fd5b156141eb57565b606460405162461bcd60e51b815260206004820152600e60248201527f47616d652068617320656e6465640000000000000000000000000000000000006044820152fd5b1561423657565b606460405162461bcd60e51b815260206004820152601560248201527f4e6f7420617574686f72697a656420706c6179657200000000000000000000006044820152fd5b1561428157565b606460405162461bcd60e51b815260206004820152602060248201527f436f64652068617368206e6f74206265656e207375626d6974746564207965746044820152fd5b156142cc57565b606460405162461bcd60e51b815260206004820152600e60248201527f5475726e2068617320656e6465640000000000000000000000000000000000006044820152fd5b6000526000602052604060002061433d600a82015460156143348260148601613db3565b50549301613db3565b50541490565b9190820180921161055057565b90600091826001938454915b8282106144c4575b614425575b505060008093600282947f64e67454795640f66cef8019a707b9381952f2f1024a355d5470bafc82af1800608086869787528660205260409a8b882094600f860161010061ff00198254161790556001600160a01b0380921697888a52601187016020528d8a205516808852878c8120558688528b8820549088528b882054908c519283528760208401528c8301526060820152a101549082821561441c575bf1156144125750565b513d6000823e3d90fd5b506108fc614409565b6000199491929492838101908111610550576144709161444761445092613d7c565b92905491613d7c565b91909260031b1c9082549060031b600019811b9283911b16911916179055565b80549081156104fa576002600095947f64e67454795640f66cef8019a707b9381952f2f1024a355d5470bafc82af18006080889788978897016144b5610dfd82613d7c565b86559650505094505093614369565b90836144cf82613d7c565b90549060031b1c146144ea576144e490613f5a565b9061435c565b905084614364565b9092916000806001908154925b838210614655575b6145de575b505050600093600285947f64e67454795640f66cef8019a707b9381952f2f1024a355d5470bafc82af1800608086889796889788528760205260409b8c808a2096600f880161010061ff001982541617905580831191828c146145d75784925b8c146145d1578a945b6001600160a01b039b8c95868093168f5260118c01602052838f2055168c528b205516968789528c892054911688528b882054908c519283528760208401528c8301526060820152a101549082821561441c57f1156144125750565b84614575565b8a9261456c565b6000199692878101908111610550576145fd9161444761445092613d7c565b80549485156104fa577f64e67454795640f66cef8019a707b9381952f2f1024a355d5470bafc82af18006080600098968998966002958a998a990190614645610dfd83613d7c565b559650965050509482965061450c565b908561466082613d7c565b90549060031b1c1461467b5761467590613f5a565b906144ff565b905081614507565b906000526000602052604060002090600a820154908115614772576001600160a01b0380808554169216918214614720575b600184015416146146c8575b5050600090565b6001169081159182614711575b82156146ee575b50506146e95738806146c1565b600190565b600114915081614701575b5038806146dc565b60ff9150601601541615386146f9565b601682015460ff1692506146d5565b60018316600181149081614763575b8115614745575b50156146b55750505050600190565b90501580614754575b38614736565b5060ff6016850154161561474e565b601686015460ff16915061472f565b601691509160ff926001600160a01b03808354169116146000146147965701541690565b0154161590565b80600052600060205260406000206001600160a01b03916147c2838354169182614683565b156147d05750600101541690565b91505090565b80600052600060205260406000206001600160a01b03916147fb838354169182614683565b6147d05750600101541690565b60405160209081810192838382519192019060005b81811061487d575050509061483f81614877949303601f198101835282613c80565b60405193849161486b8461485c818601998a815193849201613e56565b84019151809386840190613e56565b01038084520182613c80565b51902090565b82518452928501929185019160010161481d565b60ff1660ff81146105505760010190565b9060005b60ff8116602081109081614979575b50156148c9576148c490614891565b6148a6565b9060ff80921690601f196148f56148df84613d19565b936148ed6040519586613c80565b808552613d19565b0190602091368385013760005b808516908382108080614945575b1561493a5715610c52578451821015610c5257818488614935941a9187010153614891565b614902565b505050935050905090565b15610c52577fff0000000000000000000000000000000000000000000000000000000000000088841a60f81b161515614910565b9015610c5257837fff00000000000000000000000000000000000000000000000000000000000000911a60f81b161515386148b5565b600080916040516149fc816149ee60208201947f41304fac00000000000000000000000000000000000000000000000000000000865260248301613e79565b03601f198101835282613c80565b51906a636f6e736f6c652e6c6f675afa5056fea2646970667358221220398e0a734d87e05b000144e6dc9111dd5d46028177b1b789dbc65ffe67740dcb64736f6c63430008110033",
  "linkReferences": {},
  "deployedLinkReferences": {}
}