{
  "_format": "hh-sol-artifact-1",
  "contractName": "Mastermind",
  "sourceName": "contracts/Mastermind.sol",
  "abi": [
    {
      "anonymous": false,
      "inputs": [
        {
          "indexed": false,
          "internalType": "uint256",
          "name": "gameId",
          "type": "uint256"
        },
        {
          "indexed": false,
          "internalType": "address",
          "name": "accused",
          "type": "address"
        }
      ],
      "name": "AFKAccusation",
      "type": "event"
    },
    {
      "anonymous": false,
      "inputs": [
        {
          "indexed": false,
          "internalType": "uint256",
          "name": "gameId",
          "type": "uint256"
        },
        {
          "indexed": false,
          "internalType": "uint256[]",
          "name": "codeSecret",
          "type": "uint256[]"
        }
      ],
      "name": "CodeSecretPublished",
      "type": "event"
    },
    {
      "anonymous": false,
      "inputs": [
        {
          "indexed": false,
          "internalType": "uint256",
          "name": "gameId",
          "type": "uint256"
        },
        {
          "indexed": false,
          "internalType": "uint256[]",
          "name": "guessIDs",
          "type": "uint256[]"
        }
      ],
      "name": "Dispute",
      "type": "event"
    },
    {
      "anonymous": false,
      "inputs": [
        {
          "indexed": false,
          "internalType": "uint256",
          "name": "gameId",
          "type": "uint256"
        },
        {
          "indexed": false,
          "internalType": "uint256",
          "name": "numCorrectPositions",
          "type": "uint256"
        },
        {
          "indexed": false,
          "internalType": "uint256",
          "name": "numCorrectColors",
          "type": "uint256"
        }
      ],
      "name": "Feedback",
      "type": "event"
    },
    {
      "anonymous": false,
      "inputs": [
        {
          "indexed": false,
          "internalType": "uint256",
          "name": "gameId",
          "type": "uint256"
        },
        {
          "indexed": false,
          "internalType": "address",
          "name": "creator",
          "type": "address"
        },
        {
          "indexed": false,
          "internalType": "uint256",
          "name": "numColors",
          "type": "uint256"
        },
        {
          "indexed": false,
          "internalType": "uint256",
          "name": "codeLength",
          "type": "uint256"
        },
        {
          "indexed": false,
          "internalType": "uint256",
          "name": "numTurns",
          "type": "uint256"
        },
        {
          "indexed": false,
          "internalType": "uint256",
          "name": "maxGuesses",
          "type": "uint256"
        },
        {
          "indexed": false,
          "internalType": "uint256",
          "name": "gameStake",
          "type": "uint256"
        }
      ],
      "name": "GameCreated",
      "type": "event"
    },
    {
      "anonymous": false,
      "inputs": [
        {
          "indexed": false,
          "internalType": "uint256",
          "name": "gameId",
          "type": "uint256"
        },
        {
          "indexed": false,
          "internalType": "address",
          "name": "winner",
          "type": "address"
        },
        {
          "indexed": false,
          "internalType": "uint256",
          "name": "winnerPoints",
          "type": "uint256"
        },
        {
          "indexed": false,
          "internalType": "uint256",
          "name": "loserPoints",
          "type": "uint256"
        }
      ],
      "name": "GameEnded",
      "type": "event"
    },
    {
      "anonymous": false,
      "inputs": [
        {
          "indexed": false,
          "internalType": "uint256",
          "name": "gameId",
          "type": "uint256"
        },
        {
          "indexed": false,
          "internalType": "address",
          "name": "joiner",
          "type": "address"
        },
        {
          "indexed": false,
          "internalType": "address",
          "name": "creator",
          "type": "address"
        }
      ],
      "name": "GameJoined",
      "type": "event"
    },
    {
      "anonymous": false,
      "inputs": [
        {
          "indexed": false,
          "internalType": "uint256",
          "name": "gameId",
          "type": "uint256"
        },
        {
          "indexed": false,
          "internalType": "uint256[]",
          "name": "guess",
          "type": "uint256[]"
        }
      ],
      "name": "Guess",
      "type": "event"
    },
    {
      "anonymous": false,
      "inputs": [
        {
          "indexed": false,
          "internalType": "uint256",
          "name": "gameId",
          "type": "uint256"
        }
      ],
      "name": "HandlingGame",
      "type": "event"
    },
    {
      "anonymous": false,
      "inputs": [
        {
          "indexed": false,
          "internalType": "uint256",
          "name": "gameId",
          "type": "uint256"
        },
        {
          "indexed": false,
          "internalType": "address",
          "name": "codeMaker",
          "type": "address"
        },
        {
          "indexed": false,
          "internalType": "bytes32",
          "name": "hash",
          "type": "bytes32"
        }
      ],
      "name": "HashPublished",
      "type": "event"
    },
    {
      "anonymous": false,
      "inputs": [
        {
          "indexed": false,
          "internalType": "uint256",
          "name": "gameId",
          "type": "uint256"
        },
        {
          "indexed": false,
          "internalType": "address",
          "name": "punished",
          "type": "address"
        },
        {
          "indexed": false,
          "internalType": "uint256",
          "name": "amount",
          "type": "uint256"
        }
      ],
      "name": "Punishment",
      "type": "event"
    },
    {
      "anonymous": false,
      "inputs": [
        {
          "indexed": false,
          "internalType": "uint256",
          "name": "gameId",
          "type": "uint256"
        },
        {
          "indexed": false,
          "internalType": "address",
          "name": "punished",
          "type": "address"
        }
      ],
      "name": "ResolveDispute",
      "type": "event"
    },
    {
      "anonymous": false,
      "inputs": [
        {
          "indexed": false,
          "internalType": "uint256",
          "name": "gameId",
          "type": "uint256"
        },
        {
          "indexed": false,
          "internalType": "bool",
          "name": "guessed",
          "type": "bool"
        }
      ],
      "name": "TurnEnded",
      "type": "event"
    },
    {
      "anonymous": false,
      "inputs": [
        {
          "indexed": false,
          "internalType": "uint256",
          "name": "gameId",
          "type": "uint256"
        },
        {
          "indexed": false,
          "internalType": "address",
          "name": "codeMaker",
          "type": "address"
        }
      ],
      "name": "TurnStarted",
      "type": "event"
    },
    {
      "stateMutability": "nonpayable",
      "type": "fallback"
    },
    {
      "inputs": [],
      "name": "B_AFKBLOCKS",
      "outputs": [
        {
          "internalType": "uint256",
          "name": "",
          "type": "uint256"
        }
      ],
      "stateMutability": "view",
      "type": "function"
    },
    {
      "inputs": [],
      "name": "CODE_LENGTH",
      "outputs": [
        {
          "internalType": "uint256",
          "name": "",
          "type": "uint256"
        }
      ],
      "stateMutability": "view",
      "type": "function"
    },
    {
      "inputs": [],
      "name": "K_EXTRA_POINTS",
      "outputs": [
        {
          "internalType": "uint256",
          "name": "",
          "type": "uint256"
        }
      ],
      "stateMutability": "view",
      "type": "function"
    },
    {
      "inputs": [],
      "name": "MAX_COLORS",
      "outputs": [
        {
          "internalType": "uint256",
          "name": "",
          "type": "uint256"
        }
      ],
      "stateMutability": "view",
      "type": "function"
    },
    {
      "inputs": [],
      "name": "NUM_GUESSES",
      "outputs": [
        {
          "internalType": "uint256",
          "name": "",
          "type": "uint256"
        }
      ],
      "stateMutability": "view",
      "type": "function"
    },
    {
      "inputs": [],
      "name": "NUM_TURNS",
      "outputs": [
        {
          "internalType": "uint256",
          "name": "",
          "type": "uint256"
        }
      ],
      "stateMutability": "view",
      "type": "function"
    },
    {
      "inputs": [],
      "name": "TIME_TO_DISPUTE",
      "outputs": [
        {
          "internalType": "uint256",
          "name": "",
          "type": "uint256"
        }
      ],
      "stateMutability": "view",
      "type": "function"
    },
    {
      "inputs": [
        {
          "internalType": "uint256",
          "name": "_gameId",
          "type": "uint256"
        }
      ],
      "name": "accuseAFK",
      "outputs": [],
      "stateMutability": "nonpayable",
      "type": "function"
    },
    {
      "inputs": [
        {
          "internalType": "uint256",
          "name": "",
          "type": "uint256"
        }
      ],
      "name": "activeGames",
      "outputs": [
        {
          "internalType": "uint256",
          "name": "gameId",
          "type": "uint256"
        },
        {
          "internalType": "address",
          "name": "creator",
          "type": "address"
        },
        {
          "internalType": "address",
          "name": "joiner",
          "type": "address"
        },
        {
          "internalType": "uint256",
          "name": "gameStake",
          "type": "uint256"
        }
      ],
      "stateMutability": "view",
      "type": "function"
    },
    {
      "inputs": [
        {
          "internalType": "bytes32",
          "name": "_bytes32",
          "type": "bytes32"
        }
      ],
      "name": "bytes32ToString",
      "outputs": [
        {
          "internalType": "string",
          "name": "",
          "type": "string"
        }
      ],
      "stateMutability": "pure",
      "type": "function"
    },
    {
      "inputs": [],
      "name": "createGame",
      "outputs": [
        {
          "internalType": "uint256",
          "name": "",
          "type": "uint256"
        }
      ],
      "stateMutability": "payable",
      "type": "function"
    },
    {
      "inputs": [
        {
          "internalType": "address",
          "name": "_joiner",
          "type": "address"
        }
      ],
      "name": "createGameWithJoiner",
      "outputs": [
        {
          "internalType": "uint256",
          "name": "",
          "type": "uint256"
        }
      ],
      "stateMutability": "payable",
      "type": "function"
    },
    {
      "inputs": [
        {
          "internalType": "uint256",
          "name": "_gameId",
          "type": "uint256"
        },
        {
          "internalType": "uint256[]",
          "name": "guessIDs",
          "type": "uint256[]"
        }
      ],
      "name": "disputeFeedback",
      "outputs": [],
      "stateMutability": "nonpayable",
      "type": "function"
    },
    {
      "inputs": [
        {
          "internalType": "uint256",
          "name": "",
          "type": "uint256"
        }
      ],
      "name": "games",
      "outputs": [
        {
          "internalType": "address",
          "name": "creator",
          "type": "address"
        },
        {
          "internalType": "address",
          "name": "joiner",
          "type": "address"
        },
        {
          "internalType": "uint256",
          "name": "gameStake",
          "type": "uint256"
        },
        {
          "internalType": "uint256",
          "name": "gameId",
          "type": "uint256"
        },
        {
          "internalType": "uint256",
          "name": "numColors",
          "type": "uint256"
        },
        {
          "internalType": "uint256",
          "name": "codeLength",
          "type": "uint256"
        },
        {
          "internalType": "uint256",
          "name": "numTurns",
          "type": "uint256"
        },
        {
          "internalType": "uint256",
          "name": "maxGuesses",
          "type": "uint256"
        },
        {
          "internalType": "uint256",
          "name": "extraPointsK",
          "type": "uint256"
        },
        {
          "internalType": "uint256",
          "name": "timeToDispute",
          "type": "uint256"
        },
        {
          "internalType": "uint256",
          "name": "currentTurn",
          "type": "uint256"
        },
        {
          "internalType": "bool",
          "name": "guessed",
          "type": "bool"
        },
        {
          "internalType": "uint256",
          "name": "startTime",
          "type": "uint256"
        },
        {
          "internalType": "uint256",
          "name": "endTime",
          "type": "uint256"
        },
        {
          "internalType": "uint256",
          "name": "b",
          "type": "uint256"
        },
        {
          "internalType": "bool",
          "name": "gameStarted",
          "type": "bool"
        },
        {
          "internalType": "bool",
          "name": "gameEnded",
          "type": "bool"
        },
        {
          "internalType": "bool",
          "name": "creatorIsMakerSeed",
          "type": "bool"
        },
        {
          "internalType": "bytes32",
          "name": "codeHash",
          "type": "bytes32"
        }
      ],
      "stateMutability": "view",
      "type": "function"
    },
    {
      "inputs": [
        {
          "internalType": "address",
          "name": "player",
          "type": "address"
        }
      ],
      "name": "getActiveGames",
      "outputs": [
        {
          "components": [
            {
              "internalType": "uint256",
              "name": "gameId",
              "type": "uint256"
            },
            {
              "internalType": "address",
              "name": "creator",
              "type": "address"
            },
            {
              "internalType": "address",
              "name": "joiner",
              "type": "address"
            },
            {
              "internalType": "uint256",
              "name": "gameStake",
              "type": "uint256"
            }
          ],
          "internalType": "struct Mastermind.GameInfo[]",
          "name": "",
          "type": "tuple[]"
        }
      ],
      "stateMutability": "view",
      "type": "function"
    },
    {
      "inputs": [],
      "name": "getAllActiveGames",
      "outputs": [
        {
          "components": [
            {
              "internalType": "uint256",
              "name": "gameId",
              "type": "uint256"
            },
            {
              "internalType": "address",
              "name": "creator",
              "type": "address"
            },
            {
              "internalType": "address",
              "name": "joiner",
              "type": "address"
            },
            {
              "internalType": "uint256",
              "name": "gameStake",
              "type": "uint256"
            }
          ],
          "internalType": "struct Mastermind.GameInfo[]",
          "name": "",
          "type": "tuple[]"
        }
      ],
      "stateMutability": "view",
      "type": "function"
    },
    {
      "inputs": [
        {
          "internalType": "uint256",
          "name": "_gameId",
          "type": "uint256"
        }
      ],
      "name": "getCurrentBreaker",
      "outputs": [
        {
          "internalType": "address",
          "name": "",
          "type": "address"
        }
      ],
      "stateMutability": "view",
      "type": "function"
    },
    {
      "inputs": [
        {
          "internalType": "uint256",
          "name": "_gameId",
          "type": "uint256"
        }
      ],
      "name": "getCurrentMaker",
      "outputs": [
        {
          "internalType": "address",
          "name": "",
          "type": "address"
        }
      ],
      "stateMutability": "view",
      "type": "function"
    },
    {
      "inputs": [
        {
          "internalType": "uint256",
          "name": "_gameId",
          "type": "uint256"
        }
      ],
      "name": "getFeedback",
      "outputs": [
        {
          "internalType": "uint256[][]",
          "name": "",
          "type": "uint256[][]"
        }
      ],
      "stateMutability": "view",
      "type": "function"
    },
    {
      "inputs": [
        {
          "internalType": "uint256",
          "name": "_gameId",
          "type": "uint256"
        }
      ],
      "name": "getGameDetails",
      "outputs": [
        {
          "internalType": "uint256",
          "name": "currentTime",
          "type": "uint256"
        },
        {
          "internalType": "address",
          "name": "creator",
          "type": "address"
        },
        {
          "internalType": "address",
          "name": "joiner",
          "type": "address"
        },
        {
          "internalType": "uint256",
          "name": "startTime",
          "type": "uint256"
        },
        {
          "internalType": "uint256",
          "name": "endTime",
          "type": "uint256"
        },
        {
          "internalType": "uint256",
          "name": "codeSecretLength",
          "type": "uint256"
        },
        {
          "internalType": "uint256",
          "name": "numTurns",
          "type": "uint256"
        },
        {
          "internalType": "uint256",
          "name": "numColors",
          "type": "uint256"
        },
        {
          "internalType": "uint256",
          "name": "codeLength",
          "type": "uint256"
        },
        {
          "internalType": "uint256",
          "name": "maxGuesses",
          "type": "uint256"
        },
        {
          "internalType": "uint256",
          "name": "timeToDispute",
          "type": "uint256"
        },
        {
          "internalType": "uint256",
          "name": "gameStake",
          "type": "uint256"
        },
        {
          "internalType": "uint256",
          "name": "gameId",
          "type": "uint256"
        },
        {
          "internalType": "bool",
          "name": "gameEnded",
          "type": "bool"
        },
        {
          "internalType": "bool",
          "name": "gameStarted",
          "type": "bool"
        },
        {
          "internalType": "uint256",
          "name": "currentTurn",
          "type": "uint256"
        },
        {
          "internalType": "uint256",
          "name": "extraPointsK",
          "type": "uint256"
        },
        {
          "internalType": "uint256",
          "name": "b",
          "type": "uint256"
        },
        {
          "internalType": "bool",
          "name": "creatorIsMakerSeed",
          "type": "bool"
        },
        {
          "internalType": "bytes32",
          "name": "codeHash",
          "type": "bytes32"
        },
        {
          "internalType": "uint256",
          "name": "guessesLength",
          "type": "uint256"
        },
        {
          "internalType": "uint256",
          "name": "feedbacksLength",
          "type": "uint256"
        },
        {
          "internalType": "uint256[]",
          "name": "codeSecret",
          "type": "uint256[]"
        }
      ],
      "stateMutability": "view",
      "type": "function"
    },
    {
      "inputs": [
        {
          "internalType": "uint256",
          "name": "_gameId",
          "type": "uint256"
        }
      ],
      "name": "getGuesses",
      "outputs": [
        {
          "internalType": "uint256[][]",
          "name": "",
          "type": "uint256[][]"
        }
      ],
      "stateMutability": "view",
      "type": "function"
    },
    {
      "inputs": [
        {
          "internalType": "address",
          "name": "joiner",
          "type": "address"
        }
      ],
      "name": "getJoinableGames",
      "outputs": [
        {
          "components": [
            {
              "internalType": "uint256",
              "name": "gameId",
              "type": "uint256"
            },
            {
              "internalType": "address",
              "name": "creator",
              "type": "address"
            },
            {
              "internalType": "address",
              "name": "joiner",
              "type": "address"
            },
            {
              "internalType": "uint256",
              "name": "gameStake",
              "type": "uint256"
            }
          ],
          "internalType": "struct Mastermind.GameInfo[]",
          "name": "gamesInfo",
          "type": "tuple[]"
        }
      ],
      "stateMutability": "view",
      "type": "function"
    },
    {
      "inputs": [],
      "name": "getNGames",
      "outputs": [
        {
          "internalType": "uint256",
          "name": "",
          "type": "uint256"
        }
      ],
      "stateMutability": "view",
      "type": "function"
    },
    {
      "inputs": [
        {
          "internalType": "uint256[]",
          "name": "intArray",
          "type": "uint256[]"
        },
        {
          "internalType": "bytes",
          "name": "seed",
          "type": "bytes"
        }
      ],
      "name": "hashArrayOfIntegers",
      "outputs": [
        {
          "internalType": "bytes32",
          "name": "",
          "type": "bytes32"
        }
      ],
      "stateMutability": "pure",
      "type": "function"
    },
    {
      "inputs": [
        {
          "internalType": "uint256",
          "name": "_gameId",
          "type": "uint256"
        }
      ],
      "name": "joinGame",
      "outputs": [],
      "stateMutability": "payable",
      "type": "function"
    },
    {
      "inputs": [
        {
          "internalType": "uint256",
          "name": "",
          "type": "uint256"
        }
      ],
      "name": "joinableGames",
      "outputs": [
        {
          "internalType": "uint256",
          "name": "gameId",
          "type": "uint256"
        },
        {
          "internalType": "address",
          "name": "creator",
          "type": "address"
        },
        {
          "internalType": "address",
          "name": "joiner",
          "type": "address"
        },
        {
          "internalType": "uint256",
          "name": "gameStake",
          "type": "uint256"
        }
      ],
      "stateMutability": "view",
      "type": "function"
    },
    {
      "inputs": [
        {
          "internalType": "uint256",
          "name": "_gameId",
          "type": "uint256"
        },
        {
          "internalType": "uint256[]",
          "name": "guess",
          "type": "uint256[]"
        }
      ],
      "name": "makeGuess",
      "outputs": [],
      "stateMutability": "nonpayable",
      "type": "function"
    },
    {
      "inputs": [
        {
          "internalType": "uint256",
          "name": "_gameId",
          "type": "uint256"
        },
        {
          "internalType": "uint256",
          "name": "numCorrectPositions",
          "type": "uint256"
        },
        {
          "internalType": "uint256",
          "name": "numCorrectColors",
          "type": "uint256"
        }
      ],
      "name": "provideFeedback",
      "outputs": [],
      "stateMutability": "nonpayable",
      "type": "function"
    },
    {
      "inputs": [
        {
          "internalType": "uint256",
          "name": "_gameId",
          "type": "uint256"
        },
        {
          "internalType": "uint256[]",
          "name": "_codeSecret",
          "type": "uint256[]"
        },
        {
          "internalType": "bytes",
          "name": "seed",
          "type": "bytes"
        }
      ],
      "name": "publishCodeSecret",
      "outputs": [],
      "stateMutability": "nonpayable",
      "type": "function"
    },
    {
      "inputs": [
        {
          "internalType": "uint256",
          "name": "_gameId",
          "type": "uint256"
        }
      ],
      "name": "startTurn",
      "outputs": [],
      "stateMutability": "nonpayable",
      "type": "function"
    },
    {
      "inputs": [
        {
          "internalType": "uint256",
          "name": "_gameId",
          "type": "uint256"
        },
        {
          "internalType": "bytes32",
          "name": "_hash",
          "type": "bytes32"
        }
      ],
      "name": "submitCodeHash",
      "outputs": [],
      "stateMutability": "nonpayable",
      "type": "function"
    },
    {
      "inputs": [],
      "name": "totalGames",
      "outputs": [
        {
          "internalType": "uint256",
          "name": "",
          "type": "uint256"
        }
      ],
      "stateMutability": "view",
      "type": "function"
    },
    {
      "inputs": [
        {
          "internalType": "uint256",
          "name": "_gameId",
          "type": "uint256"
        }
      ],
      "name": "verifyAFKAccusation",
      "outputs": [],
      "stateMutability": "nonpayable",
      "type": "function"
    }
  ],
  "bytecode": "0x6080806040523461001657614d6a908161001c8239f35b600080fdfe61026060405260043610156100b0575b346100ab5760008060405161002381613e51565b601881527f46616c6c6261636b2066756e6374696f6e2063616c6c6564000000000000000060208201526040516100968161008860208201947f41304fac00000000000000000000000000000000000000000000000000000000865260248301614104565b03601f198101835282613e6d565b51906a636f6e736f6c652e6c6f675afa600080fd5b600080fd5b60003560e01c806307eeb50014613d225780630d2bb4b714613abd5780631106a38214613a85578063117a5b901461393357806313e4c7141461383c5780631b31abda1461361b5780632782158d14612f315780632c4e591b1461207c57806338b0bc8214612f155780634930296a14612ecb578063579f838e1461110a5780635be5484514612e6c57806368e712f314612ccd5780637255d729146125d65780637ad2b34c146125705780637eccd5941461110a57806380b900701461110a57806385fd68181461248d5780638917c531146121d65780638b575641146121ba5780639201de551461209a57806392b1696b1461207c5780639ecb55241461205f578063a10a8ad214612041578063ab11d7cc14611b73578063b2d9f71014611965578063badf6e7914611444578063be7f359914611147578063d5e1188714611118578063d620f5601461110a578063ef1c97c2146107b3578063efaa55a0146103485763fc684a510361000f57346100ab5760206003193601126100ab576004356001600160a01b03908181168091036100ab57600291825490610256826141a0565b9360009360005b8481106102cc57868661026f81614219565b9160005b82811061028c57604051806102888682613dae565b0390f35b806102ac6102a66102a06102c794866141e0565b5161401c565b50614163565b6102b682876141e0565b526102c181866141e0565b506141d1565b610273565b8184846102d88461401c565b50015416148015610318575b6102f7575b6102f2906141d1565b61025d565b94610310818761030a6102f2948b6141e0565b526141d1565b9590506102e9565b5083836103248361401c565b500154161580156102e4575083600161033c8361401c565b500154168214156102e4565b6020806003193601126100ab5760043590610366600354831061459c565b81600052600081526040600020600f810160ff81541661076f5760029081830154340361072b576001600160a01b03918284541633146106c1576001808501928354858116801560001461064f575073ffffffffffffffffffffffffffffffffffffffff1916331784555b8160ff198254161790556103e485614552565b815468010000000000000000811015610639578281018084558110156106235760607fb10e2d527612073b26eecdfd717e6a320cf44b4afac2b0732d9fcbe2b7fa0cf99184600052851b928051847fb10e2d527612073b26eecdfd717e6a320cf44b4afac2b0732d9fcbe2b7fa0cf601557fb10e2d527612073b26eecdfd717e6a320cf44b4afac2b0732d9fcbe2b7fa0cf78401888b830151169073ffffffffffffffffffffffffffffffffffffffff1991828254161790557fb10e2d527612073b26eecdfd717e6a320cf44b4afac2b0732d9fcbe2b7fa0cf8850190896040840151169082541617905501519101556000808354905b8183106105fa575b610528575b7f8ca5b55df47712c5e59e7aaddc402fc30e6399e3498efec70a7e440bb9d2fac860608a8a8a8a808b5416915416916040519384528301526040820152a1005b60001998969497959398918282019182116105e45761055361054c6105599361401c565b509161401c565b90614c89565b875480156105ce57019561056c8761401c565b9790976105b8577f8ca5b55df47712c5e59e7aaddc402fc30e6399e3498efec70a7e440bb9d2fac898600060038a8288978160609e5582015582848201550155559294968194966104e8565b634e487b7160e01b600052600060045260246000fd5b634e487b7160e01b600052603160045260246000fd5b634e487b7160e01b600052601160045260246000fd5b91896106058261401c565b50541461061b57610615906141d1565b916104db565b9150826104e3565b634e487b7160e01b600052603260045260246000fd5b634e487b7160e01b600052604160045260246000fd5b905033146103d1576084876040519062461bcd60e51b82526004820152603860248201527f4f6e6c79206120706c617965722073706563696669656420627920746865206360448201527f726561746f72206d6179206a6f696e207468652067616d6500000000000000006064820152fd5b6084856040519062461bcd60e51b82526004820152602260248201527f43726561746f722063616e6e6f74206a6f696e207468656972206f776e20676160448201527f6d650000000000000000000000000000000000000000000000000000000000006064820152fd5b6064846040519062461bcd60e51b82526004820152601960248201527f496e636f72726563742067616d65207374616b652073656e74000000000000006044820152fd5b6064836040519062461bcd60e51b82526004820152601860248201527f47616d652068617320616c7265616479207374617274656400000000000000006044820152fd5b346100ab576107c136614130565b906107cf600354821061459c565b80600052600060205261081a60406000206107ff60ff600f8301546107f58282166145e7565b60081c1615614632565b6001600160a01b0381541633149081156110f3575b5061467d565b806000526000602052600d6040600020015415611089578060005260006020526018604060002001541561101f5780600052600060205261086c600d6040600020015460096040600020015490614791565b421015610fdb57806000526000602052604060002061088b8233614a7b565b610f715761089882614bce565b6001600160a01b0360128301911692836000528160205260ff60406000205416610f0757845191600a60148501940154926108d38486614268565b505410610ec35760005b86518110156109f3576108f081886141e0565b516108fb8587614268565b505411156109af5760005b81811061091c5750610917906141d1565b6108dd565b61092682896141e0565b51610931828a6141e0565b511461094557610940906141d1565b610906565b608460405162461bcd60e51b815260206004820152602a60248201527f4475706c69636174652067756573732049442e2047756573736573206d75737460448201527f2062652061207365742e000000000000000000000000000000000000000000006064820152fd5b606460405162461bcd60e51b815260206004820152601060248201527f496e76616c6964206775657373204944000000000000000000000000000000006044820152fd5b508590856000526020526040600020916001928360ff198254161790557f738400b8f752acddf42852c5993f844990ae9dbd98c5579625d3537dad1b663f6040518281526040602082015280610a4c6040820186614090565b0390a1610a5c600354821061459c565b806000526000602052610a9c6040600020610a8260ff600f8301546107f58282166145e7565b336001600160a01b0382541614908115610ead575061467d565b806000526000602052604060002091610ab482614b95565b9284610abf84614bce565b926000915b610c6f575b5050604080518481526001600160a01b03861660208201527fd86b7c8b2dd3f5581afd777a66c96de7fc1f40139f09f1899a98fe7ebb23c5d59250a183546000805b828210610c46575b610bd8575b5050600093600285947f64e67454795640f66cef8019a707b9381952f2f1024a355d5470bafc82af180060808688979688978852876020526001600160a01b038060408a2096600f880161010061ff00198254161790551691828a526011870160205289604081205516968789526040892055604088205490885260408820549060405192835287602084015260408301526060820152a1015490828215610bcf575bf115610bc357005b6040513d6000823e3d90fd5b506108fc610bbb565b929160001982959692019485116105e4576000957f64e67454795640f66cef8019a707b9381952f2f1024a355d5470bafc82af18006080889795600294610c2e8a99610553610c278c9b614056565b5091614056565b610c36614cee565b9650965050509450819550610b18565b9084610c5182614056565b505414610c6757610c61906141d1565b90610b0b565b905085610b13565b8051821015610ea857600a83015491610ccf610cc9610cc2610cb7610cac610c9a8860148b01614268565b50610ca587896141e0565b5190614268565b509660158901614268565b50610ca585876141e0565b5094614280565b93614280565b610cdb60188601614280565b600094600091610ceb82516141a0565b908c6000815b610e4e575b506000815b610d9d575b50505050508151156106235789946020830151149182610d7c575b505090610d2c9115610d32576141d1565b91610ac4565b604080518881526001600160a01b03881660208201527fd86b7c8b2dd3f5581afd777a66c96de7fc1f40139f09f1899a98fe7ebb23c5d59190a1610d7788878961479e565b6141d1565b929150935081518910156106235788936040610d2c9301511490918a610d1b565b8451811015610e4957610db081856141e0565b5115610dc6575b610dc0906141d1565b81610cfb565b906000815b610dd7575b5090610db7565b8351811015610e4457610dea83876141e0565b51610df582866141e0565b511480610e32575b610e1057610e0a906141d1565b81610dcb565b959181610e2a610e23610dc094956141d1565b98876141e0565b529190610dd0565b50610e3d81866141e0565b5115610dfd565b610dd0565b610d00565b8451811015610ea357610e6181866141e0565b51610e6c82856141e0565b5114610e82575b610e7c906141d1565b81610cf1565b98610e8f610e7c916141d1565b9982610e9b82876141e0565b529050610e73565b610cf6565b610ac9565b8501546001600160a01b03163314905085610814565b606460405162461bcd60e51b815260206004820152601960248201527f496e76616c6964206e756d626572206f662067756573736573000000000000006044820152fd5b608460405162461bcd60e51b815260206004820152602b60248201527f427265616b65722068617320616c7265616479206469737075746564206d616b60448201527f657220666565646261636b0000000000000000000000000000000000000000006064820152fd5b608460405162461bcd60e51b815260206004820152602960248201527f4f6e6c792074686520636f6465627265616b65722063616e206469737075746560448201527f20666565646261636b00000000000000000000000000000000000000000000006064820152fd5b606460405162461bcd60e51b815260206004820152601460248201527f446973707574652074696d6520657870697265640000000000000000000000006044820152fd5b608460405162461bcd60e51b815260206004820152603660248201527f43616e6e6f7420646973707574652c20436f646520736563726574206861732060448201527f6e6f74206265656e207075626c697368656420796574000000000000000000006064820152fd5b608460405162461bcd60e51b815260206004820152602960248201527f43616e6e6f7420646973707574652c205475726e20686173206e6f742066696e60448201527f69736865642079657400000000000000000000000000000000000000000000006064820152fd5b600101546001600160a01b03163314905084610814565b506111136140c4565b61000f565b346100ab5760206003193601126100ab576020611136600435614bce565b6001600160a01b0360405191168152f35b346100ab576020806003193601126100ab57600435611169600354821061459c565b8060005260008252604060002061118b60ff600f8301546107f58282166145e7565b6111aa6001600160a01b0391828154163314908115611434575061467d565b81600052600083526040600020600d81018054156113ca57601882019081541561135157836111d886614b95565b1633148015611348575b156112de57946112806001939260007f9efb9b5fd527c492fd7c47f1621da408223747ad7ba90f196681561818362ae7988882528185526112536040832061123b60405161122f81613e35565b8581526014830161441f565b60156040519161124a83613e35565b8583520161441f565b600a860161126181546141d1565b905542600c870155556040519061127782613e35565b60008252614395565b60006017830155600b820160ff1981541690558382541660005260138201905260006040812055015416600052600060408120556112bd81614bce565b604080519283526001600160a01b039091166020830152819081015b0390a1005b6084866040519062461bcd60e51b82526004820152602e60248201527f4f6e6c79207468652070726576696f757320627265616b65722063616e20737460448201527f6172742061206e6577207475726e0000000000000000000000000000000000006064820152fd5b503033146111e2565b60a4866040519062461bcd60e51b82526004820152604660248201527f43616e6e6f74207374617274206e6577207475726e2c2070726576696f75732060448201527f636f64652073656372657420686173206e6f74206265656e207075626c6973686064820152651959081e595d60d21b6084820152fd5b6084856040519062461bcd60e51b82526004820152603760248201527f43616e6e6f74207374617274206e6577207475726e2c2063757272656e74206f60448201527f6e6520686173206e6f742066696e6973686564207965740000000000000000006064820152fd5b6001015483163314905085610814565b346100ab5760606003193601126100ab576004356024908135906044359160035482106114708161459c565b8260005260209060008252604060002094600f8601549361149960ff866107f5828099166145e7565b6114b86001600160a01b03978881541633149081156118a9575061467d565b85600052600084526114d360176040600020015415156146c8565b85600052600084526114ed600d6040600020015415614713565b85600052600084526040600020926115058284614791565b60058501548091116119225761151a8861475e565b6118b95782146117a4575b50600a830191611539835460158601614268565b5098604051906040820182811067ffffffffffffffff82111761178f5760405283825282878301528a546801000000000000000081101561178f576115859060019c8d82018155614268565b91909161177b5750805491600292838355808410611751575b5090600052866000208b60005b84811061173f575050505050917f4efa7a2fca1d9822b1d1f4ecfd98d0d7c318413c91a29fd4cb2a9cfdfcb11e77606061160e936007953360005260138801895260006040812055604051918b8352898301526040820152a15460148401614268565b50549101541461161a57005b600b6040946116887fb3be9a24bc49244c2a09cfafde10d7faf3f8868c60c21b2d8a39cfb227e612ce97600095611654600354891061459c565b87875286865261167189882091600f8301546107f58282166145e7565b8333818354161492831561172d575b50505061467d565b84845283835261169f6017878620015415156146c8565b8484528383526116b5600d878620015415614713565b8484528383528584209042600d8301556116ce86614bce565b6116df600a84015460148501614268565b505491601184019116918287528186526116fd898820918254614791565b905560088301549186528452611717878620918254614791565b90550160ff1981541690558351928352820152a1005b90919250339201541614898381611680565b89845194019381840155018c906115ab565b826000528c848a60002092830192015b82811061176f57505061159e565b60008155018d90611761565b634e487b7160e01b60005260006004526000fd5b50634e487b7160e01b60005260416004526000fd5b6117ad9061459c565b85600052600084526117e460406000206117d187600f8301546107f58282166145e7565b3389825416149081156118a9575061467d565b85600052600084526117ff60176040600020015415156146c8565b8560005260008452611819600d6040600020015415614713565b8560005260008452600b604060002042600d82015561183788614bce565b89611849600a84015460148501614268565b505491166000526011820187526118666040600020918254614791565b905501600160ff198254161790557fb3be9a24bc49244c2a09cfafde10d7faf3f8868c60c21b2d8a39cfb227e612ce60408051888152600187820152a188611525565b600101548916331490508a610814565b60848660288c6040519262461bcd60e51b845260048401528201527f436f6465206d616b65722068617320616c72656164792070726f76696465642060448201527f666565646261636b0000000000000000000000000000000000000000000000006064820152fd5b60648660108c6040519262461bcd60e51b845260048401528201527f496e76616c696420666565646261636b000000000000000000000000000000006044820152fd5b346100ab5761197336614130565b90611981600354821061459c565b80600052602090600082526119c760406000206119a960ff600f8301546107f58282166145e7565b6001600160a01b0390818154163314918215611b61575b505061467d565b80600052600082526119e260176040600020015415156146c8565b80600052600082526119fc600d6040600020015415614713565b806000526000825260406000208351600582015403611b1d57611a1e8261475e565b15611ab357611a34600a82015460148301614268565b5080546801000000000000000081101561063957611a5791600182018155614268565b9490946105b85760136112d992611a8f837f03b1889d496fe4d7ca6e275eb356cab5bf8e9bf835651dfbcdd518c4573c20c798614395565b33600052018452600060408120556040805194859485528401526040830190614090565b6084836040519062461bcd60e51b82526004820152602560248201527f436f646520627265616b65722068617320616c7265616479206d61646520612060448201527f67756573730000000000000000000000000000000000000000000000000000006064820152fd5b6064836040519062461bcd60e51b82526004820152601460248201527f496e76616c6964206775657373206c656e6774680000000000000000000000006044820152fd5b909150600133920154161485806119c0565b346100ab576020806003193601126100ab57600435611b95600354821061459c565b8060005260008252604060002090611bb860ff600f8401546107f58282166145e7565b611bd76001600160a01b0392838154163314908115612031575061467d565b806000526000835260406000209282845416803314808015612022575b15611fb85715611fb257836001860154165b84601387019116908160005280845260406000205415611f4857816000528352611c3a604060002054600e88015490614791565b431115611ede578103611d975750828454169260018095015416926000808654915b828210611d6e575b611d07575b50509260026000957f64e67454795640f66cef8019a707b9381952f2f1024a355d5470bafc82af1800608086899896899897899889528882526040892095600f870161010061ff0019825416179055888a5260118701835260408a205580895288604081205587895260408920549089528760408a20549260405194855284015260408301526060820152a1015490828215610bcf57f115610bc357005b9491909560001987019687116105e4577f64e67454795640f66cef8019a707b9381952f2f1024a355d5470bafc82af1800608060009896899896600295611d578b9a99610553610c278d9c614056565b611d5f614cee565b96995096509650505095611c69565b9085611d7982614056565b505414611d8f57611d89906141d1565b90611c5c565b905086611c64565b92600180950154166000808654915b828210611eb5575b611e4e575b50509260026000957f64e67454795640f66cef8019a707b9381952f2f1024a355d5470bafc82af1800608086899896899897899889528882526040892095600f870161010061ff0019825416179055818a52601187018352896040812055888a5260408a205560408920549089528760408a20549260405194855284015260408301526060820152a1015490828215610bcf57f115610bc357005b9491909560001987019687116105e4577f64e67454795640f66cef8019a707b9381952f2f1024a355d5470bafc82af1800608060009896899896600295611e9e8b9a99610553610c278d9c614056565b611ea6614cee565b96995096509650505095611db3565b9085611ec082614056565b505414611ed657611ed0906141d1565b90611da6565b905086611dae565b6084836040519062461bcd60e51b82526004820152602360248201527f41464b2061636375736174696f6e2074696d6520686173206e6f74206578706960448201527f72656400000000000000000000000000000000000000000000000000000000006064820152fd5b6084846040519062461bcd60e51b82526004820152602860248201527f506c6179657220686173206e6f74206265656e2061636375736564206f66206260448201527f65696e672041464b0000000000000000000000000000000000000000000000006064820152fd5b80611c06565b6084836040519062461bcd60e51b82526004820152602660248201527f4f6e6c7920706c617965727320696e207468652067616d65207665726966792060448201527f61636375736500000000000000000000000000000000000000000000000000006064820152fd5b50846001870154163314611bf4565b6001015484163314905085610814565b346100ab5760206003193601126100ab576020611136600435614b95565b346100ab5760006003193601126100ab57602060405161ea608152f35b346100ab5760006003193601126100ab576020600354604051908152f35b346100ab576020806003193601126100ab576004359060005b60ff81168281109081612184575b50156120d5576120d090614d23565b6120b3565b9060ff80921690601f196121016120eb84613f06565b936120f96040519586613e6d565b808552613f06565b01368284013760005b808416908282108080612150575b1561214257156106235783518210156106235781838761213d941a9186010153614d23565b61210a565b604051806102888782614104565b15610623577fff0000000000000000000000000000000000000000000000000000000000000087841a60f81b161515612118565b901561062357837fff00000000000000000000000000000000000000000000000000000000000000911a60f81b161515846120c1565b346100ab5760006003193601126100ab57602060405160048152f35b346100ab576020806003193601126100ab576004356121f8600354821061459c565b806000526000825260406000209061221b60ff600f8401546107f58282166145e7565b61223a6001600160a01b0392838154163314908115612031575061467d565b80600052600083526040600020918083541680331480801561247e575b15612414571561240b5750601381600185015416935b019080841690816000528286526040600020546123a15761228d8461475e565b908161238c575b811561235e575b50156122f457937f9a171633dc31b3fa430c0c3f7732d342ac783c40ad5d5f6585bbe943b11288e49460005252436040600020556112d9604051928392839092916001600160a01b036020916040840195845216910152565b6084856040519062461bcd60e51b82526004820152602260248201527f4974206d75737420626520746865207475726e206f662074686520616363757360448201527f65640000000000000000000000000000000000000000000000000000000000006064820152fd5b90506123698461475e565b159081612378575b508661229b565b905061238384614bce565b16811486612371565b80915061239885614b95565b16821490612294565b6084866040519062461bcd60e51b82526004820152603060248201527f506c617965722068617320616c72656164792061636375736564206f70706f6e60448201527f656e74206f66206265696e672041464b000000000000000000000000000000006064820152fd5b6013909361226d565b6084866040519062461bcd60e51b82526004820152602360248201527f4f6e6c7920706c617965727320696e207468652067616d652063616e2061636360448201527f75736500000000000000000000000000000000000000000000000000000000006064820152fd5b50826001860154163314612257565b346100ab5760206003193601126100ab576004356001600160a01b038082168092036100ab5760018054906124c1826141a0565b9360009360005b8481106125125786866124da81614219565b9160005b8281106124f357604051806102888682613dae565b806102ac6102a661250761250d94866141e0565b51614056565b6124de565b8282600261251f84614056565b50015416148015612559575b61253e575b612539906141d1565b6124c8565b94612551818761030a612539948b6141e0565b959050612530565b5082828561256684614056565b500154161461252b565b346100ab5760206003193601126100ab576004356002548110156100ab576125979061401c565b50805460018201546002830154600390930154604080519384526001600160a01b03928316602085015291909316908201526060810191909152608090f35b60006003193601126100ab573415612c635760018054805b6128635750600354600052602090600082526040600020600681016004815573ffffffffffffffffffffffffffffffffffffffff1933818454161783556004830190600a82556005840192600684556007850191600a835561ea6060098701553460028701556003549660038701978855600f870161ffff1981541690556000600a880155600b870160ff198154169055600a6008880155600a600e8801556126d381806040518c8101904282524460408201523360601b6060820152605481526126b881613e19565b5190201614601689019060ff60ff1983541691151516179055565b6000601788015560006040516126e881613e35565b526014870180546000825580612836575b5080600052600060405161270c81613e35565b5260158801908154600083558061280b575b50936127fd979361280299979361277e8461277160e0997f0b4576d78344bc547fff983affaec9bb08ed3c4b2b32c978ad4c7db5e22691f59b976000526040519061276882613e35565b6000825261441f565b6040519061276882613e35565b80600d8a01556127a68d6040519061279582613e51565b838252368183013760188b01614395565b88019081541690556127b96003546141d1565b6003558954936001600160a01b038854169354905491549254936040519586528c86015260408501526060840152608083015260a08201523460c0820152a1614552565b6144d2565b54604051908152f35b826000528b600020908101905b818110612825575061271e565b80612830869261435b565b01612818565b81600052828b600020918201915b8281106128525750506126f9565b61285b8161435b565b018390612844565b60001981018181116105e45761287881614056565b5054600052602060008152604060002090600f808301549060ff9182888183161515149182612c55575b82612c47575b82612c2a575b82612c1c575b50506128d0575b505050505080156105e45760001901806125ee565b600a80850154600686015411801590612c0f575b15612939575050506128f861292f93614056565b5054916001600160a01b039160118383541693888401541692846000520190526040600020549181600052604060002054936148fe565b82808080806128bb565b92919461297791945061294b90614056565b50549461295b600354871061459c565b85600052600083526040600020948501546107f58282166145e7565b6129966001600160a01b0393848154163314908115612c00575061467d565b8360005260008152604060002091600d8301805415612b96576018840191825415612b1d57856129c588614b95565b1633148015612b14575b15612aaa578695949260008a9593612a4e937f9efb9b5fd527c492fd7c47f1621da408223747ad7ba90f196681561818362ae79a8352828652612a4260408420612a2a604051612a1e81613e35565b8681526014830161441f565b601560405191612a3983613e35565b8683520161441f565b860161126181546141d1565b60006017830155600b820160ff198154169055838254166000526013820190526000604081205501541660005260006040812055612a8b81614bce565b604080519283526001600160a01b0391909116602083015290a161292f565b6084846040519062461bcd60e51b82526004820152602e60248201527f4f6e6c79207468652070726576696f757320627265616b65722063616e20737460448201527f6172742061206e6577207475726e0000000000000000000000000000000000006064820152fd5b503033146129cf565b60a4846040519062461bcd60e51b82526004820152604660248201527f43616e6e6f74207374617274206e6577207475726e2c2070726576696f75732060448201527f636f64652073656372657420686173206e6f74206265656e207075626c6973686064820152651959081e595d60d21b6084820152fd5b6084836040519062461bcd60e51b82526004820152603760248201527f43616e6e6f74207374617274206e6577207475726e2c2063757272656e74206f60448201527f6e6520686173206e6f742066696e6973686564207965740000000000000000006064820152fd5b88015485163314905088610814565b5082600b860154166128e4565b60081c1615905082896128b4565b9150612c3f600d870154600988015490614791565b4211916128ae565b6018870154151592506128a8565b600d870154151592506128a2565b608460405162461bcd60e51b815260206004820152602160248201527f47616d65207374616b65206d7573742062652067726561746572207468616e2060448201527f30000000000000000000000000000000000000000000000000000000000000006064820152fd5b346100ab5760406003193601126100ab5760043560243590612cf2600354821061459c565b806000526000602052604060002090612d1660ff600f8401546107f58282166145e7565b612d356001600160a01b0392838154163314908115612031575061467d565b8060005260006020526017604060002001918254612e0357612d5682614bce565b1692338403612d99577f32f73f63f8d0bffaf14d8c4569a8b067b0b5f69d402424f68aaa4cdfe491555093816060945560405192835260208301526040820152a1005b608460405162461bcd60e51b815260206004820152603360248201527f4f6e6c79207468652063757272656e7420436f64654d616b65722063616e207360448201527f75626d69742074686520636f64652068617368000000000000000000000000006064820152fd5b608460405162461bcd60e51b8152602060048201526024808201527f436f646520686173682068617320616c7265616479206265656e207375626d6960448201527f74746564000000000000000000000000000000000000000000000000000000006064820152fd5b346100ab5760406003193601126100ab5767ffffffffffffffff6004358181116100ab57612e9e903690600401613ea8565b906024359081116100ab57602091612ebd612ec3923690600401613f22565b90614c00565b604051908152f35b346100ab5760206003193601126100ab576004356000526000602052610288612f09612f0360406000206014600a8201549101614268565b506142d1565b60405191829182613f69565b346100ab5760006003193601126100ab57602060405160068152f35b60206003193601126100ab576004356001600160a01b03811681036100ab573415612c6357600154805b61321057506003546000526000602052604060002090600460068301553373ffffffffffffffffffffffffffffffffffffffff19835416178255600a600483015560066005830155600a600783015561ea6060098301553460028301556003546003830155600f820161ffff1981541690556000600a830155600b820160ff198154169055600a6008830155600a600e83015561303660018060405160208101904282524460408201523360601b60608201526054815261301b81613e19565b5190201614601684019060ff60ff1983541691151516179055565b60006017830155600060405161304b81613e35565b52601482015460006014840155806131df575b5060148201600052600060405161307481613e35565b52601582015460006015840155806131ae575b602060038484601582016000526130b06040516130a381613e35565b600081526014840161441f565b6130cc6040516130bf81613e35565b600081526015840161441f565b6001600d8301556130f56040516130e281613e51565b6001815285368183013760188401614395565b6001600160a01b0360018301911673ffffffffffffffffffffffffffffffffffffffff1982541617905561312982546141d1565b82557f0b4576d78344bc547fff983affaec9bb08ed3c4b2b32c978ad4c7db5e22691f560e0838301546001600160a01b03845416600485015460058601546006870154916007880154936040519586528a86015260408501526060840152608083015260a08201523460c0820152a16131a46127fd82614552565b0154604051908152f35b60158301600052602060002090815b81830181106131cd575050613087565b806131d960019261435b565b016131bd565b60148301600052602060002090815b81830181106131fe57505061305e565b8061320a60019261435b565b016131ee565b60001981018181116105e45761322581614056565b505460005260006020526040600020600f8082015460ff90816001818316151514918261360d575b826135ff575b826135e2575b826135d4575b505061327a575b5050505080156105e4576000190180612f5b565b600a91828401546006850154118015906135c7575b156132eb575050506132a36132e292614056565b5054906001600160a01b038154169060116001600160a01b036001830154169183600052016020526040600020549181600052604060002054936148fe565b82808080613266565b90925061332b6132fe6133459395614056565b50549361330e600354861061459c565b8460005260006020526040600020928301546107f58282166145e7565b6001600160a01b0381541633149081156135b0575061467d565b8060005260006020526040600020600d8101928354156135465760188201918254156134cd576001600160a01b0361337c85614b95565b16331480156134c4575b1561345a576133fd6001600160a01b039360007f9efb9b5fd527c492fd7c47f1621da408223747ad7ba90f196681561818362ae797600195888352826020526133db60408420612a2a604051612a1e81613e35565b85016133e781546141d1565b905542600c860155556040519061127782613e35565b60006017820155600b810160ff1981541690558281541660005260138101602052600060408120550154166000526000604081205561343b81614bce565b604080519283526001600160a01b0391909116602083015290a16132e2565b608460405162461bcd60e51b815260206004820152602e60248201527f4f6e6c79207468652070726576696f757320627265616b65722063616e20737460448201527f6172742061206e6577207475726e0000000000000000000000000000000000006064820152fd5b50303314613386565b60a460405162461bcd60e51b815260206004820152604660248201527f43616e6e6f74207374617274206e6577207475726e2c2070726576696f75732060448201527f636f64652073656372657420686173206e6f74206265656e207075626c6973686064820152651959081e595d60d21b6084820152fd5b608460405162461bcd60e51b815260206004820152603760248201527f43616e6e6f74207374617274206e6577207475726e2c2063757272656e74206f60448201527f6e6520686173206e6f742066696e6973686564207965740000000000000000006064820152fd5b600101546001600160a01b03163314905086610814565b5081600b8501541661328f565b60081c16159050818861325f565b91506135f7600d860154600987015490614791565b421191613259565b601886015415159250613253565b600d8601541515925061324d565b346100ab5760206003193601126100ab57600435600052600060205260406000208061018052808060ff816001600160a01b03808254169060018301541661010052600c82015461020052600d8201546101c05260188201610220526018820154600683015460048401546005850154600786015491600987015493600288015495600389015497600e6008600a600f8d01549c01549d01549d01549d8b601682015416610120526017810154610240528c6014820154156000610140526000146138255750506000610140525b601561018051018c8154156000610160526000146138115750506000610160525b61371661022051614280565b6101a0526040518060c052429052602060c051015261010051604060c051015261020051606060c05101526101c051608060c051015260a060c051015260c08051015260e060c051015261010060c051015261012060c051015261014060c051015261016060c051015261018060c0510152818160081c1615156101a060c05101521615156101c060c05101526101e060c051015261020060c051015261022060c051015261012051151561024060c05101526102405161026060c05101526101405161028060c0510152610160516102a060c05101526102e0806102c060c051015261380b60c0519182016101a051614090565b0360c051f35b61381a91614268565b50546101605261370a565b60146138319201614268565b5054610140526136e9565b346100ab5760206003193601126100ab576004356001548110156100ab57600160005260021b807fb10e2d527612073b26eecdfd717e6a320cf44b4afac2b0732d9fcbe2b7fa0cf601546102886001600160a01b03927fb10e2d527612073b26eecdfd717e6a320cf44b4afac2b0732d9fcbe2b7fa0cf9847fb10e2d527612073b26eecdfd717e6a320cf44b4afac2b0732d9fcbe2b7fa0cf783015416947fb10e2d527612073b26eecdfd717e6a320cf44b4afac2b0732d9fcbe2b7fa0cf88301541691015490604051948594859094939291606092608083019683526001600160a01b0380921660208401521660408201520152565b346100ab5760206003193601126100ab576004356000526000602052604060002080806001600160a01b03808254169060018301541660e05260028201546003830154600484015460058501546006860154600787015490600888015492600989015494600a8a015496600b8b015460ff1698600c8c01549a600d8d01549c600e01549d600f01549e601681015460ff166101e0526017015460a052604051806080525260e0516080516020015260805160400152608051606001526080516080015260805160a0015260805160c0015260805160e001526080516101000152608051610120015260805161014001521515608051610160015260805161018001526080516101a001526080516101c0015260ff811615156080516101e0015260081c60ff16151560805161020001526101e0511515608051610220015260a051608051610240015260805161026090f35b346100ab5760206003193601126100ab576004356000526000602052610288612f09612f0360406000206015600a8201549101614268565b346100ab5760606003193601126100ab5767ffffffffffffffff6004356024358281116100ab57613af2903690600401613ea8565b916044359081116100ab57613b0b903690600401613f22565b91613b19600354831061459c565b8160005260006020526040600020613b3c60ff600f8301546107f58282166145e7565b613b5b6001600160a01b0391828154163314908115613d12575061467d565b826000526000602052604060002093600c850154151580613d05575b15613cc157613b8584614bce565b9182163303613c5757613bf9907ffdeee0ecf1220c6661aa03c9cb141b50f1b22761ab62b6617d65eaafd0e12951613bdf6018880195613bc58188614395565b604051918291898352604060208401526040830190614090565b0390a1613bf4613bee86614b95565b94614280565b614c00565b601785015403613c0c575b42600d850155005b604080518481526001600160a01b0383166020820152613c4f94917fd86b7c8b2dd3f5581afd777a66c96de7fc1f40139f09f1899a98fe7ebb23c5d591a161479e565b818080613c04565b608460405162461bcd60e51b815260206004820152602a60248201527f4f6e6c7920746865206d616b65722063616e207075626c69736820746865206360448201527f6f646520736563726574000000000000000000000000000000000000000000006064820152fd5b606460405162461bcd60e51b815260206004820152601e60248201527f5475726e206d757374206265207374617274656420616e6420656e64656400006044820152fd5b50600d8501541515613b77565b6001015483163314905086610814565b346100ab5760006003193601126100ab5760018054613d4081613e90565b90613d4e6040519283613e6d565b808252600083815260207fb10e2d527612073b26eecdfd717e6a320cf44b4afac2b0732d9fcbe2b7fa0cf68185015b848410613d9257604051806102888882613dae565b6004838892613da085614163565b815201920193019290613d7d565b60208082019080835283518092528060408094019401926000905b838210613dd857505050505090565b845180518752808401516001600160a01b03908116888601528183015116878301526060908101519087015260809095019493820193600190910190613dc9565b6080810190811067ffffffffffffffff82111761063957604052565b6020810190811067ffffffffffffffff82111761063957604052565b6040810190811067ffffffffffffffff82111761063957604052565b90601f601f19910116810190811067ffffffffffffffff82111761063957604052565b67ffffffffffffffff81116106395760051b60200190565b81601f820112156100ab57803591613ebf83613e90565b92613ecd6040519485613e6d565b808452602092838086019260051b8201019283116100ab578301905b828210613ef7575050505090565b81358152908301908301613ee9565b67ffffffffffffffff811161063957601f01601f191660200190565b81601f820112156100ab57803590613f3982613f06565b92613f476040519485613e6d565b828452602083830101116100ab57816000926020809301838601378301015290565b6020808201818352835180915260408301918060408360051b860101950192600090815b848310613f9e575050505050505090565b909192877fffffffffffffffffffffffffffffffffffffffffffffffffffffffffffffffc088839798999b9a0301845287519082808351928381520192019084905b808210614003575050509080600192980193019301919493929097959697613f8d565b9193806001929486518152019401920187939291613fe0565b60025481101561062357600260005260021b7f405787fa12a823e0f2b7631cc41b3ba8828b3321ca811111fa75cd3aa3bb5ace0190600090565b60015481101561062357600160005260021b7fb10e2d527612073b26eecdfd717e6a320cf44b4afac2b0732d9fcbe2b7fa0cf60190600090565b90815180825260208080930193019160005b8281106140b0575050505090565b8351855293810193928101926001016140a2565b50346100ab5760006003193601126100ab576020604051600a8152f35b60005b8381106140f45750506000910152565b81810151838201526020016140e4565b601f19601f6040936020845261412981518092816020880152602088880191016140e1565b0116010190565b9060406003198301126100ab57600435916024359067ffffffffffffffff82116100ab5761416091600401613ea8565b90565b9060405161417081613e19565b606060038294805484526001600160a01b0380600183015416602086015260028201541660408501520154910152565b906141aa82613e90565b6141b76040519182613e6d565b828152601f196141c78294613e90565b0190602036910137565b60001981146105e45760010190565b80518210156106235760209160051b010190565b6040519061420182613e19565b60006060838281528260208201528260408201520152565b9061422382613e90565b6142306040519182613e6d565b828152601f196142408294613e90565b019060005b82811061425157505050565b60209061425c6141f4565b82828501015201614245565b80548210156106235760005260206000200190600090565b9060405191828154918282526020928383019160005283600020936000905b8282106142b7575050506142b592500383613e6d565b565b85548452600195860195889550938101939091019061429f565b9081546142dd81613e90565b926142eb6040519485613e6d565b818452600090815260208082208186015b84841061430a575050505050565b600183819261431885614280565b8152019201930192906142fc565b8054906000908181558261433957505050565b815260208120918201915b82811061435057505050565b818155600101614344565b805490600081558161436b575050565b6000526020600020908101905b818110614383575050565b8061438f600192614326565b01614378565b81519167ffffffffffffffff8311610639576801000000000000000083116106395781548383558084106143f6575b50602080910191600052806000209060005b8481106143e4575050505050565b835183820155928101926001016143d6565b6000838152846020822092830192015b8281106144145750506143c4565b818155600101614406565b919082549068010000000000000000918281101561063957614448906001958682018155614268565b9190916105b85780519283116106395781548383558084106144a2575b50602080910191600052806000206000925b8484106144875750505050509050565b86838261449683945186614395565b01920193019290614477565b826000528584602060002092830192015b8281106144c1575050614465565b6144ca81614326565b0186906144b3565b60025468010000000000000000811015610639578060016144f6920160025561401c565b9190916105b857606081600392518455600184016001600160a01b0390816020840151169073ffffffffffffffffffffffffffffffffffffffff1991828254161790556002860191604084015116908254161790550151910155565b61455a6141f4565b506003810154906001600160a01b039060028282541692600183015416910154916040519361458885613e19565b845260208401526040830152606082015290565b156145a357565b606460405162461bcd60e51b815260206004820152600f60248201527f496e76616c69642067616d6520494400000000000000000000000000000000006044820152fd5b156145ee57565b606460405162461bcd60e51b815260206004820152601460248201527f47616d6520686173206e6f7420737461727465640000000000000000000000006044820152fd5b1561463957565b606460405162461bcd60e51b815260206004820152600e60248201527f47616d652068617320656e6465640000000000000000000000000000000000006044820152fd5b1561468457565b606460405162461bcd60e51b815260206004820152601560248201527f4e6f7420617574686f72697a656420706c6179657200000000000000000000006044820152fd5b156146cf57565b606460405162461bcd60e51b815260206004820152602060248201527f436f64652068617368206e6f74206265656e207375626d6974746564207965746044820152fd5b1561471a57565b606460405162461bcd60e51b815260206004820152600e60248201527f5475726e2068617320656e6465640000000000000000000000000000000000006044820152fd5b6000526000602052604060002061478b600a82015460156147828260148601614268565b50549301614268565b50541490565b919082018092116105e457565b90600091826001938454915b8282106148d5575b614873575b505060008093600282947f64e67454795640f66cef8019a707b9381952f2f1024a355d5470bafc82af1800608086869787528660205260409a8b882094600f860161010061ff00198254161790556001600160a01b0380921697888a52601187016020528d8a205516808852878c8120558688528b8820549088528b882054908c519283528760208401528c8301526060820152a101549082821561486a575bf1156148605750565b513d6000823e3d90fd5b506108fc614857565b90919360001983019283116105e4576002600095947f64e67454795640f66cef8019a707b9381952f2f1024a355d5470bafc82af1800608088976148c0899897610553610c278b9a614056565b6148c8614cee565b96505050945050936147b7565b90836148e082614056565b5054146148f6576148f0906141d1565b906147aa565b9050846147b2565b9092916000806001918254925b838310614a51575b506149ea575b5050600093600285947f64e67454795640f66cef8019a707b9381952f2f1024a355d5470bafc82af1800608086889796889788528760205260409b8c808a2096600f880161010061ff001982541617905580831191828c146149e35784925b8c146149dd578a945b6001600160a01b039b8c95868093168f5260118c01602052838f2055168c528b205516968789528c892054911688528b882054908c519283528760208401528c8301526060820152a101549082821561486a57f1156148605750565b84614981565b8a92614978565b929160001982959692019485116105e4576000957f64e67454795640f66cef8019a707b9381952f2f1024a355d5470bafc82af18006080889795600294614a398a99610553610c278c9b614056565b614a41614cee565b9650965050509450819550614919565b9185614a5c82614056565b505414614a7257614a6c906141d1565b9161490b565b91905038614913565b906000526000602052604060002090600a820154908115614b6a576001600160a01b0380808554169216918214614b18575b60018401541614614ac0575b5050600090565b6001169081159182614b09575b8215614ae6575b5050614ae1573880614ab9565b600190565b600114915081614af9575b503880614ad4565b60ff915060160154161538614af1565b601682015460ff169250614acd565b60018316600181149081614b5b575b8115614b3d575b5015614aad5750505050600190565b90501580614b4c575b38614b2e565b5060ff60168501541615614b46565b601686015460ff169150614b27565b601691509160ff926001600160a01b0380835416911614600014614b8e5701541690565b0154161590565b80600052600060205260406000206001600160a01b0391614bba838354169182614a7b565b15614bc85750600101541690565b91505090565b80600052600060205260406000206001600160a01b0391614bf3838354169182614a7b565b614bc85750600101541690565b60405160209081810192838382519192019060005b818110614c755750505090614c3781614c6f949303601f198101835282613e6d565b604051938491614c6384614c54818601998a8151938492016140e1565b840191518093868401906140e1565b01038084520182613e6d565b51902090565b825184529285019291850191600101614c15565b91906105b857808203614c9a575050565b6003818192548455600184016001600160a01b0390816001840154169073ffffffffffffffffffffffffffffffffffffffff1991828254161790556002860191600284015416908254161790550154910155565b60015480156105ce5760001901614d0481614056565b6105b85760038160008093558260018201558260028201550155600155565b60ff1660ff81146105e4576001019056fea2646970667358221220a574699378dc7834e687ef5fc08eda14e51d3a288f1082949073e041f6fe699e64736f6c63430008110033",
  "linkReferences": {},
  "deployedLinkReferences": {}
}