{
  "_format": "hh-sol-artifact-1",
  "contractName": "Mastermind",
  "sourceName": "contracts/Mastermind.sol",
  "abi": [
    {
      "anonymous": false,
      "inputs": [
        {
          "indexed": false,
          "internalType": "uint256",
          "name": "gameId",
          "type": "uint256"
        },
        {
          "indexed": false,
          "internalType": "address",
          "name": "accused",
          "type": "address"
        }
      ],
      "name": "AFKAccusation",
      "type": "event"
    },
    {
      "anonymous": false,
      "inputs": [
        {
          "indexed": false,
          "internalType": "uint256",
          "name": "gameId",
          "type": "uint256"
        },
        {
          "indexed": false,
          "internalType": "uint256[]",
          "name": "codeSecret",
          "type": "uint256[]"
        }
      ],
      "name": "CodeSecretPublished",
      "type": "event"
    },
    {
      "anonymous": false,
      "inputs": [
        {
          "indexed": false,
          "internalType": "uint256",
          "name": "gameId",
          "type": "uint256"
        },
        {
          "indexed": false,
          "internalType": "uint256[]",
          "name": "guessIDs",
          "type": "uint256[]"
        }
      ],
      "name": "Dispute",
      "type": "event"
    },
    {
      "anonymous": false,
      "inputs": [
        {
          "indexed": false,
          "internalType": "uint256",
          "name": "gameId",
          "type": "uint256"
        },
        {
          "indexed": false,
          "internalType": "uint256",
          "name": "numCorrectPositions",
          "type": "uint256"
        },
        {
          "indexed": false,
          "internalType": "uint256",
          "name": "numCorrectColors",
          "type": "uint256"
        }
      ],
      "name": "Feedback",
      "type": "event"
    },
    {
      "anonymous": false,
      "inputs": [
        {
          "indexed": false,
          "internalType": "uint256",
          "name": "gameId",
          "type": "uint256"
        },
        {
          "indexed": false,
          "internalType": "address",
          "name": "creator",
          "type": "address"
        },
        {
          "indexed": false,
          "internalType": "uint256",
          "name": "numColors",
          "type": "uint256"
        },
        {
          "indexed": false,
          "internalType": "uint256",
          "name": "codeLength",
          "type": "uint256"
        },
        {
          "indexed": false,
          "internalType": "uint256",
          "name": "numTurns",
          "type": "uint256"
        },
        {
          "indexed": false,
          "internalType": "uint256",
          "name": "maxGuesses",
          "type": "uint256"
        },
        {
          "indexed": false,
          "internalType": "uint256",
          "name": "gameStake",
          "type": "uint256"
        }
      ],
      "name": "GameCreated",
      "type": "event"
    },
    {
      "anonymous": false,
      "inputs": [
        {
          "indexed": false,
          "internalType": "uint256",
          "name": "gameId",
          "type": "uint256"
        },
        {
          "indexed": false,
          "internalType": "address",
          "name": "winner",
          "type": "address"
        },
        {
          "indexed": false,
          "internalType": "uint256",
          "name": "winnerPoints",
          "type": "uint256"
        },
        {
          "indexed": false,
          "internalType": "uint256",
          "name": "loserPoints",
          "type": "uint256"
        }
      ],
      "name": "GameEnded",
      "type": "event"
    },
    {
      "anonymous": false,
      "inputs": [
        {
          "indexed": false,
          "internalType": "uint256",
          "name": "gameId",
          "type": "uint256"
        },
        {
          "indexed": false,
          "internalType": "address",
          "name": "joiner",
          "type": "address"
        },
        {
          "indexed": false,
          "internalType": "address",
          "name": "creator",
          "type": "address"
        }
      ],
      "name": "GameJoined",
      "type": "event"
    },
    {
      "anonymous": false,
      "inputs": [
        {
          "indexed": false,
          "internalType": "uint256",
          "name": "gameId",
          "type": "uint256"
        },
        {
          "indexed": false,
          "internalType": "uint256[]",
          "name": "guess",
          "type": "uint256[]"
        }
      ],
      "name": "Guess",
      "type": "event"
    },
    {
      "anonymous": false,
      "inputs": [
        {
          "indexed": false,
          "internalType": "uint256",
          "name": "gameId",
          "type": "uint256"
        }
      ],
      "name": "HandlingGame",
      "type": "event"
    },
    {
      "anonymous": false,
      "inputs": [
        {
          "indexed": false,
          "internalType": "uint256",
          "name": "gameId",
          "type": "uint256"
        },
        {
          "indexed": false,
          "internalType": "address",
          "name": "codeMaker",
          "type": "address"
        },
        {
          "indexed": false,
          "internalType": "bytes32",
          "name": "hash",
          "type": "bytes32"
        }
      ],
      "name": "HashPublished",
      "type": "event"
    },
    {
      "anonymous": false,
      "inputs": [
        {
          "indexed": false,
          "internalType": "uint256",
          "name": "gameId",
          "type": "uint256"
        },
        {
          "indexed": false,
          "internalType": "address",
          "name": "punished",
          "type": "address"
        },
        {
          "indexed": false,
          "internalType": "uint256",
          "name": "amount",
          "type": "uint256"
        }
      ],
      "name": "Punishment",
      "type": "event"
    },
    {
      "anonymous": false,
      "inputs": [
        {
          "indexed": false,
          "internalType": "uint256",
          "name": "gameId",
          "type": "uint256"
        },
        {
          "indexed": false,
          "internalType": "address",
          "name": "punished",
          "type": "address"
        }
      ],
      "name": "ResolveDispute",
      "type": "event"
    },
    {
      "anonymous": false,
      "inputs": [
        {
          "indexed": false,
          "internalType": "uint256",
          "name": "gameId",
          "type": "uint256"
        },
        {
          "indexed": false,
          "internalType": "bool",
          "name": "guessed",
          "type": "bool"
        }
      ],
      "name": "TurnEnded",
      "type": "event"
    },
    {
      "anonymous": false,
      "inputs": [
        {
          "indexed": false,
          "internalType": "uint256",
          "name": "gameId",
          "type": "uint256"
        },
        {
          "indexed": false,
          "internalType": "address",
          "name": "codeMaker",
          "type": "address"
        }
      ],
      "name": "TurnStarted",
      "type": "event"
    },
    {
      "stateMutability": "nonpayable",
      "type": "fallback"
    },
    {
      "inputs": [],
      "name": "B_AFKBLOCKS",
      "outputs": [
        {
          "internalType": "uint256",
          "name": "",
          "type": "uint256"
        }
      ],
      "stateMutability": "view",
      "type": "function"
    },
    {
      "inputs": [],
      "name": "CODE_LENGTH",
      "outputs": [
        {
          "internalType": "uint256",
          "name": "",
          "type": "uint256"
        }
      ],
      "stateMutability": "view",
      "type": "function"
    },
    {
      "inputs": [],
      "name": "K_EXTRA_POINTS",
      "outputs": [
        {
          "internalType": "uint256",
          "name": "",
          "type": "uint256"
        }
      ],
      "stateMutability": "view",
      "type": "function"
    },
    {
      "inputs": [],
      "name": "MAX_COLORS",
      "outputs": [
        {
          "internalType": "uint256",
          "name": "",
          "type": "uint256"
        }
      ],
      "stateMutability": "view",
      "type": "function"
    },
    {
      "inputs": [],
      "name": "NUM_GUESSES",
      "outputs": [
        {
          "internalType": "uint256",
          "name": "",
          "type": "uint256"
        }
      ],
      "stateMutability": "view",
      "type": "function"
    },
    {
      "inputs": [],
      "name": "NUM_TURNS",
      "outputs": [
        {
          "internalType": "uint256",
          "name": "",
          "type": "uint256"
        }
      ],
      "stateMutability": "view",
      "type": "function"
    },
    {
      "inputs": [],
      "name": "TIME_TO_DISPUTE",
      "outputs": [
        {
          "internalType": "uint256",
          "name": "",
          "type": "uint256"
        }
      ],
      "stateMutability": "view",
      "type": "function"
    },
    {
      "inputs": [
        {
          "internalType": "uint256",
          "name": "_gameId",
          "type": "uint256"
        }
      ],
      "name": "accuseAFK",
      "outputs": [],
      "stateMutability": "nonpayable",
      "type": "function"
    },
    {
      "inputs": [
        {
          "internalType": "uint256",
          "name": "",
          "type": "uint256"
        }
      ],
      "name": "activeGames",
      "outputs": [
        {
          "internalType": "uint256",
          "name": "gameId",
          "type": "uint256"
        },
        {
          "internalType": "address",
          "name": "creator",
          "type": "address"
        },
        {
          "internalType": "address",
          "name": "joiner",
          "type": "address"
        },
        {
          "internalType": "uint256",
          "name": "gameStake",
          "type": "uint256"
        }
      ],
      "stateMutability": "view",
      "type": "function"
    },
    {
      "inputs": [
        {
          "internalType": "bytes32",
          "name": "_bytes32",
          "type": "bytes32"
        }
      ],
      "name": "bytes32ToString",
      "outputs": [
        {
          "internalType": "string",
          "name": "",
          "type": "string"
        }
      ],
      "stateMutability": "pure",
      "type": "function"
    },
    {
      "inputs": [],
      "name": "createGame",
      "outputs": [
        {
          "internalType": "uint256",
          "name": "",
          "type": "uint256"
        }
      ],
      "stateMutability": "payable",
      "type": "function"
    },
    {
      "inputs": [
        {
          "internalType": "address",
          "name": "_joiner",
          "type": "address"
        }
      ],
      "name": "createGameWithJoiner",
      "outputs": [
        {
          "internalType": "uint256",
          "name": "",
          "type": "uint256"
        }
      ],
      "stateMutability": "payable",
      "type": "function"
    },
    {
      "inputs": [
        {
          "internalType": "uint256",
          "name": "_gameId",
          "type": "uint256"
        },
        {
          "internalType": "uint256[]",
          "name": "guessIDs",
          "type": "uint256[]"
        }
      ],
      "name": "disputeFeedback",
      "outputs": [],
      "stateMutability": "nonpayable",
      "type": "function"
    },
    {
      "inputs": [
        {
          "internalType": "uint256",
          "name": "",
          "type": "uint256"
        }
      ],
      "name": "games",
      "outputs": [
        {
          "internalType": "address",
          "name": "creator",
          "type": "address"
        },
        {
          "internalType": "address",
          "name": "joiner",
          "type": "address"
        },
        {
          "internalType": "uint256",
          "name": "gameStake",
          "type": "uint256"
        },
        {
          "internalType": "uint256",
          "name": "gameId",
          "type": "uint256"
        },
        {
          "internalType": "uint256",
          "name": "numColors",
          "type": "uint256"
        },
        {
          "internalType": "uint256",
          "name": "codeLength",
          "type": "uint256"
        },
        {
          "internalType": "uint256",
          "name": "numTurns",
          "type": "uint256"
        },
        {
          "internalType": "uint256",
          "name": "maxGuesses",
          "type": "uint256"
        },
        {
          "internalType": "uint256",
          "name": "extraPointsK",
          "type": "uint256"
        },
        {
          "internalType": "uint256",
          "name": "timeToDispute",
          "type": "uint256"
        },
        {
          "internalType": "uint256",
          "name": "currentTurn",
          "type": "uint256"
        },
        {
          "internalType": "bool",
          "name": "guessed",
          "type": "bool"
        },
        {
          "internalType": "uint256",
          "name": "startTime",
          "type": "uint256"
        },
        {
          "internalType": "uint256",
          "name": "endTime",
          "type": "uint256"
        },
        {
          "internalType": "uint256",
          "name": "b",
          "type": "uint256"
        },
        {
          "internalType": "bool",
          "name": "gameStarted",
          "type": "bool"
        },
        {
          "internalType": "bool",
          "name": "gameEnded",
          "type": "bool"
        },
        {
          "internalType": "bool",
          "name": "creatorIsMakerSeed",
          "type": "bool"
        },
        {
          "internalType": "bytes32",
          "name": "codeHash",
          "type": "bytes32"
        }
      ],
      "stateMutability": "view",
      "type": "function"
    },
    {
      "inputs": [
        {
          "internalType": "address",
          "name": "player",
          "type": "address"
        }
      ],
      "name": "getActiveGames",
      "outputs": [
        {
          "components": [
            {
              "internalType": "uint256",
              "name": "gameId",
              "type": "uint256"
            },
            {
              "internalType": "address",
              "name": "creator",
              "type": "address"
            },
            {
              "internalType": "address",
              "name": "joiner",
              "type": "address"
            },
            {
              "internalType": "uint256",
              "name": "gameStake",
              "type": "uint256"
            }
          ],
          "internalType": "struct Mastermind.GameInfo[]",
          "name": "",
          "type": "tuple[]"
        }
      ],
      "stateMutability": "view",
      "type": "function"
    },
    {
      "inputs": [],
      "name": "getAllActiveGames",
      "outputs": [
        {
          "components": [
            {
              "internalType": "uint256",
              "name": "gameId",
              "type": "uint256"
            },
            {
              "internalType": "address",
              "name": "creator",
              "type": "address"
            },
            {
              "internalType": "address",
              "name": "joiner",
              "type": "address"
            },
            {
              "internalType": "uint256",
              "name": "gameStake",
              "type": "uint256"
            }
          ],
          "internalType": "struct Mastermind.GameInfo[]",
          "name": "",
          "type": "tuple[]"
        }
      ],
      "stateMutability": "view",
      "type": "function"
    },
    {
      "inputs": [
        {
          "internalType": "uint256",
          "name": "_gameId",
          "type": "uint256"
        }
      ],
      "name": "getCurrentBreaker",
      "outputs": [
        {
          "internalType": "address",
          "name": "",
          "type": "address"
        }
      ],
      "stateMutability": "view",
      "type": "function"
    },
    {
      "inputs": [
        {
          "internalType": "uint256",
          "name": "_gameId",
          "type": "uint256"
        }
      ],
      "name": "getCurrentMaker",
      "outputs": [
        {
          "internalType": "address",
          "name": "",
          "type": "address"
        }
      ],
      "stateMutability": "view",
      "type": "function"
    },
    {
      "inputs": [
        {
          "internalType": "uint256",
          "name": "_gameId",
          "type": "uint256"
        }
      ],
      "name": "getFeedback",
      "outputs": [
        {
          "internalType": "uint256[][]",
          "name": "",
          "type": "uint256[][]"
        }
      ],
      "stateMutability": "view",
      "type": "function"
    },
    {
      "inputs": [
        {
          "internalType": "uint256",
          "name": "_gameId",
          "type": "uint256"
        }
      ],
      "name": "getGameDetails",
      "outputs": [
        {
          "internalType": "uint256",
          "name": "currentTime",
          "type": "uint256"
        },
        {
          "internalType": "address",
          "name": "creator",
          "type": "address"
        },
        {
          "internalType": "address",
          "name": "joiner",
          "type": "address"
        },
        {
          "internalType": "uint256",
          "name": "startTime",
          "type": "uint256"
        },
        {
          "internalType": "uint256",
          "name": "endTime",
          "type": "uint256"
        },
        {
          "internalType": "uint256",
          "name": "codeSecretLength",
          "type": "uint256"
        },
        {
          "internalType": "uint256",
          "name": "numTurns",
          "type": "uint256"
        },
        {
          "internalType": "uint256",
          "name": "numColors",
          "type": "uint256"
        },
        {
          "internalType": "uint256",
          "name": "codeLength",
          "type": "uint256"
        },
        {
          "internalType": "uint256",
          "name": "maxGuesses",
          "type": "uint256"
        },
        {
          "internalType": "uint256",
          "name": "timeToDispute",
          "type": "uint256"
        },
        {
          "internalType": "uint256",
          "name": "gameStake",
          "type": "uint256"
        },
        {
          "internalType": "uint256",
          "name": "gameId",
          "type": "uint256"
        },
        {
          "internalType": "bool",
          "name": "gameEnded",
          "type": "bool"
        },
        {
          "internalType": "bool",
          "name": "gameStarted",
          "type": "bool"
        },
        {
          "internalType": "uint256",
          "name": "currentTurn",
          "type": "uint256"
        },
        {
          "internalType": "uint256",
          "name": "extraPointsK",
          "type": "uint256"
        },
        {
          "internalType": "uint256",
          "name": "b",
          "type": "uint256"
        },
        {
          "internalType": "bool",
          "name": "creatorIsMakerSeed",
          "type": "bool"
        },
        {
          "internalType": "bytes32",
          "name": "codeHash",
          "type": "bytes32"
        },
        {
          "internalType": "uint256",
          "name": "guessesLength",
          "type": "uint256"
        },
        {
          "internalType": "uint256",
          "name": "feedbacksLength",
          "type": "uint256"
        },
        {
          "internalType": "uint256[]",
          "name": "codeSecret",
          "type": "uint256[]"
        },
        {
          "internalType": "uint256",
          "name": "creatorAFKaccused",
          "type": "uint256"
        },
        {
          "internalType": "uint256",
          "name": "joinerAFKaccused",
          "type": "uint256"
        }
      ],
      "stateMutability": "view",
      "type": "function"
    },
    {
      "inputs": [
        {
          "internalType": "uint256",
          "name": "_gameId",
          "type": "uint256"
        }
      ],
      "name": "getGuesses",
      "outputs": [
        {
          "internalType": "uint256[][]",
          "name": "",
          "type": "uint256[][]"
        }
      ],
      "stateMutability": "view",
      "type": "function"
    },
    {
      "inputs": [
        {
          "internalType": "address",
          "name": "joiner",
          "type": "address"
        }
      ],
      "name": "getJoinableGames",
      "outputs": [
        {
          "components": [
            {
              "internalType": "uint256",
              "name": "gameId",
              "type": "uint256"
            },
            {
              "internalType": "address",
              "name": "creator",
              "type": "address"
            },
            {
              "internalType": "address",
              "name": "joiner",
              "type": "address"
            },
            {
              "internalType": "uint256",
              "name": "gameStake",
              "type": "uint256"
            }
          ],
          "internalType": "struct Mastermind.GameInfo[]",
          "name": "gamesInfo",
          "type": "tuple[]"
        }
      ],
      "stateMutability": "view",
      "type": "function"
    },
    {
      "inputs": [],
      "name": "getNGames",
      "outputs": [
        {
          "internalType": "uint256",
          "name": "",
          "type": "uint256"
        }
      ],
      "stateMutability": "view",
      "type": "function"
    },
    {
      "inputs": [
        {
          "internalType": "uint256[]",
          "name": "intArray",
          "type": "uint256[]"
        },
        {
          "internalType": "bytes",
          "name": "seed",
          "type": "bytes"
        }
      ],
      "name": "hashArrayOfIntegers",
      "outputs": [
        {
          "internalType": "bytes32",
          "name": "",
          "type": "bytes32"
        }
      ],
      "stateMutability": "pure",
      "type": "function"
    },
    {
      "inputs": [
        {
          "internalType": "uint256",
          "name": "_gameId",
          "type": "uint256"
        }
      ],
      "name": "joinGame",
      "outputs": [],
      "stateMutability": "payable",
      "type": "function"
    },
    {
      "inputs": [
        {
          "internalType": "uint256",
          "name": "",
          "type": "uint256"
        }
      ],
      "name": "joinableGames",
      "outputs": [
        {
          "internalType": "uint256",
          "name": "gameId",
          "type": "uint256"
        },
        {
          "internalType": "address",
          "name": "creator",
          "type": "address"
        },
        {
          "internalType": "address",
          "name": "joiner",
          "type": "address"
        },
        {
          "internalType": "uint256",
          "name": "gameStake",
          "type": "uint256"
        }
      ],
      "stateMutability": "view",
      "type": "function"
    },
    {
      "inputs": [
        {
          "internalType": "uint256",
          "name": "_gameId",
          "type": "uint256"
        },
        {
          "internalType": "uint256[]",
          "name": "guess",
          "type": "uint256[]"
        }
      ],
      "name": "makeGuess",
      "outputs": [],
      "stateMutability": "nonpayable",
      "type": "function"
    },
    {
      "inputs": [
        {
          "internalType": "uint256",
          "name": "_gameId",
          "type": "uint256"
        },
        {
          "internalType": "uint256",
          "name": "numCorrectPositions",
          "type": "uint256"
        },
        {
          "internalType": "uint256",
          "name": "numCorrectColors",
          "type": "uint256"
        }
      ],
      "name": "provideFeedback",
      "outputs": [],
      "stateMutability": "nonpayable",
      "type": "function"
    },
    {
      "inputs": [
        {
          "internalType": "uint256",
          "name": "_gameId",
          "type": "uint256"
        },
        {
          "internalType": "uint256[]",
          "name": "_codeSecret",
          "type": "uint256[]"
        },
        {
          "internalType": "bytes",
          "name": "seed",
          "type": "bytes"
        }
      ],
      "name": "publishCodeSecret",
      "outputs": [],
      "stateMutability": "nonpayable",
      "type": "function"
    },
    {
      "inputs": [
        {
          "internalType": "uint256",
          "name": "_gameId",
          "type": "uint256"
        }
      ],
      "name": "startTurn",
      "outputs": [],
      "stateMutability": "nonpayable",
      "type": "function"
    },
    {
      "inputs": [
        {
          "internalType": "uint256",
          "name": "_gameId",
          "type": "uint256"
        },
        {
          "internalType": "bytes32",
          "name": "_hash",
          "type": "bytes32"
        }
      ],
      "name": "submitCodeHash",
      "outputs": [],
      "stateMutability": "nonpayable",
      "type": "function"
    },
    {
      "inputs": [],
      "name": "totalGames",
      "outputs": [
        {
          "internalType": "uint256",
          "name": "",
          "type": "uint256"
        }
      ],
      "stateMutability": "view",
      "type": "function"
    },
    {
      "inputs": [
        {
          "internalType": "uint256",
          "name": "_gameId",
          "type": "uint256"
        }
      ],
      "name": "verifyAFKAccusation",
      "outputs": [],
      "stateMutability": "nonpayable",
      "type": "function"
    }
  ],
  "bytecode": "0x6080806040523461001657614e5d908161001c8239f35b600080fdfe6102a060405260043610156100b0575b346100ab5760008060405161002381613ef4565b601881527f46616c6c6261636b2066756e6374696f6e2063616c6c6564000000000000000060208201526040516100968161008860208201947f41304fac000000000000000000000000000000000000000000000000000000008652602483016141a7565b03601f198101835282613f10565b51906a636f6e736f6c652e6c6f675afa600080fd5b600080fd5b60003560e01c806307eeb50014613dc55780630d2bb4b714613b4d5780631106a38214613b15578063117a5b90146139c157806313e4c714146138ca5780631b31abda1461365a5780632782158d14612f705780632c4e591b1461207c57806338b0bc8214612f545780634930296a14612f0a578063579f838e1461110a5780635be5484514612eab57806368e712f314612ce95780637255d729146125f25780637ad2b34c1461258c5780637eccd5941461110a57806380b900701461257057806385fd68181461248d5780638917c531146121d65780638b575641146121ba5780639201de551461209a57806392b1696b1461207c5780639ecb55241461205f578063a10a8ad214612041578063ab11d7cc14611b73578063b2d9f71014611965578063badf6e7914611444578063be7f359914611147578063d5e1188714611118578063d620f5601461110a578063ef1c97c2146107b3578063efaa55a0146103485763fc684a510361000f57346100ab5760206003193601126100ab576004356001600160a01b03908181168091036100ab5760029182549061025682614243565b9360009360005b8481106102cc57868661026f816142bc565b9160005b82811061028c57604051806102888682613e51565b0390f35b806102ac6102a66102a06102c79486614283565b516140bf565b50614206565b6102b68287614283565b526102c18186614283565b50614274565b610273565b8184846102d8846140bf565b50015416148015610318575b6102f7575b6102f290614274565b61025d565b94610310818761030a6102f2948b614283565b52614274565b9590506102e9565b508383610324836140bf565b500154161580156102e4575083600161033c836140bf565b500154168214156102e4565b6020806003193601126100ab5760043590610366600354831061463f565b81600052600081526040600020600f810160ff81541661076f5760029081830154340361072b576001600160a01b03918284541633146106c1576001808501928354858116801560001461064f575073ffffffffffffffffffffffffffffffffffffffff1916331784555b8160ff198254161790556103e4856145f5565b815468010000000000000000811015610639578281018084558110156106235760607fb10e2d527612073b26eecdfd717e6a320cf44b4afac2b0732d9fcbe2b7fa0cf99184600052851b928051847fb10e2d527612073b26eecdfd717e6a320cf44b4afac2b0732d9fcbe2b7fa0cf601557fb10e2d527612073b26eecdfd717e6a320cf44b4afac2b0732d9fcbe2b7fa0cf78401888b830151169073ffffffffffffffffffffffffffffffffffffffff1991828254161790557fb10e2d527612073b26eecdfd717e6a320cf44b4afac2b0732d9fcbe2b7fa0cf8850190896040840151169082541617905501519101556000808354905b8183106105fa575b610528575b7f8ca5b55df47712c5e59e7aaddc402fc30e6399e3498efec70a7e440bb9d2fac860608a8a8a8a808b5416915416916040519384528301526040820152a1005b60001998969497959398918282019182116105e45761055361054c610559936140bf565b50916140bf565b90614d7c565b875480156105ce57019561056c876140bf565b9790976105b8577f8ca5b55df47712c5e59e7aaddc402fc30e6399e3498efec70a7e440bb9d2fac898600060038a8288978160609e5582015582848201550155559294968194966104e8565b634e487b7160e01b600052600060045260246000fd5b634e487b7160e01b600052603160045260246000fd5b634e487b7160e01b600052601160045260246000fd5b9189610605826140bf565b50541461061b5761061590614274565b916104db565b9150826104e3565b634e487b7160e01b600052603260045260246000fd5b634e487b7160e01b600052604160045260246000fd5b905033146103d1576084876040519062461bcd60e51b82526004820152603860248201527f4f6e6c79206120706c617965722073706563696669656420627920746865206360448201527f726561746f72206d6179206a6f696e207468652067616d6500000000000000006064820152fd5b6084856040519062461bcd60e51b82526004820152602260248201527f43726561746f722063616e6e6f74206a6f696e207468656972206f776e20676160448201527f6d650000000000000000000000000000000000000000000000000000000000006064820152fd5b6064846040519062461bcd60e51b82526004820152601960248201527f496e636f72726563742067616d65207374616b652073656e74000000000000006044820152fd5b6064836040519062461bcd60e51b82526004820152601860248201527f47616d652068617320616c7265616479207374617274656400000000000000006044820152fd5b346100ab576107c1366141d3565b906107cf600354821061463f565b80600052600060205261081a60406000206107ff60ff600f8301546107f582821661468a565b60081c16156146d5565b6001600160a01b0381541633149081156110f3575b50614720565b806000526000602052600d6040600020015415611089578060005260006020526018604060002001541561101f5780600052600060205261086c600d6040600020015460096040600020015490614884565b421015610fdb57806000526000602052604060002061088b8233614b6e565b610f715761089882614cc1565b6001600160a01b0360128301911692836000528160205260ff60406000205416610f0757845191600a60148501940154926108d3848661430b565b505410610ec35760005b86518110156109f3576108f08188614283565b516108fb858761430b565b505411156109af5760005b81811061091c575061091790614274565b6108dd565b6109268289614283565b51610931828a614283565b51146109455761094090614274565b610906565b608460405162461bcd60e51b815260206004820152602a60248201527f4475706c69636174652067756573732049442e2047756573736573206d75737460448201527f2062652061207365742e000000000000000000000000000000000000000000006064820152fd5b606460405162461bcd60e51b815260206004820152601060248201527f496e76616c6964206775657373204944000000000000000000000000000000006044820152fd5b508590856000526020526040600020916001928360ff198254161790557f738400b8f752acddf42852c5993f844990ae9dbd98c5579625d3537dad1b663f6040518281526040602082015280610a4c6040820186614133565b0390a1610a5c600354821061463f565b806000526000602052610a9c6040600020610a8260ff600f8301546107f582821661468a565b336001600160a01b0382541614908115610ead5750614720565b806000526000602052604060002091610ab482614c88565b9284610abf84614cc1565b926000915b610c6f575b5050604080518481526001600160a01b03861660208201527fd86b7c8b2dd3f5581afd777a66c96de7fc1f40139f09f1899a98fe7ebb23c5d59250a183546000805b828210610c46575b610bd8575b5050600093600285947f64e67454795640f66cef8019a707b9381952f2f1024a355d5470bafc82af180060808688979688978852876020526001600160a01b038060408a2096600f880161010061ff00198254161790551691828a526011870160205289604081205516968789526040892055604088205490885260408820549060405192835287602084015260408301526060820152a1015490828215610bcf575bf115610bc357005b6040513d6000823e3d90fd5b506108fc610bbb565b929160001982959692019485116105e4576000957f64e67454795640f66cef8019a707b9381952f2f1024a355d5470bafc82af18006080889795600294610c2e8a99610553610c278c9b6140f9565b50916140f9565b610c36614de1565b9650965050509450819550610b18565b9084610c51826140f9565b505414610c6757610c6190614274565b90610b0b565b905085610b13565b8051821015610ea857600a83015491610ccf610cc9610cc2610cb7610cac610c9a8860148b0161430b565b50610ca58789614283565b519061430b565b50966015890161430b565b50610ca58587614283565b5094614323565b93614323565b610cdb60188601614323565b600094600091610ceb8251614243565b908c6000815b610e4e575b506000815b610d9d575b50505050508151156106235789946020830151149182610d7c575b505090610d2c9115610d3257614274565b91610ac4565b604080518881526001600160a01b03881660208201527fd86b7c8b2dd3f5581afd777a66c96de7fc1f40139f09f1899a98fe7ebb23c5d59190a1610d77888789614891565b614274565b929150935081518910156106235788936040610d2c9301511490918a610d1b565b8451811015610e4957610db08185614283565b5115610dc6575b610dc090614274565b81610cfb565b906000815b610dd7575b5090610db7565b8351811015610e4457610dea8387614283565b51610df58286614283565b511480610e32575b610e1057610e0a90614274565b81610dcb565b959181610e2a610e23610dc09495614274565b9887614283565b529190610dd0565b50610e3d8186614283565b5115610dfd565b610dd0565b610d00565b8451811015610ea357610e618186614283565b51610e6c8285614283565b5114610e82575b610e7c90614274565b81610cf1565b98610e8f610e7c91614274565b9982610e9b8287614283565b529050610e73565b610cf6565b610ac9565b8501546001600160a01b03163314905085610814565b606460405162461bcd60e51b815260206004820152601960248201527f496e76616c6964206e756d626572206f662067756573736573000000000000006044820152fd5b608460405162461bcd60e51b815260206004820152602b60248201527f427265616b65722068617320616c7265616479206469737075746564206d616b60448201527f657220666565646261636b0000000000000000000000000000000000000000006064820152fd5b608460405162461bcd60e51b815260206004820152602960248201527f4f6e6c792074686520636f6465627265616b65722063616e206469737075746560448201527f20666565646261636b00000000000000000000000000000000000000000000006064820152fd5b606460405162461bcd60e51b815260206004820152601460248201527f446973707574652074696d6520657870697265640000000000000000000000006044820152fd5b608460405162461bcd60e51b815260206004820152603660248201527f43616e6e6f7420646973707574652c20436f646520736563726574206861732060448201527f6e6f74206265656e207075626c697368656420796574000000000000000000006064820152fd5b608460405162461bcd60e51b815260206004820152602960248201527f43616e6e6f7420646973707574652c205475726e20686173206e6f742066696e60448201527f69736865642079657400000000000000000000000000000000000000000000006064820152fd5b600101546001600160a01b03163314905084610814565b50611113614167565b61000f565b346100ab5760206003193601126100ab576020611136600435614cc1565b6001600160a01b0360405191168152f35b346100ab576020806003193601126100ab57600435611169600354821061463f565b8060005260008252604060002061118b60ff600f8301546107f582821661468a565b6111aa6001600160a01b03918281541633149081156114345750614720565b81600052600083526040600020600d81018054156113ca57601882019081541561135157836111d886614c88565b1633148015611348575b156112de57946112806001939260007f9efb9b5fd527c492fd7c47f1621da408223747ad7ba90f196681561818362ae7988882528185526112536040832061123b60405161122f81613ed8565b858152601483016144c2565b60156040519161124a83613ed8565b858352016144c2565b600a86016112618154614274565b905542600c870155556040519061127782613ed8565b60008252614438565b60006017830155600b820160ff1981541690558382541660005260138201905260006040812055015416600052600060408120556112bd81614cc1565b604080519283526001600160a01b039091166020830152819081015b0390a1005b6084866040519062461bcd60e51b82526004820152602e60248201527f4f6e6c79207468652070726576696f757320627265616b65722063616e20737460448201527f6172742061206e6577207475726e0000000000000000000000000000000000006064820152fd5b503033146111e2565b60a4866040519062461bcd60e51b82526004820152604660248201527f43616e6e6f74207374617274206e6577207475726e2c2070726576696f75732060448201527f636f64652073656372657420686173206e6f74206265656e207075626c6973686064820152651959081e595d60d21b6084820152fd5b6084856040519062461bcd60e51b82526004820152603760248201527f43616e6e6f74207374617274206e6577207475726e2c2063757272656e74206f60448201527f6e6520686173206e6f742066696e6973686564207965740000000000000000006064820152fd5b6001015483163314905085610814565b346100ab5760606003193601126100ab576004356024908135906044359160035482106114708161463f565b8260005260209060008252604060002094600f8601549361149960ff866107f58280991661468a565b6114b86001600160a01b03978881541633149081156118a95750614720565b85600052600084526114d3601760406000200154151561476b565b85600052600084526114ed600d60406000200154156147b6565b85600052600084526040600020926115058284614884565b60058501548091116119225761151a88614801565b6118b95782146117a4575b50600a83019161153983546015860161430b565b5098604051906040820182811067ffffffffffffffff82111761178f5760405283825282878301528a546801000000000000000081101561178f576115859060019c8d8201815561430b565b91909161177b5750805491600292838355808410611751575b5090600052866000208b60005b84811061173f575050505050917f4efa7a2fca1d9822b1d1f4ecfd98d0d7c318413c91a29fd4cb2a9cfdfcb11e77606061160e936007953360005260138801895260006040812055604051918b8352898301526040820152a1546014840161430b565b50549101541461161a57005b600b6040946116887fb3be9a24bc49244c2a09cfafde10d7faf3f8868c60c21b2d8a39cfb227e612ce97600095611654600354891061463f565b87875286865261167189882091600f8301546107f582821661468a565b8333818354161492831561172d575b505050614720565b84845283835261169f60178786200154151561476b565b8484528383526116b5600d8786200154156147b6565b8484528383528584209042600d8301556116ce86614cc1565b6116df600a8401546014850161430b565b505491601184019116918287528186526116fd898820918254614884565b905560088301549186528452611717878620918254614884565b90550160ff1981541690558351928352820152a1005b90919250339201541614898381611680565b89845194019381840155018c906115ab565b826000528c848a60002092830192015b82811061176f57505061159e565b60008155018d90611761565b634e487b7160e01b60005260006004526000fd5b50634e487b7160e01b60005260416004526000fd5b6117ad9061463f565b85600052600084526117e460406000206117d187600f8301546107f582821661468a565b3389825416149081156118a95750614720565b85600052600084526117ff601760406000200154151561476b565b8560005260008452611819600d60406000200154156147b6565b8560005260008452600b604060002042600d82015561183788614cc1565b89611849600a8401546014850161430b565b505491166000526011820187526118666040600020918254614884565b905501600160ff198254161790557fb3be9a24bc49244c2a09cfafde10d7faf3f8868c60c21b2d8a39cfb227e612ce60408051888152600187820152a188611525565b600101548916331490508a610814565b60848660288c6040519262461bcd60e51b845260048401528201527f436f6465206d616b65722068617320616c72656164792070726f76696465642060448201527f666565646261636b0000000000000000000000000000000000000000000000006064820152fd5b60648660108c6040519262461bcd60e51b845260048401528201527f496e76616c696420666565646261636b000000000000000000000000000000006044820152fd5b346100ab57611973366141d3565b90611981600354821061463f565b80600052602090600082526119c760406000206119a960ff600f8301546107f582821661468a565b6001600160a01b0390818154163314918215611b61575b5050614720565b80600052600082526119e2601760406000200154151561476b565b80600052600082526119fc600d60406000200154156147b6565b806000526000825260406000208351600582015403611b1d57611a1e82614801565b15611ab357611a34600a8201546014830161430b565b5080546801000000000000000081101561063957611a579160018201815561430b565b9490946105b85760136112d992611a8f837f03b1889d496fe4d7ca6e275eb356cab5bf8e9bf835651dfbcdd518c4573c20c798614438565b33600052018452600060408120556040805194859485528401526040830190614133565b6084836040519062461bcd60e51b82526004820152602560248201527f436f646520627265616b65722068617320616c7265616479206d61646520612060448201527f67756573730000000000000000000000000000000000000000000000000000006064820152fd5b6064836040519062461bcd60e51b82526004820152601460248201527f496e76616c6964206775657373206c656e6774680000000000000000000000006044820152fd5b909150600133920154161485806119c0565b346100ab576020806003193601126100ab57600435611b95600354821061463f565b8060005260008252604060002090611bb860ff600f8401546107f582821661468a565b611bd76001600160a01b03928381541633149081156120315750614720565b806000526000835260406000209282845416803314808015612022575b15611fb85715611fb257836001860154165b84601387019116908160005280845260406000205415611f4857816000528352611c3a604060002054600e88015490614884565b431115611ede578103611d975750828454169260018095015416926000808654915b828210611d6e575b611d07575b50509260026000957f64e67454795640f66cef8019a707b9381952f2f1024a355d5470bafc82af1800608086899896899897899889528882526040892095600f870161010061ff0019825416179055888a5260118701835260408a205580895288604081205587895260408920549089528760408a20549260405194855284015260408301526060820152a1015490828215610bcf57f115610bc357005b9491909560001987019687116105e4577f64e67454795640f66cef8019a707b9381952f2f1024a355d5470bafc82af1800608060009896899896600295611d578b9a99610553610c278d9c6140f9565b611d5f614de1565b96995096509650505095611c69565b9085611d79826140f9565b505414611d8f57611d8990614274565b90611c5c565b905086611c64565b92600180950154166000808654915b828210611eb5575b611e4e575b50509260026000957f64e67454795640f66cef8019a707b9381952f2f1024a355d5470bafc82af1800608086899896899897899889528882526040892095600f870161010061ff0019825416179055818a52601187018352896040812055888a5260408a205560408920549089528760408a20549260405194855284015260408301526060820152a1015490828215610bcf57f115610bc357005b9491909560001987019687116105e4577f64e67454795640f66cef8019a707b9381952f2f1024a355d5470bafc82af1800608060009896899896600295611e9e8b9a99610553610c278d9c6140f9565b611ea6614de1565b96995096509650505095611db3565b9085611ec0826140f9565b505414611ed657611ed090614274565b90611da6565b905086611dae565b6084836040519062461bcd60e51b82526004820152602360248201527f41464b2061636375736174696f6e2074696d6520686173206e6f74206578706960448201527f72656400000000000000000000000000000000000000000000000000000000006064820152fd5b6084846040519062461bcd60e51b82526004820152602860248201527f506c6179657220686173206e6f74206265656e2061636375736564206f66206260448201527f65696e672041464b0000000000000000000000000000000000000000000000006064820152fd5b80611c06565b6084836040519062461bcd60e51b82526004820152602660248201527f4f6e6c7920706c617965727320696e207468652067616d65207665726966792060448201527f61636375736500000000000000000000000000000000000000000000000000006064820152fd5b50846001870154163314611bf4565b6001015484163314905085610814565b346100ab5760206003193601126100ab576020611136600435614c88565b346100ab5760006003193601126100ab57602060405161ea608152f35b346100ab5760006003193601126100ab576020600354604051908152f35b346100ab576020806003193601126100ab576004359060005b60ff81168281109081612184575b50156120d5576120d090614e16565b6120b3565b9060ff80921690601f196121016120eb84613fa9565b936120f96040519586613f10565b808552613fa9565b01368284013760005b808416908282108080612150575b1561214257156106235783518210156106235781838761213d941a9186010153614e16565b61210a565b6040518061028887826141a7565b15610623577fff0000000000000000000000000000000000000000000000000000000000000087841a60f81b161515612118565b901561062357837fff00000000000000000000000000000000000000000000000000000000000000911a60f81b161515846120c1565b346100ab5760006003193601126100ab57602060405160048152f35b346100ab576020806003193601126100ab576004356121f8600354821061463f565b806000526000825260406000209061221b60ff600f8401546107f582821661468a565b61223a6001600160a01b03928381541633149081156120315750614720565b80600052600083526040600020918083541680331480801561247e575b15612414571561240b5750601381600185015416935b019080841690816000528286526040600020546123a15761228d84614801565b908161238c575b811561235e575b50156122f457937f9a171633dc31b3fa430c0c3f7732d342ac783c40ad5d5f6585bbe943b11288e49460005252436040600020556112d9604051928392839092916001600160a01b036020916040840195845216910152565b6084856040519062461bcd60e51b82526004820152602260248201527f4974206d75737420626520746865207475726e206f662074686520616363757360448201527f65640000000000000000000000000000000000000000000000000000000000006064820152fd5b905061236984614801565b159081612378575b508661229b565b905061238384614cc1565b16811486612371565b80915061239885614c88565b16821490612294565b6084866040519062461bcd60e51b82526004820152603060248201527f506c617965722068617320616c72656164792061636375736564206f70706f6e60448201527f656e74206f66206265696e672041464b000000000000000000000000000000006064820152fd5b6013909361226d565b6084866040519062461bcd60e51b82526004820152602360248201527f4f6e6c7920706c617965727320696e207468652067616d652063616e2061636360448201527f75736500000000000000000000000000000000000000000000000000000000006064820152fd5b50826001860154163314612257565b346100ab5760206003193601126100ab576004356001600160a01b038082168092036100ab5760018054906124c182614243565b9360009360005b8481106125125786866124da816142bc565b9160005b8281106124f357604051806102888682613e51565b806102ac6102a661250761250d9486614283565b516140f9565b6124de565b8282600261251f846140f9565b50015416148015612559575b61253e575b61253990614274565b6124c8565b94612551818761030a612539948b614283565b959050612530565b50828285612566846140f9565b500154161461252b565b346100ab5760006003193601126100ab57602060405160648152f35b346100ab5760206003193601126100ab576004356002548110156100ab576125b3906140bf565b50805460018201546002830154600390930154604080519384526001600160a01b03928316602085015291909316908201526060810191909152608090f35b60006003193601126100ab573415612c7f5760018054805b61287f5750600354600052602090600082526040600020600681016004815573ffffffffffffffffffffffffffffffffffffffff1933818454161783556004830190600a82556005840192600684556007850191600a835561ea6060098701553460028701556003549660038701978855600f870161ffff1981541690556000600a880155600b870160ff198154169055600a60088801556064600e8801556126ef81806040518c8101904282524460408201523360601b6060820152605481526126d481613ebc565b5190201614601689019060ff60ff1983541691151516179055565b60006017880155600060405161270481613ed8565b526014870180546000825580612852575b5080600052600060405161272881613ed8565b52601588019081546000835580612827575b5093612819979361281e99979361279a8461278d60e0997f0b4576d78344bc547fff983affaec9bb08ed3c4b2b32c978ad4c7db5e22691f59b976000526040519061278482613ed8565b600082526144c2565b6040519061278482613ed8565b80600d8a01556127c28d604051906127b182613ef4565b838252368183013760188b01614438565b88019081541690556127d5600354614274565b6003558954936001600160a01b038854169354905491549254936040519586528c86015260408501526060840152608083015260a08201523460c0820152a16145f5565b614575565b54604051908152f35b826000528b600020908101905b818110612841575061273a565b8061284c86926143fe565b01612834565b81600052828b600020918201915b82811061286e575050612715565b612877816143fe565b018390612860565b60001981018181116105e457612894816140f9565b5054600052602060008152604060002090600f808301549060ff9182888183161515149182612c71575b82612c63575b82612c46575b82612c38575b50506128ec575b505050505080156105e457600019018061260a565b600a80850154600686015411801590612c2b575b156129555750505061291461294b936140f9565b5054916001600160a01b039160118383541693888401541692846000520190526040600020549181600052604060002054936149f1565b82808080806128d7565b929194612993919450612967906140f9565b505494612977600354871061463f565b85600052600083526040600020948501546107f582821661468a565b6129b26001600160a01b0393848154163314908115612c1c5750614720565b8360005260008152604060002091600d8301805415612bb2576018840191825415612b3957856129e188614c88565b1633148015612b30575b15612ac6578695949260008a9593612a6a937f9efb9b5fd527c492fd7c47f1621da408223747ad7ba90f196681561818362ae79a8352828652612a5e60408420612a46604051612a3a81613ed8565b868152601483016144c2565b601560405191612a5583613ed8565b868352016144c2565b86016112618154614274565b60006017830155600b820160ff198154169055838254166000526013820190526000604081205501541660005260006040812055612aa781614cc1565b604080519283526001600160a01b0391909116602083015290a161294b565b6084846040519062461bcd60e51b82526004820152602e60248201527f4f6e6c79207468652070726576696f757320627265616b65722063616e20737460448201527f6172742061206e6577207475726e0000000000000000000000000000000000006064820152fd5b503033146129eb565b60a4846040519062461bcd60e51b82526004820152604660248201527f43616e6e6f74207374617274206e6577207475726e2c2070726576696f75732060448201527f636f64652073656372657420686173206e6f74206265656e207075626c6973686064820152651959081e595d60d21b6084820152fd5b6084836040519062461bcd60e51b82526004820152603760248201527f43616e6e6f74207374617274206e6577207475726e2c2063757272656e74206f60448201527f6e6520686173206e6f742066696e6973686564207965740000000000000000006064820152fd5b88015485163314905088610814565b5082600b86015416612900565b60081c1615905082896128d0565b9150612c5b600d870154600988015490614884565b4211916128ca565b6018870154151592506128c4565b600d870154151592506128be565b608460405162461bcd60e51b815260206004820152602160248201527f47616d65207374616b65206d7573742062652067726561746572207468616e2060448201527f30000000000000000000000000000000000000000000000000000000000000006064820152fd5b346100ab5760406003193601126100ab5760043560243590612d0e600354821061463f565b80600052602091600083526040600020612d3360ff600f8301546107f582821661468a565b612d526001600160a01b0391828154163314908115612e9b5750614720565b8260005260008452604060002060178101918254612e3257612d7385614cc1565b1691338303612dc857946013849392606096957f32f73f63f8d0bffaf14d8c4569a8b067b0b5f69d402424f68aaa4cdfe4915550985533600052018152600060408120556040519384528301526040820152a1005b6084866040519062461bcd60e51b82526004820152603360248201527f4f6e6c79207468652063757272656e7420436f64654d616b65722063616e207360448201527f75626d69742074686520636f64652068617368000000000000000000000000006064820152fd5b6084866040519062461bcd60e51b825260048201526024808201527f436f646520686173682068617320616c7265616479206265656e207375626d6960448201527f74746564000000000000000000000000000000000000000000000000000000006064820152fd5b6001015483163314905086610814565b346100ab5760406003193601126100ab5767ffffffffffffffff6004358181116100ab57612edd903690600401613f4b565b906024359081116100ab57602091612efc612f02923690600401613fc5565b90614cf3565b604051908152f35b346100ab5760206003193601126100ab576004356000526000602052610288612f48612f4260406000206014600a820154910161430b565b50614374565b6040519182918261400c565b346100ab5760006003193601126100ab57602060405160068152f35b60206003193601126100ab576004356001600160a01b03811681036100ab573415612c7f57600154805b61324f57506003546000526000602052604060002090600460068301553373ffffffffffffffffffffffffffffffffffffffff19835416178255600a600483015560066005830155600a600783015561ea6060098301553460028301556003546003830155600f820161ffff1981541690556000600a830155600b820160ff198154169055600a60088301556064600e83015561307560018060405160208101904282524460408201523360601b60608201526054815261305a81613ebc565b5190201614601684019060ff60ff1983541691151516179055565b60006017830155600060405161308a81613ed8565b526014820154600060148401558061321e575b506014820160005260006040516130b381613ed8565b52601582015460006015840155806131ed575b602060038484601582016000526130ef6040516130e281613ed8565b60008152601484016144c2565b61310b6040516130fe81613ed8565b60008152601584016144c2565b6001600d83015561313460405161312181613ef4565b6001815285368183013760188401614438565b6001600160a01b0360018301911673ffffffffffffffffffffffffffffffffffffffff198254161790556131688254614274565b82557f0b4576d78344bc547fff983affaec9bb08ed3c4b2b32c978ad4c7db5e22691f560e0838301546001600160a01b03845416600485015460058601546006870154916007880154936040519586528a86015260408501526060840152608083015260a08201523460c0820152a16131e3612819826145f5565b0154604051908152f35b60158301600052602060002090815b818301811061320c5750506130c6565b806132186001926143fe565b016131fc565b60148301600052602060002090815b818301811061323d57505061309d565b806132496001926143fe565b0161322d565b60001981018181116105e457613264816140f9565b505460005260006020526040600020600f8082015460ff90816001818316151514918261364c575b8261363e575b82613621575b82613613575b50506132b9575b5050505080156105e4576000190180612f9a565b600a9182840154600685015411801590613606575b1561332a575050506132e2613321926140f9565b5054906001600160a01b038154169060116001600160a01b036001830154169183600052016020526040600020549181600052604060002054936149f1565b828080806132a5565b90925061336a61333d61338493956140f9565b50549361334d600354861061463f565b8460005260006020526040600020928301546107f582821661468a565b6001600160a01b0381541633149081156135ef5750614720565b8060005260006020526040600020600d81019283541561358557601882019182541561350c576001600160a01b036133bb85614c88565b1633148015613503575b156134995761343c6001600160a01b039360007f9efb9b5fd527c492fd7c47f1621da408223747ad7ba90f196681561818362ae7976001958883528260205261341a60408420612a46604051612a3a81613ed8565b85016134268154614274565b905542600c860155556040519061127782613ed8565b60006017820155600b810160ff1981541690558281541660005260138101602052600060408120550154166000526000604081205561347a81614cc1565b604080519283526001600160a01b0391909116602083015290a1613321565b608460405162461bcd60e51b815260206004820152602e60248201527f4f6e6c79207468652070726576696f757320627265616b65722063616e20737460448201527f6172742061206e6577207475726e0000000000000000000000000000000000006064820152fd5b503033146133c5565b60a460405162461bcd60e51b815260206004820152604660248201527f43616e6e6f74207374617274206e6577207475726e2c2070726576696f75732060448201527f636f64652073656372657420686173206e6f74206265656e207075626c6973686064820152651959081e595d60d21b6084820152fd5b608460405162461bcd60e51b815260206004820152603760248201527f43616e6e6f74207374617274206e6577207475726e2c2063757272656e74206f60448201527f6e6520686173206e6f742066696e6973686564207965740000000000000000006064820152fd5b600101546001600160a01b03163314905086610814565b5081600b850154166132ce565b60081c16159050818861329e565b9150613636600d860154600987015490614884565b421191613298565b601886015415159250613292565b600d8601541515925061328c565b346100ab5760206003193601126100ab57600435600052600060205260406000208060e052808060ff816001600160a01b03808254169081600052601383016020526040600020546101605260018301541680610220526000526040600020546101a052600c8201546101c052600d82015461028052601882018060c05254600683015460048401546005850154600786015491600987015493600288015495600389015497600e6008600a600f8d01549c01549d01549d01549d8b6016820154166102005260178101546101e0528c6014820154156000610120526000146138b35750506000610120525b601560e051018c81541560006101805260001461389f5750506000610180525b61377160c051614323565b61024052604051806101005242905260206101005101526102205160406101005101526101c051606061010051015261028051608061010051015260a061010051015260c061010051015260e061010051015261010080510152610120610100510152610140610100510152610160610100510152610180610100510152818160081c1615156101a06101005101521615156101c06101005101526101e06101005101526102006101005101526102206101005101526102005115156102406101005101526101e05161026061010051015261012051610280610100510152610180516102a061010051015261387b610320806102c0610100510152610100510161024051614133565b610160516102e06101005101526101a0516103006101005101526101005180910390f35b6138a89161430b565b505461018052613766565b60146138bf920161430b565b505461012052613746565b346100ab5760206003193601126100ab576004356001548110156100ab57600160005260021b807fb10e2d527612073b26eecdfd717e6a320cf44b4afac2b0732d9fcbe2b7fa0cf601546102886001600160a01b03927fb10e2d527612073b26eecdfd717e6a320cf44b4afac2b0732d9fcbe2b7fa0cf9847fb10e2d527612073b26eecdfd717e6a320cf44b4afac2b0732d9fcbe2b7fa0cf783015416947fb10e2d527612073b26eecdfd717e6a320cf44b4afac2b0732d9fcbe2b7fa0cf88301541691015490604051948594859094939291606092608083019683526001600160a01b0380921660208401521660408201520152565b346100ab5760206003193601126100ab576004356000526000602052604060002080806001600160a01b0380825416906001830154166101405260028201546003830154600484015460058501546006860154600787015490600888015492600989015494600a8a015496600b8b015460ff1698600c8c01549a600d8d01549c600e01549d600f01549e601681015460ff1660805260170154610260526040518060a052526101405160a0516020015260a0516040015260a0516060015260a0516080015260a05160a0015260a05160c0015260a05160e0015260a051610100015260a051610120015260a0516101400152151560a051610160015260a051610180015260a0516101a0015260a0516101c0015260ff8116151560a0516101e0015260081c60ff16151560a0516102000152608051151560a05161022001526102605160a051610240015260a05161026090f35b346100ab5760206003193601126100ab576004356000526000602052610288612f48612f4260406000206015600a820154910161430b565b346100ab5760606003193601126100ab5767ffffffffffffffff6004356024358281116100ab57613b82903690600401613f4b565b916044359081116100ab57613b9b903690600401613fc5565b91613ba9600354831061463f565b8160005260209260008452604060002090613bcf60ff600f8401546107f582821661468a565b613bee6001600160a01b0392838154163314908115613db55750614720565b8360005260008552604060002094600c860154151580613da8575b15613d6457613c1785614cc1565b9283163303613cfa5790613c9c917ffdeee0ecf1220c6661aa03c9cb141b50f1b22761ab62b6617d65eaafd0e12951613c716018890196613c588189614438565b6040519182918a83526040868401526040830190614133565b0390a13360005260138701905260006040812055613c97613c9186614c88565b94614323565b614cf3565b601785015403613caf575b42600d850155005b604080518481526001600160a01b0383166020820152613cf294917fd86b7c8b2dd3f5581afd777a66c96de7fc1f40139f09f1899a98fe7ebb23c5d591a1614891565b818080613ca7565b6084906040519062461bcd60e51b82526004820152602a60248201527f4f6e6c7920746865206d616b65722063616e207075626c69736820746865206360448201527f6f646520736563726574000000000000000000000000000000000000000000006064820152fd5b6064906040519062461bcd60e51b82526004820152601e60248201527f5475726e206d757374206265207374617274656420616e6420656e64656400006044820152fd5b50600d8601541515613c09565b6001015484163314905087610814565b346100ab5760006003193601126100ab5760018054613de381613f33565b90613df16040519283613f10565b808252600083815260207fb10e2d527612073b26eecdfd717e6a320cf44b4afac2b0732d9fcbe2b7fa0cf68185015b848410613e3557604051806102888882613e51565b6004838892613e4385614206565b815201920193019290613e20565b60208082019080835283518092528060408094019401926000905b838210613e7b57505050505090565b845180518752808401516001600160a01b03908116888601528183015116878301526060908101519087015260809095019493820193600190910190613e6c565b6080810190811067ffffffffffffffff82111761063957604052565b6020810190811067ffffffffffffffff82111761063957604052565b6040810190811067ffffffffffffffff82111761063957604052565b90601f601f19910116810190811067ffffffffffffffff82111761063957604052565b67ffffffffffffffff81116106395760051b60200190565b81601f820112156100ab57803591613f6283613f33565b92613f706040519485613f10565b808452602092838086019260051b8201019283116100ab578301905b828210613f9a575050505090565b81358152908301908301613f8c565b67ffffffffffffffff811161063957601f01601f191660200190565b81601f820112156100ab57803590613fdc82613fa9565b92613fea6040519485613f10565b828452602083830101116100ab57816000926020809301838601378301015290565b6020808201818352835180915260408301918060408360051b860101950192600090815b848310614041575050505050505090565b909192877fffffffffffffffffffffffffffffffffffffffffffffffffffffffffffffffc088839798999b9a0301845287519082808351928381520192019084905b8082106140a6575050509080600192980193019301919493929097959697614030565b9193806001929486518152019401920187939291614083565b60025481101561062357600260005260021b7f405787fa12a823e0f2b7631cc41b3ba8828b3321ca811111fa75cd3aa3bb5ace0190600090565b60015481101561062357600160005260021b7fb10e2d527612073b26eecdfd717e6a320cf44b4afac2b0732d9fcbe2b7fa0cf60190600090565b90815180825260208080930193019160005b828110614153575050505090565b835185529381019392810192600101614145565b50346100ab5760006003193601126100ab576020604051600a8152f35b60005b8381106141975750506000910152565b8181015183820152602001614187565b601f19601f604093602084526141cc8151809281602088015260208888019101614184565b0116010190565b9060406003198301126100ab57600435916024359067ffffffffffffffff82116100ab5761420391600401613f4b565b90565b9060405161421381613ebc565b606060038294805484526001600160a01b0380600183015416602086015260028201541660408501520154910152565b9061424d82613f33565b61425a6040519182613f10565b828152601f1961426a8294613f33565b0190602036910137565b60001981146105e45760010190565b80518210156106235760209160051b010190565b604051906142a482613ebc565b60006060838281528260208201528260408201520152565b906142c682613f33565b6142d36040519182613f10565b828152601f196142e38294613f33565b019060005b8281106142f457505050565b6020906142ff614297565b828285010152016142e8565b80548210156106235760005260206000200190600090565b9060405191828154918282526020928383019160005283600020936000905b82821061435a5750505061435892500383613f10565b565b855484526001958601958895509381019390910190614342565b90815461438081613f33565b9261438e6040519485613f10565b818452600090815260208082208186015b8484106143ad575050505050565b60018381926143bb85614323565b81520192019301929061439f565b805490600090818155826143dc57505050565b815260208120918201915b8281106143f357505050565b8181556001016143e7565b805490600081558161440e575050565b6000526020600020908101905b818110614426575050565b806144326001926143c9565b0161441b565b81519167ffffffffffffffff831161063957680100000000000000008311610639578154838355808410614499575b50602080910191600052806000209060005b848110614487575050505050565b83518382015592810192600101614479565b6000838152846020822092830192015b8281106144b7575050614467565b8181556001016144a9565b9190825490680100000000000000009182811015610639576144eb90600195868201815561430b565b9190916105b8578051928311610639578154838355808410614545575b50602080910191600052806000206000925b84841061452a5750505050509050565b86838261453983945186614438565b0192019301929061451a565b826000528584602060002092830192015b828110614564575050614508565b61456d816143c9565b018690614556565b600254680100000000000000008110156106395780600161459992016002556140bf565b9190916105b857606081600392518455600184016001600160a01b0390816020840151169073ffffffffffffffffffffffffffffffffffffffff1991828254161790556002860191604084015116908254161790550151910155565b6145fd614297565b506003810154906001600160a01b039060028282541692600183015416910154916040519361462b85613ebc565b845260208401526040830152606082015290565b1561464657565b606460405162461bcd60e51b815260206004820152600f60248201527f496e76616c69642067616d6520494400000000000000000000000000000000006044820152fd5b1561469157565b606460405162461bcd60e51b815260206004820152601460248201527f47616d6520686173206e6f7420737461727465640000000000000000000000006044820152fd5b156146dc57565b606460405162461bcd60e51b815260206004820152600e60248201527f47616d652068617320656e6465640000000000000000000000000000000000006044820152fd5b1561472757565b606460405162461bcd60e51b815260206004820152601560248201527f4e6f7420617574686f72697a656420706c6179657200000000000000000000006044820152fd5b1561477257565b606460405162461bcd60e51b815260206004820152602060248201527f436f64652068617368206e6f74206265656e207375626d6974746564207965746044820152fd5b156147bd57565b606460405162461bcd60e51b815260206004820152600e60248201527f5475726e2068617320656e6465640000000000000000000000000000000000006044820152fd5b600052600060205260406000206017810154158061486a575b80614850575b61484a57614844600a820154601561483b826014860161430b565b5054930161430b565b50541490565b50600090565b50614862600a8201546015830161430b565b505415614820565b5061487c600a8201546014830161430b565b50541561481a565b919082018092116105e457565b90600091826001938454915b8282106149c8575b614966575b505060008093600282947f64e67454795640f66cef8019a707b9381952f2f1024a355d5470bafc82af1800608086869787528660205260409a8b882094600f860161010061ff00198254161790556001600160a01b0380921697888a52601187016020528d8a205516808852878c8120558688528b8820549088528b882054908c519283528760208401528c8301526060820152a101549082821561495d575bf1156149535750565b513d6000823e3d90fd5b506108fc61494a565b90919360001983019283116105e4576002600095947f64e67454795640f66cef8019a707b9381952f2f1024a355d5470bafc82af1800608088976149b3899897610553610c278b9a6140f9565b6149bb614de1565b96505050945050936148aa565b90836149d3826140f9565b5054146149e9576149e390614274565b9061489d565b9050846148a5565b9092916000806001918254925b838310614b44575b50614add575b5050600093600285947f64e67454795640f66cef8019a707b9381952f2f1024a355d5470bafc82af1800608086889796889788528760205260409b8c808a2096600f880161010061ff001982541617905580831191828c14614ad65784925b8c14614ad0578a945b6001600160a01b039b8c95868093168f5260118c01602052838f2055168c528b205516968789528c892054911688528b882054908c519283528760208401528c8301526060820152a101549082821561495d57f1156149535750565b84614a74565b8a92614a6b565b929160001982959692019485116105e4576000957f64e67454795640f66cef8019a707b9381952f2f1024a355d5470bafc82af18006080889795600294614b2c8a99610553610c278c9b6140f9565b614b34614de1565b9650965050509450819550614a0c565b9185614b4f826140f9565b505414614b6557614b5f90614274565b916149fe565b91905038614a06565b906000526000602052604060002090600a820154908115614c5d576001600160a01b0380808554169216918214614c0b575b60018401541614614bb3575b5050600090565b6001169081159182614bfc575b8215614bd9575b5050614bd4573880614bac565b600190565b600114915081614bec575b503880614bc7565b60ff915060160154161538614be4565b601682015460ff169250614bc0565b60018316600181149081614c4e575b8115614c30575b5015614ba05750505050600190565b90501580614c3f575b38614c21565b5060ff60168501541615614c39565b601686015460ff169150614c1a565b601691509160ff926001600160a01b0380835416911614600014614c815701541690565b0154161590565b80600052600060205260406000206001600160a01b0391614cad838354169182614b6e565b15614cbb5750600101541690565b91505090565b80600052600060205260406000206001600160a01b0391614ce6838354169182614b6e565b614cbb5750600101541690565b60405160209081810192838382519192019060005b818110614d685750505090614d2a81614d62949303601f198101835282613f10565b604051938491614d5684614d47818601998a815193849201614184565b84019151809386840190614184565b01038084520182613f10565b51902090565b825184529285019291850191600101614d08565b91906105b857808203614d8d575050565b6003818192548455600184016001600160a01b0390816001840154169073ffffffffffffffffffffffffffffffffffffffff1991828254161790556002860191600284015416908254161790550154910155565b60015480156105ce5760001901614df7816140f9565b6105b85760038160008093558260018201558260028201550155600155565b60ff1660ff81146105e4576001019056fea2646970667358221220944fb21ae46fc6557ca8e8caa97508a083c670841938c1c08c356ae9a78abc3c64736f6c63430008110033",
  "linkReferences": {},
  "deployedLinkReferences": {}
}